{
  "_format": "hh-sol-artifact-1",
  "contractName": "MessageStorage",
  "sourceName": "contracts/MessageStorage.sol",
  "abi": [
    {
      "anonymous": false,
      "inputs": [
        {
          "indexed": true,
          "internalType": "address",
          "name": "sender",
          "type": "address"
        },
        {
          "indexed": true,
          "internalType": "address",
          "name": "recipient",
          "type": "address"
        },
        {
          "indexed": false,
          "internalType": "string",
          "name": "content",
          "type": "string"
        }
      ],
      "name": "MessageSent",
      "type": "event"
    },
    {
      "stateMutability": "payable",
      "type": "fallback"
    },
    {
      "inputs": [
        {
          "internalType": "bytes32",
          "name": "",
          "type": "bytes32"
        },
        {
          "internalType": "uint256",
          "name": "",
          "type": "uint256"
        }
      ],
      "name": "allMessages",
      "outputs": [
        {
          "internalType": "address",
          "name": "sender",
          "type": "address"
        },
        {
          "internalType": "uint256",
          "name": "timestamp",
          "type": "uint256"
        },
        {
          "internalType": "string",
          "name": "content",
          "type": "string"
        }
      ],
      "stateMutability": "view",
      "type": "function"
    },
    {
      "inputs": [
        {
          "internalType": "uint256",
          "name": "_messageIndex",
          "type": "uint256"
        }
      ],
      "name": "deleteMessage",
      "outputs": [],
      "stateMutability": "nonpayable",
      "type": "function"
    },
    {
      "inputs": [],
      "name": "getMyMessages",
      "outputs": [
        {
          "components": [
            {
              "internalType": "address",
              "name": "sender",
              "type": "address"
            },
            {
              "internalType": "address",
              "name": "recipient",
              "type": "address"
            },
            {
              "internalType": "string",
              "name": "content",
              "type": "string"
            },
            {
              "internalType": "uint256",
              "name": "timestamp",
              "type": "uint256"
            },
            {
              "internalType": "bool",
              "name": "isRead",
              "type": "bool"
            },
            {
              "internalType": "bool",
              "name": "isDeleted",
              "type": "bool"
            }
          ],
          "internalType": "struct MessageStorage.Message[]",
          "name": "",
          "type": "tuple[]"
        }
      ],
      "stateMutability": "view",
      "type": "function"
    },
    {
      "inputs": [
        {
          "internalType": "uint256",
          "name": "_messageIndex",
          "type": "uint256"
        }
      ],
      "name": "markAsRead",
      "outputs": [],
      "stateMutability": "nonpayable",
      "type": "function"
    },
    {
      "inputs": [
        {
          "internalType": "address",
          "name": "_friendAddress",
          "type": "address"
        }
      ],
      "name": "readFriendMessage",
      "outputs": [
        {
          "components": [
            {
              "internalType": "address",
              "name": "sender",
              "type": "address"
            },
            {
              "internalType": "uint256",
              "name": "timestamp",
              "type": "uint256"
            },
            {
              "internalType": "string",
              "name": "content",
              "type": "string"
            }
          ],
          "internalType": "struct MessageStorage.shortMessage[]",
          "name": "",
          "type": "tuple[]"
        }
      ],
      "stateMutability": "view",
      "type": "function"
    },
    {
      "inputs": [
        {
          "internalType": "address",
          "name": "_recipient",
          "type": "address"
        },
        {
          "internalType": "string",
          "name": "_content",
          "type": "string"
        }
      ],
      "name": "sendMessage",
      "outputs": [],
      "stateMutability": "nonpayable",
      "type": "function"
    },
    {
      "inputs": [
        {
          "internalType": "address",
          "name": "",
          "type": "address"
        },
        {
          "internalType": "uint256",
          "name": "",
          "type": "uint256"
        }
      ],
      "name": "userMessages",
      "outputs": [
        {
          "internalType": "address",
          "name": "sender",
          "type": "address"
        },
        {
          "internalType": "address",
          "name": "recipient",
          "type": "address"
        },
        {
          "internalType": "string",
          "name": "content",
          "type": "string"
        },
        {
          "internalType": "uint256",
          "name": "timestamp",
          "type": "uint256"
        },
        {
          "internalType": "bool",
          "name": "isRead",
          "type": "bool"
        },
        {
          "internalType": "bool",
          "name": "isDeleted",
          "type": "bool"
        }
      ],
      "stateMutability": "view",
      "type": "function"
    },
    {
      "stateMutability": "payable",
      "type": "receive"
    }
  ],
  "bytecode": "0x608060405234801561001057600080fd5b50611f49806100206000396000f3fe6080604052600436106100745760003560e01c80637c100c361161004e5780637c100c36146101245780639428cda31461014d578063b888690a1461018f578063de6f24bb146101b85761007b565b80634ab272841461007d5780635e7339ce146100ba5780637694eaa6146100e55761007b565b3661007b57005b005b34801561008957600080fd5b506100a4600480360381019061009f91906112c7565b6101e1565b6040516100b191906114be565b60405180910390f35b3480156100c657600080fd5b506100cf61061a565b6040516100dc9190611646565b60405180910390f35b3480156100f157600080fd5b5061010c600480360381019061010791906116ca565b610833565b60405161011b93929190611772565b60405180910390f35b34801561013057600080fd5b5061014b600480360381019061014691906117b0565b610922565b005b34801561015957600080fd5b50610174600480360381019061016f91906117dd565b610a22565b6040516101869695949392919061182c565b60405180910390f35b34801561019b57600080fd5b506101b660048036038101906101b191906117b0565b610b5d565b005b3480156101c457600080fd5b506101df60048036038101906101da91906119c9565b610c5d565b005b606060006101ef33846110c5565b905060006101fd84336110c5565b9050600060016000848152602001908152602001600020805480602002602001604051908101604052809291908181526020016000905b8282101561035857838290600052602060002090600302016040518060600160405290816000820160009054906101000a900473ffffffffffffffffffffffffffffffffffffffff1673ffffffffffffffffffffffffffffffffffffffff1673ffffffffffffffffffffffffffffffffffffffff168152602001600182015481526020016002820180546102c790611a54565b80601f01602080910402602001604051908101604052809291908181526020018280546102f390611a54565b80156103405780601f1061031557610100808354040283529160200191610340565b820191906000526020600020905b81548152906001019060200180831161032357829003601f168201915b50505050508152505081526020019060010190610234565b505050509050600060016000848152602001908152602001600020805480602002602001604051908101604052809291908181526020016000905b828210156104b757838290600052602060002090600302016040518060600160405290816000820160009054906101000a900473ffffffffffffffffffffffffffffffffffffffff1673ffffffffffffffffffffffffffffffffffffffff1673ffffffffffffffffffffffffffffffffffffffff1681526020016001820154815260200160028201805461042690611a54565b80601f016020809104026020016040519081016040528092919081815260200182805461045290611a54565b801561049f5780601f106104745761010080835404028352916020019161049f565b820191906000526020600020905b81548152906001019060200180831161048257829003601f168201915b50505050508152505081526020019060010190610393565b5050505090506000815183516104cd9190611ab4565b905060008167ffffffffffffffff8111156104eb576104ea61189e565b5b60405190808252806020026020018201604052801561052457816020015b61051161121e565b8152602001906001900390816105095790505b5090506000805b855181101561058e5785818151811061054757610546611ae8565b5b602002602001015183828151811061056257610561611ae8565b5b6020026020010181905250818061057890611b17565b925050808061058690611b17565b91505061052b565b5060005b8451811015610601578481815181106105ae576105ad611ae8565b5b6020026020010151838288516105c49190611ab4565b815181106105d5576105d4611ae8565b5b602002602001018190525081806105eb90611b17565b92505080806105f990611b17565b915050610592565b5061060b826110f8565b81975050505050505050919050565b60606000803373ffffffffffffffffffffffffffffffffffffffff1673ffffffffffffffffffffffffffffffffffffffff168152602001908152602001600020805480602002602001604051908101604052809291908181526020016000905b8282101561082a57838290600052602060002090600502016040518060c00160405290816000820160009054906101000a900473ffffffffffffffffffffffffffffffffffffffff1673ffffffffffffffffffffffffffffffffffffffff1673ffffffffffffffffffffffffffffffffffffffff1681526020016001820160009054906101000a900473ffffffffffffffffffffffffffffffffffffffff1673ffffffffffffffffffffffffffffffffffffffff1673ffffffffffffffffffffffffffffffffffffffff16815260200160028201805461075990611a54565b80601f016020809104026020016040519081016040528092919081815260200182805461078590611a54565b80156107d25780601f106107a7576101008083540402835291602001916107d2565b820191906000526020600020905b8154815290600101906020018083116107b557829003601f168201915b50505050508152602001600382015481526020016004820160009054906101000a900460ff161515151581526020016004820160019054906101000a900460ff1615151515815250508152602001906001019061067a565b50505050905090565b6001602052816000526040600020818154811061084f57600080fd5b9060005260206000209060030201600091509150508060000160009054906101000a900473ffffffffffffffffffffffffffffffffffffffff169080600101549080600201805461089f90611a54565b80601f01602080910402602001604051908101604052809291908181526020018280546108cb90611a54565b80156109185780601f106108ed57610100808354040283529160200191610918565b820191906000526020600020905b8154815290600101906020018083116108fb57829003601f168201915b5050505050905083565b6000803373ffffffffffffffffffffffffffffffffffffffff1673ffffffffffffffffffffffffffffffffffffffff1681526020019081526020016000208054905081106109a5576040517f08c379a000000000000000000000000000000000000000000000000000000000815260040161099c90611bab565b60405180910390fd5b60016000803373ffffffffffffffffffffffffffffffffffffffff1673ffffffffffffffffffffffffffffffffffffffff16815260200190815260200160002082815481106109f7576109f6611ae8565b5b906000526020600020906005020160040160006101000a81548160ff02191690831515021790555050565b60006020528160005260406000208181548110610a3e57600080fd5b9060005260206000209060050201600091509150508060000160009054906101000a900473ffffffffffffffffffffffffffffffffffffffff16908060010160009054906101000a900473ffffffffffffffffffffffffffffffffffffffff1690806002018054610aae90611a54565b80601f0160208091040260200160405190810160405280929190818152602001828054610ada90611a54565b8015610b275780601f10610afc57610100808354040283529160200191610b27565b820191906000526020600020905b815481529060010190602001808311610b0a57829003601f168201915b5050505050908060030154908060040160009054906101000a900460ff16908060040160019054906101000a900460ff16905086565b6000803373ffffffffffffffffffffffffffffffffffffffff1673ffffffffffffffffffffffffffffffffffffffff168152602001908152602001600020805490508110610be0576040517f08c379a0000000000000000000000000000000000000000000000000000000008152600401610bd790611bab565b60405180910390fd5b60016000803373ffffffffffffffffffffffffffffffffffffffff1673ffffffffffffffffffffffffffffffffffffffff1681526020019081526020016000208281548110610c3257610c31611ae8565b5b906000526020600020906005020160040160016101000a81548160ff02191690831515021790555050565b60006040518060c001604052803373ffffffffffffffffffffffffffffffffffffffff1681526020018473ffffffffffffffffffffffffffffffffffffffff168152602001838152602001428152602001600015158152602001600015158152509050600060405180606001604052803373ffffffffffffffffffffffffffffffffffffffff1681526020014281526020018481525090506000610d0133866110c5565b90506000803373ffffffffffffffffffffffffffffffffffffffff1673ffffffffffffffffffffffffffffffffffffffff16815260200190815260200160002083908060018154018082558091505060019003906000526020600020906005020160009091909190915060008201518160000160006101000a81548173ffffffffffffffffffffffffffffffffffffffff021916908373ffffffffffffffffffffffffffffffffffffffff16021790555060208201518160010160006101000a81548173ffffffffffffffffffffffffffffffffffffffff021916908373ffffffffffffffffffffffffffffffffffffffff1602179055506040820151816002019081610e0e9190611d77565b506060820151816003015560808201518160040160006101000a81548160ff02191690831515021790555060a08201518160040160016101000a81548160ff02191690831515021790555050506000808673ffffffffffffffffffffffffffffffffffffffff1673ffffffffffffffffffffffffffffffffffffffff16815260200190815260200160002083908060018154018082558091505060019003906000526020600020906005020160009091909190915060008201518160000160006101000a81548173ffffffffffffffffffffffffffffffffffffffff021916908373ffffffffffffffffffffffffffffffffffffffff16021790555060208201518160010160006101000a81548173ffffffffffffffffffffffffffffffffffffffff021916908373ffffffffffffffffffffffffffffffffffffffff1602179055506040820151816002019081610f669190611d77565b506060820151816003015560808201518160040160006101000a81548160ff02191690831515021790555060a08201518160040160016101000a81548160ff02191690831515021790555050506001600082815260200190815260200160002082908060018154018082558091505060019003906000526020600020906003020160009091909190915060008201518160000160006101000a81548173ffffffffffffffffffffffffffffffffffffffff021916908373ffffffffffffffffffffffffffffffffffffffff1602179055506020820151816001015560408201518160020190816110569190611d77565b5050508473ffffffffffffffffffffffffffffffffffffffff163373ffffffffffffffffffffffffffffffffffffffff167fe2cf7446a11cbcd14cd99ea3a1bb77fb7653a64f4064d660140b5100d001e13c866040516110b69190611e49565b60405180910390a35050505050565b600082826040516020016110da929190611eb3565b60405160208183030381529060405280519060200120905092915050565b60018151111561121b5760005b600182516111139190611edf565b8110156112195760006001826111299190611ab4565b90505b82518110156112055782818151811061114857611147611ae8565b5b60200260200101516020015183838151811061116757611166611ae8565b5b60200260200101516020015111156111f257600083838151811061118e5761118d611ae8565b5b602002602001015190508382815181106111ab576111aa611ae8565b5b60200260200101518484815181106111c6576111c5611ae8565b5b6020026020010181905250808483815181106111e5576111e4611ae8565b5b6020026020010181905250505b80806111fd90611b17565b91505061112c565b50808061121190611b17565b915050611105565b505b50565b6040518060600160405280600073ffffffffffffffffffffffffffffffffffffffff16815260200160008152602001606081525090565b6000604051905090565b600080fd5b600080fd5b600073ffffffffffffffffffffffffffffffffffffffff82169050919050565b600061129482611269565b9050919050565b6112a481611289565b81146112af57600080fd5b50565b6000813590506112c18161129b565b92915050565b6000602082840312156112dd576112dc61125f565b5b60006112eb848285016112b2565b91505092915050565b600081519050919050565b600082825260208201905092915050565b6000819050602082019050919050565b61132981611289565b82525050565b6000819050919050565b6113428161132f565b82525050565b600081519050919050565b600082825260208201905092915050565b60005b83811015611382578082015181840152602081019050611367565b60008484015250505050565b6000601f19601f8301169050919050565b60006113aa82611348565b6113b48185611353565b93506113c4818560208601611364565b6113cd8161138e565b840191505092915050565b60006060830160008301516113f06000860182611320565b5060208301516114036020860182611339565b506040830151848203604086015261141b828261139f565b9150508091505092915050565b600061143483836113d8565b905092915050565b6000602082019050919050565b6000611454826112f4565b61145e81856112ff565b93508360208202850161147085611310565b8060005b858110156114ac578484038952815161148d8582611428565b94506114988361143c565b925060208a01995050600181019050611474565b50829750879550505050505092915050565b600060208201905081810360008301526114d88184611449565b905092915050565b600081519050919050565b600082825260208201905092915050565b6000819050602082019050919050565b60008115159050919050565b6115218161150c565b82525050565b600060c08301600083015161153f6000860182611320565b5060208301516115526020860182611320565b506040830151848203604086015261156a828261139f565b915050606083015161157f6060860182611339565b5060808301516115926080860182611518565b5060a08301516115a560a0860182611518565b508091505092915050565b60006115bc8383611527565b905092915050565b6000602082019050919050565b60006115dc826114e0565b6115e681856114eb565b9350836020820285016115f8856114fc565b8060005b85811015611634578484038952815161161585826115b0565b9450611620836115c4565b925060208a019950506001810190506115fc565b50829750879550505050505092915050565b6000602082019050818103600083015261166081846115d1565b905092915050565b6000819050919050565b61167b81611668565b811461168657600080fd5b50565b60008135905061169881611672565b92915050565b6116a78161132f565b81146116b257600080fd5b50565b6000813590506116c48161169e565b92915050565b600080604083850312156116e1576116e061125f565b5b60006116ef85828601611689565b9250506020611700858286016116b5565b9150509250929050565b61171381611289565b82525050565b6117228161132f565b82525050565b600082825260208201905092915050565b600061174482611348565b61174e8185611728565b935061175e818560208601611364565b6117678161138e565b840191505092915050565b6000606082019050611787600083018661170a565b6117946020830185611719565b81810360408301526117a68184611739565b9050949350505050565b6000602082840312156117c6576117c561125f565b5b60006117d4848285016116b5565b91505092915050565b600080604083850312156117f4576117f361125f565b5b6000611802858286016112b2565b9250506020611813858286016116b5565b9150509250929050565b6118268161150c565b82525050565b600060c082019050611841600083018961170a565b61184e602083018861170a565b81810360408301526118608187611739565b905061186f6060830186611719565b61187c608083018561181d565b61188960a083018461181d565b979650505050505050565b600080fd5b600080fd5b7f4e487b7100000000000000000000000000000000000000000000000000000000600052604160045260246000fd5b6118d68261138e565b810181811067ffffffffffffffff821117156118f5576118f461189e565b5b80604052505050565b6000611908611255565b905061191482826118cd565b919050565b600067ffffffffffffffff8211156119345761193361189e565b5b61193d8261138e565b9050602081019050919050565b82818337600083830152505050565b600061196c61196784611919565b6118fe565b90508281526020810184848401111561198857611987611899565b5b61199384828561194a565b509392505050565b600082601f8301126119b0576119af611894565b5b81356119c0848260208601611959565b91505092915050565b600080604083850312156119e0576119df61125f565b5b60006119ee858286016112b2565b925050602083013567ffffffffffffffff811115611a0f57611a0e611264565b5b611a1b8582860161199b565b9150509250929050565b7f4e487b7100000000000000000000000000000000000000000000000000000000600052602260045260246000fd5b60006002820490506001821680611a6c57607f821691505b602082108103611a7f57611a7e611a25565b5b50919050565b7f4e487b7100000000000000000000000000000000000000000000000000000000600052601160045260246000fd5b6000611abf8261132f565b9150611aca8361132f565b9250828201905080821115611ae257611ae1611a85565b5b92915050565b7f4e487b7100000000000000000000000000000000000000000000000000000000600052603260045260246000fd5b6000611b228261132f565b91507fffffffffffffffffffffffffffffffffffffffffffffffffffffffffffffffff8203611b5457611b53611a85565b5b600182019050919050565b7f496e76616c6964206d65737361676520696e6465780000000000000000000000600082015250565b6000611b95601583611728565b9150611ba082611b5f565b602082019050919050565b60006020820190508181036000830152611bc481611b88565b9050919050565b60008190508160005260206000209050919050565b60006020601f8301049050919050565b600082821b905092915050565b600060088302611c2d7fffffffffffffffffffffffffffffffffffffffffffffffffffffffffffffffff82611bf0565b611c378683611bf0565b95508019841693508086168417925050509392505050565b6000819050919050565b6000611c74611c6f611c6a8461132f565b611c4f565b61132f565b9050919050565b6000819050919050565b611c8e83611c59565b611ca2611c9a82611c7b565b848454611bfd565b825550505050565b600090565b611cb7611caa565b611cc2818484611c85565b505050565b5b81811015611ce657611cdb600082611caf565b600181019050611cc8565b5050565b601f821115611d2b57611cfc81611bcb565b611d0584611be0565b81016020851015611d14578190505b611d28611d2085611be0565b830182611cc7565b50505b505050565b600082821c905092915050565b6000611d4e60001984600802611d30565b1980831691505092915050565b6000611d678383611d3d565b9150826002028217905092915050565b611d8082611348565b67ffffffffffffffff811115611d9957611d9861189e565b5b611da38254611a54565b611dae828285611cea565b600060209050601f831160018114611de15760008415611dcf578287015190505b611dd98582611d5b565b865550611e41565b601f198416611def86611bcb565b60005b82811015611e1757848901518255600182019150602085019450602081019050611df2565b86831015611e345784890151611e30601f891682611d3d565b8355505b6001600288020188555050505b505050505050565b60006020820190508181036000830152611e638184611739565b905092915050565b60008160601b9050919050565b6000611e8382611e6b565b9050919050565b6000611e9582611e78565b9050919050565b611ead611ea882611289565b611e8a565b82525050565b6000611ebf8285611e9c565b601482019150611ecf8284611e9c565b6014820191508190509392505050565b6000611eea8261132f565b9150611ef58361132f565b9250828203905081811115611f0d57611f0c611a85565b5b9291505056fea26469706673582212203dbc75852e7467992f4c31e5387cf0ab9942b6128520883ff421b1c60747f2a764736f6c63430008150033",
  "linkReferences": {},
  "deployedLinkReferences": {}
}