{"contracts/MessageStorage.sol":{"MessageStorage":{"abi":[{"anonymous":false,"inputs":[{"indexed":true,"internalType":"address","name":"sender","type":"address"},{"indexed":true,"internalType":"address","name":"recipient","type":"address"},{"indexed":false,"internalType":"string","name":"content","type":"string"}],"name":"MessageSent","type":"event"},{"stateMutability":"payable","type":"fallback"},{"inputs":[{"internalType":"bytes32","name":"","type":"bytes32"},{"internalType":"uint256","name":"","type":"uint256"}],"name":"allMessages","outputs":[{"internalType":"address","name":"sender","type":"address"},{"internalType":"uint256","name":"timestamp","type":"uint256"},{"internalType":"string","name":"content","type":"string"}],"stateMutability":"view","type":"function"},{"inputs":[{"internalType":"uint256","name":"_messageIndex","type":"uint256"}],"name":"deleteMessage","outputs":[],"stateMutability":"nonpayable","type":"function"},{"inputs":[],"name":"getMyMessages","outputs":[{"components":[{"internalType":"address","name":"sender","type":"address"},{"internalType":"address","name":"recipient","type":"address"},{"internalType":"string","name":"content","type":"string"},{"internalType":"uint256","name":"timestamp","type":"uint256"},{"internalType":"bool","name":"isRead","type":"bool"},{"internalType":"bool","name":"isDeleted","type":"bool"}],"internalType":"struct MessageStorage.Message[]","name":"","type":"tuple[]"}],"stateMutability":"view","type":"function"},{"inputs":[{"internalType":"uint256","name":"_messageIndex","type":"uint256"}],"name":"markAsRead","outputs":[],"stateMutability":"nonpayable","type":"function"},{"inputs":[{"internalType":"address","name":"_friendAddress","type":"address"}],"name":"readFriendMessage","outputs":[{"components":[{"internalType":"address","name":"sender","type":"address"},{"internalType":"uint256","name":"timestamp","type":"uint256"},{"internalType":"string","name":"content","type":"string"}],"internalType":"struct MessageStorage.shortMessage[]","name":"","type":"tuple[]"}],"stateMutability":"view","type":"function"},{"inputs":[{"internalType":"address","name":"_recipient","type":"address"},{"internalType":"string","name":"_content","type":"string"}],"name":"sendMessage","outputs":[],"stateMutability":"nonpayable","type":"function"},{"inputs":[{"internalType":"address","name":"","type":"address"},{"internalType":"uint256","name":"","type":"uint256"}],"name":"userMessages","outputs":[{"internalType":"address","name":"sender","type":"address"},{"internalType":"address","name":"recipient","type":"address"},{"internalType":"string","name":"content","type":"string"},{"internalType":"uint256","name":"timestamp","type":"uint256"},{"internalType":"bool","name":"isRead","type":"bool"},{"internalType":"bool","name":"isDeleted","type":"bool"}],"stateMutability":"view","type":"function"},{"stateMutability":"payable","type":"receive"}],"devdoc":{"kind":"dev","methods":{},"version":1},"evm":{"bytecode":{"linkReferences":{},"object":"608060405234801561001057600080fd5b50611f49806100206000396000f3fe6080604052600436106100745760003560e01c80637c100c361161004e5780637c100c36146101245780639428cda31461014d578063b888690a1461018f578063de6f24bb146101b85761007b565b80634ab272841461007d5780635e7339ce146100ba5780637694eaa6146100e55761007b565b3661007b57005b005b34801561008957600080fd5b506100a4600480360381019061009f91906112c7565b6101e1565b6040516100b191906114be565b60405180910390f35b3480156100c657600080fd5b506100cf61061a565b6040516100dc9190611646565b60405180910390f35b3480156100f157600080fd5b5061010c600480360381019061010791906116ca565b610833565b60405161011b93929190611772565b60405180910390f35b34801561013057600080fd5b5061014b600480360381019061014691906117b0565b610922565b005b34801561015957600080fd5b50610174600480360381019061016f91906117dd565b610a22565b6040516101869695949392919061182c565b60405180910390f35b34801561019b57600080fd5b506101b660048036038101906101b191906117b0565b610b5d565b005b3480156101c457600080fd5b506101df60048036038101906101da91906119c9565b610c5d565b005b606060006101ef33846110c5565b905060006101fd84336110c5565b9050600060016000848152602001908152602001600020805480602002602001604051908101604052809291908181526020016000905b8282101561035857838290600052602060002090600302016040518060600160405290816000820160009054906101000a900473ffffffffffffffffffffffffffffffffffffffff1673ffffffffffffffffffffffffffffffffffffffff1673ffffffffffffffffffffffffffffffffffffffff168152602001600182015481526020016002820180546102c790611a54565b80601f01602080910402602001604051908101604052809291908181526020018280546102f390611a54565b80156103405780601f1061031557610100808354040283529160200191610340565b820191906000526020600020905b81548152906001019060200180831161032357829003601f168201915b50505050508152505081526020019060010190610234565b505050509050600060016000848152602001908152602001600020805480602002602001604051908101604052809291908181526020016000905b828210156104b757838290600052602060002090600302016040518060600160405290816000820160009054906101000a900473ffffffffffffffffffffffffffffffffffffffff1673ffffffffffffffffffffffffffffffffffffffff1673ffffffffffffffffffffffffffffffffffffffff1681526020016001820154815260200160028201805461042690611a54565b80601f016020809104026020016040519081016040528092919081815260200182805461045290611a54565b801561049f5780601f106104745761010080835404028352916020019161049f565b820191906000526020600020905b81548152906001019060200180831161048257829003601f168201915b50505050508152505081526020019060010190610393565b5050505090506000815183516104cd9190611ab4565b905060008167ffffffffffffffff8111156104eb576104ea61189e565b5b60405190808252806020026020018201604052801561052457816020015b61051161121e565b8152602001906001900390816105095790505b5090506000805b855181101561058e5785818151811061054757610546611ae8565b5b602002602001015183828151811061056257610561611ae8565b5b6020026020010181905250818061057890611b17565b925050808061058690611b17565b91505061052b565b5060005b8451811015610601578481815181106105ae576105ad611ae8565b5b6020026020010151838288516105c49190611ab4565b815181106105d5576105d4611ae8565b5b602002602001018190525081806105eb90611b17565b92505080806105f990611b17565b915050610592565b5061060b826110f8565b81975050505050505050919050565b60606000803373ffffffffffffffffffffffffffffffffffffffff1673ffffffffffffffffffffffffffffffffffffffff168152602001908152602001600020805480602002602001604051908101604052809291908181526020016000905b8282101561082a57838290600052602060002090600502016040518060c00160405290816000820160009054906101000a900473ffffffffffffffffffffffffffffffffffffffff1673ffffffffffffffffffffffffffffffffffffffff1673ffffffffffffffffffffffffffffffffffffffff1681526020016001820160009054906101000a900473ffffffffffffffffffffffffffffffffffffffff1673ffffffffffffffffffffffffffffffffffffffff1673ffffffffffffffffffffffffffffffffffffffff16815260200160028201805461075990611a54565b80601f016020809104026020016040519081016040528092919081815260200182805461078590611a54565b80156107d25780601f106107a7576101008083540402835291602001916107d2565b820191906000526020600020905b8154815290600101906020018083116107b557829003601f168201915b50505050508152602001600382015481526020016004820160009054906101000a900460ff161515151581526020016004820160019054906101000a900460ff1615151515815250508152602001906001019061067a565b50505050905090565b6001602052816000526040600020818154811061084f57600080fd5b9060005260206000209060030201600091509150508060000160009054906101000a900473ffffffffffffffffffffffffffffffffffffffff169080600101549080600201805461089f90611a54565b80601f01602080910402602001604051908101604052809291908181526020018280546108cb90611a54565b80156109185780601f106108ed57610100808354040283529160200191610918565b820191906000526020600020905b8154815290600101906020018083116108fb57829003601f168201915b5050505050905083565b6000803373ffffffffffffffffffffffffffffffffffffffff1673ffffffffffffffffffffffffffffffffffffffff1681526020019081526020016000208054905081106109a5576040517f08c379a000000000000000000000000000000000000000000000000000000000815260040161099c90611bab565b60405180910390fd5b60016000803373ffffffffffffffffffffffffffffffffffffffff1673ffffffffffffffffffffffffffffffffffffffff16815260200190815260200160002082815481106109f7576109f6611ae8565b5b906000526020600020906005020160040160006101000a81548160ff02191690831515021790555050565b60006020528160005260406000208181548110610a3e57600080fd5b9060005260206000209060050201600091509150508060000160009054906101000a900473ffffffffffffffffffffffffffffffffffffffff16908060010160009054906101000a900473ffffffffffffffffffffffffffffffffffffffff1690806002018054610aae90611a54565b80601f0160208091040260200160405190810160405280929190818152602001828054610ada90611a54565b8015610b275780601f10610afc57610100808354040283529160200191610b27565b820191906000526020600020905b815481529060010190602001808311610b0a57829003601f168201915b5050505050908060030154908060040160009054906101000a900460ff16908060040160019054906101000a900460ff16905086565b6000803373ffffffffffffffffffffffffffffffffffffffff1673ffffffffffffffffffffffffffffffffffffffff168152602001908152602001600020805490508110610be0576040517f08c379a0000000000000000000000000000000000000000000000000000000008152600401610bd790611bab565b60405180910390fd5b60016000803373ffffffffffffffffffffffffffffffffffffffff1673ffffffffffffffffffffffffffffffffffffffff1681526020019081526020016000208281548110610c3257610c31611ae8565b5b906000526020600020906005020160040160016101000a81548160ff02191690831515021790555050565b60006040518060c001604052803373ffffffffffffffffffffffffffffffffffffffff1681526020018473ffffffffffffffffffffffffffffffffffffffff168152602001838152602001428152602001600015158152602001600015158152509050600060405180606001604052803373ffffffffffffffffffffffffffffffffffffffff1681526020014281526020018481525090506000610d0133866110c5565b90506000803373ffffffffffffffffffffffffffffffffffffffff1673ffffffffffffffffffffffffffffffffffffffff16815260200190815260200160002083908060018154018082558091505060019003906000526020600020906005020160009091909190915060008201518160000160006101000a81548173ffffffffffffffffffffffffffffffffffffffff021916908373ffffffffffffffffffffffffffffffffffffffff16021790555060208201518160010160006101000a81548173ffffffffffffffffffffffffffffffffffffffff021916908373ffffffffffffffffffffffffffffffffffffffff1602179055506040820151816002019081610e0e9190611d77565b506060820151816003015560808201518160040160006101000a81548160ff02191690831515021790555060a08201518160040160016101000a81548160ff02191690831515021790555050506000808673ffffffffffffffffffffffffffffffffffffffff1673ffffffffffffffffffffffffffffffffffffffff16815260200190815260200160002083908060018154018082558091505060019003906000526020600020906005020160009091909190915060008201518160000160006101000a81548173ffffffffffffffffffffffffffffffffffffffff021916908373ffffffffffffffffffffffffffffffffffffffff16021790555060208201518160010160006101000a81548173ffffffffffffffffffffffffffffffffffffffff021916908373ffffffffffffffffffffffffffffffffffffffff1602179055506040820151816002019081610f669190611d77565b506060820151816003015560808201518160040160006101000a81548160ff02191690831515021790555060a08201518160040160016101000a81548160ff02191690831515021790555050506001600082815260200190815260200160002082908060018154018082558091505060019003906000526020600020906003020160009091909190915060008201518160000160006101000a81548173ffffffffffffffffffffffffffffffffffffffff021916908373ffffffffffffffffffffffffffffffffffffffff1602179055506020820151816001015560408201518160020190816110569190611d77565b5050508473ffffffffffffffffffffffffffffffffffffffff163373ffffffffffffffffffffffffffffffffffffffff167fe2cf7446a11cbcd14cd99ea3a1bb77fb7653a64f4064d660140b5100d001e13c866040516110b69190611e49565b60405180910390a35050505050565b600082826040516020016110da929190611eb3565b60405160208183030381529060405280519060200120905092915050565b60018151111561121b5760005b600182516111139190611edf565b8110156112195760006001826111299190611ab4565b90505b82518110156112055782818151811061114857611147611ae8565b5b60200260200101516020015183838151811061116757611166611ae8565b5b60200260200101516020015111156111f257600083838151811061118e5761118d611ae8565b5b602002602001015190508382815181106111ab576111aa611ae8565b5b60200260200101518484815181106111c6576111c5611ae8565b5b6020026020010181905250808483815181106111e5576111e4611ae8565b5b6020026020010181905250505b80806111fd90611b17565b91505061112c565b50808061121190611b17565b915050611105565b505b50565b6040518060600160405280600073ffffffffffffffffffffffffffffffffffffffff16815260200160008152602001606081525090565b6000604051905090565b600080fd5b600080fd5b600073ffffffffffffffffffffffffffffffffffffffff82169050919050565b600061129482611269565b9050919050565b6112a481611289565b81146112af57600080fd5b50565b6000813590506112c18161129b565b92915050565b6000602082840312156112dd576112dc61125f565b5b60006112eb848285016112b2565b91505092915050565b600081519050919050565b600082825260208201905092915050565b6000819050602082019050919050565b61132981611289565b82525050565b6000819050919050565b6113428161132f565b82525050565b600081519050919050565b600082825260208201905092915050565b60005b83811015611382578082015181840152602081019050611367565b60008484015250505050565b6000601f19601f8301169050919050565b60006113aa82611348565b6113b48185611353565b93506113c4818560208601611364565b6113cd8161138e565b840191505092915050565b60006060830160008301516113f06000860182611320565b5060208301516114036020860182611339565b506040830151848203604086015261141b828261139f565b9150508091505092915050565b600061143483836113d8565b905092915050565b6000602082019050919050565b6000611454826112f4565b61145e81856112ff565b93508360208202850161147085611310565b8060005b858110156114ac578484038952815161148d8582611428565b94506114988361143c565b925060208a01995050600181019050611474565b50829750879550505050505092915050565b600060208201905081810360008301526114d88184611449565b905092915050565b600081519050919050565b600082825260208201905092915050565b6000819050602082019050919050565b60008115159050919050565b6115218161150c565b82525050565b600060c08301600083015161153f6000860182611320565b5060208301516115526020860182611320565b506040830151848203604086015261156a828261139f565b915050606083015161157f6060860182611339565b5060808301516115926080860182611518565b5060a08301516115a560a0860182611518565b508091505092915050565b60006115bc8383611527565b905092915050565b6000602082019050919050565b60006115dc826114e0565b6115e681856114eb565b9350836020820285016115f8856114fc565b8060005b85811015611634578484038952815161161585826115b0565b9450611620836115c4565b925060208a019950506001810190506115fc565b50829750879550505050505092915050565b6000602082019050818103600083015261166081846115d1565b905092915050565b6000819050919050565b61167b81611668565b811461168657600080fd5b50565b60008135905061169881611672565b92915050565b6116a78161132f565b81146116b257600080fd5b50565b6000813590506116c48161169e565b92915050565b600080604083850312156116e1576116e061125f565b5b60006116ef85828601611689565b9250506020611700858286016116b5565b9150509250929050565b61171381611289565b82525050565b6117228161132f565b82525050565b600082825260208201905092915050565b600061174482611348565b61174e8185611728565b935061175e818560208601611364565b6117678161138e565b840191505092915050565b6000606082019050611787600083018661170a565b6117946020830185611719565b81810360408301526117a68184611739565b9050949350505050565b6000602082840312156117c6576117c561125f565b5b60006117d4848285016116b5565b91505092915050565b600080604083850312156117f4576117f361125f565b5b6000611802858286016112b2565b9250506020611813858286016116b5565b9150509250929050565b6118268161150c565b82525050565b600060c082019050611841600083018961170a565b61184e602083018861170a565b81810360408301526118608187611739565b905061186f6060830186611719565b61187c608083018561181d565b61188960a083018461181d565b979650505050505050565b600080fd5b600080fd5b7f4e487b7100000000000000000000000000000000000000000000000000000000600052604160045260246000fd5b6118d68261138e565b810181811067ffffffffffffffff821117156118f5576118f461189e565b5b80604052505050565b6000611908611255565b905061191482826118cd565b919050565b600067ffffffffffffffff8211156119345761193361189e565b5b61193d8261138e565b9050602081019050919050565b82818337600083830152505050565b600061196c61196784611919565b6118fe565b90508281526020810184848401111561198857611987611899565b5b61199384828561194a565b509392505050565b600082601f8301126119b0576119af611894565b5b81356119c0848260208601611959565b91505092915050565b600080604083850312156119e0576119df61125f565b5b60006119ee858286016112b2565b925050602083013567ffffffffffffffff811115611a0f57611a0e611264565b5b611a1b8582860161199b565b9150509250929050565b7f4e487b7100000000000000000000000000000000000000000000000000000000600052602260045260246000fd5b60006002820490506001821680611a6c57607f821691505b602082108103611a7f57611a7e611a25565b5b50919050565b7f4e487b7100000000000000000000000000000000000000000000000000000000600052601160045260246000fd5b6000611abf8261132f565b9150611aca8361132f565b9250828201905080821115611ae257611ae1611a85565b5b92915050565b7f4e487b7100000000000000000000000000000000000000000000000000000000600052603260045260246000fd5b6000611b228261132f565b91507fffffffffffffffffffffffffffffffffffffffffffffffffffffffffffffffff8203611b5457611b53611a85565b5b600182019050919050565b7f496e76616c6964206d65737361676520696e6465780000000000000000000000600082015250565b6000611b95601583611728565b9150611ba082611b5f565b602082019050919050565b60006020820190508181036000830152611bc481611b88565b9050919050565b60008190508160005260206000209050919050565b60006020601f8301049050919050565b600082821b905092915050565b600060088302611c2d7fffffffffffffffffffffffffffffffffffffffffffffffffffffffffffffffff82611bf0565b611c378683611bf0565b95508019841693508086168417925050509392505050565b6000819050919050565b6000611c74611c6f611c6a8461132f565b611c4f565b61132f565b9050919050565b6000819050919050565b611c8e83611c59565b611ca2611c9a82611c7b565b848454611bfd565b825550505050565b600090565b611cb7611caa565b611cc2818484611c85565b505050565b5b81811015611ce657611cdb600082611caf565b600181019050611cc8565b5050565b601f821115611d2b57611cfc81611bcb565b611d0584611be0565b81016020851015611d14578190505b611d28611d2085611be0565b830182611cc7565b50505b505050565b600082821c905092915050565b6000611d4e60001984600802611d30565b1980831691505092915050565b6000611d678383611d3d565b9150826002028217905092915050565b611d8082611348565b67ffffffffffffffff811115611d9957611d9861189e565b5b611da38254611a54565b611dae828285611cea565b600060209050601f831160018114611de15760008415611dcf578287015190505b611dd98582611d5b565b865550611e41565b601f198416611def86611bcb565b60005b82811015611e1757848901518255600182019150602085019450602081019050611df2565b86831015611e345784890151611e30601f891682611d3d565b8355505b6001600288020188555050505b505050505050565b60006020820190508181036000830152611e638184611739565b905092915050565b60008160601b9050919050565b6000611e8382611e6b565b9050919050565b6000611e9582611e78565b9050919050565b611ead611ea882611289565b611e8a565b82525050565b6000611ebf8285611e9c565b601482019150611ecf8284611e9c565b6014820191508190509392505050565b6000611eea8261132f565b9150611ef58361132f565b9250828203905081811115611f0d57611f0c611a85565b5b9291505056fea26469706673582212203dbc75852e7467992f4c31e5387cf0ab9942b6128520883ff421b1c60747f2a764736f6c63430008150033","opcodes":"PUSH1 0x80 PUSH1 0x40 MSTORE CALLVALUE DUP1 ISZERO PUSH2 0x10 JUMPI PUSH1 0x0 DUP1 REVERT JUMPDEST POP PUSH2 0x1F49 DUP1 PUSH2 0x20 PUSH1 0x0 CODECOPY PUSH1 0x0 RETURN INVALID PUSH1 0x80 PUSH1 0x40 MSTORE PUSH1 0x4 CALLDATASIZE LT PUSH2 0x74 JUMPI PUSH1 0x0 CALLDATALOAD PUSH1 0xE0 SHR DUP1 PUSH4 0x7C100C36 GT PUSH2 0x4E JUMPI DUP1 PUSH4 0x7C100C36 EQ PUSH2 0x124 JUMPI DUP1 PUSH4 0x9428CDA3 EQ PUSH2 0x14D JUMPI DUP1 PUSH4 0xB888690A EQ PUSH2 0x18F JUMPI DUP1 PUSH4 0xDE6F24BB EQ PUSH2 0x1B8 JUMPI PUSH2 0x7B JUMP JUMPDEST DUP1 PUSH4 0x4AB27284 EQ PUSH2 0x7D JUMPI DUP1 PUSH4 0x5E7339CE EQ PUSH2 0xBA JUMPI DUP1 PUSH4 0x7694EAA6 EQ PUSH2 0xE5 JUMPI PUSH2 0x7B JUMP JUMPDEST CALLDATASIZE PUSH2 0x7B JUMPI STOP JUMPDEST STOP JUMPDEST CALLVALUE DUP1 ISZERO PUSH2 0x89 JUMPI PUSH1 0x0 DUP1 REVERT JUMPDEST POP PUSH2 0xA4 PUSH1 0x4 DUP1 CALLDATASIZE SUB DUP2 ADD SWAP1 PUSH2 0x9F SWAP2 SWAP1 PUSH2 0x12C7 JUMP JUMPDEST PUSH2 0x1E1 JUMP JUMPDEST PUSH1 0x40 MLOAD PUSH2 0xB1 SWAP2 SWAP1 PUSH2 0x14BE JUMP JUMPDEST PUSH1 0x40 MLOAD DUP1 SWAP2 SUB SWAP1 RETURN JUMPDEST CALLVALUE DUP1 ISZERO PUSH2 0xC6 JUMPI PUSH1 0x0 DUP1 REVERT JUMPDEST POP PUSH2 0xCF PUSH2 0x61A JUMP JUMPDEST PUSH1 0x40 MLOAD PUSH2 0xDC SWAP2 SWAP1 PUSH2 0x1646 JUMP JUMPDEST PUSH1 0x40 MLOAD DUP1 SWAP2 SUB SWAP1 RETURN JUMPDEST CALLVALUE DUP1 ISZERO PUSH2 0xF1 JUMPI PUSH1 0x0 DUP1 REVERT JUMPDEST POP PUSH2 0x10C PUSH1 0x4 DUP1 CALLDATASIZE SUB DUP2 ADD SWAP1 PUSH2 0x107 SWAP2 SWAP1 PUSH2 0x16CA JUMP JUMPDEST PUSH2 0x833 JUMP JUMPDEST PUSH1 0x40 MLOAD PUSH2 0x11B SWAP4 SWAP3 SWAP2 SWAP1 PUSH2 0x1772 JUMP JUMPDEST PUSH1 0x40 MLOAD DUP1 SWAP2 SUB SWAP1 RETURN JUMPDEST CALLVALUE DUP1 ISZERO PUSH2 0x130 JUMPI PUSH1 0x0 DUP1 REVERT JUMPDEST POP PUSH2 0x14B PUSH1 0x4 DUP1 CALLDATASIZE SUB DUP2 ADD SWAP1 PUSH2 0x146 SWAP2 SWAP1 PUSH2 0x17B0 JUMP JUMPDEST PUSH2 0x922 JUMP JUMPDEST STOP JUMPDEST CALLVALUE DUP1 ISZERO PUSH2 0x159 JUMPI PUSH1 0x0 DUP1 REVERT JUMPDEST POP PUSH2 0x174 PUSH1 0x4 DUP1 CALLDATASIZE SUB DUP2 ADD SWAP1 PUSH2 0x16F SWAP2 SWAP1 PUSH2 0x17DD JUMP JUMPDEST PUSH2 0xA22 JUMP JUMPDEST PUSH1 0x40 MLOAD PUSH2 0x186 SWAP7 SWAP6 SWAP5 SWAP4 SWAP3 SWAP2 SWAP1 PUSH2 0x182C JUMP JUMPDEST PUSH1 0x40 MLOAD DUP1 SWAP2 SUB SWAP1 RETURN JUMPDEST CALLVALUE DUP1 ISZERO PUSH2 0x19B JUMPI PUSH1 0x0 DUP1 REVERT JUMPDEST POP PUSH2 0x1B6 PUSH1 0x4 DUP1 CALLDATASIZE SUB DUP2 ADD SWAP1 PUSH2 0x1B1 SWAP2 SWAP1 PUSH2 0x17B0 JUMP JUMPDEST PUSH2 0xB5D JUMP JUMPDEST STOP JUMPDEST CALLVALUE DUP1 ISZERO PUSH2 0x1C4 JUMPI PUSH1 0x0 DUP1 REVERT JUMPDEST POP PUSH2 0x1DF PUSH1 0x4 DUP1 CALLDATASIZE SUB DUP2 ADD SWAP1 PUSH2 0x1DA SWAP2 SWAP1 PUSH2 0x19C9 JUMP JUMPDEST PUSH2 0xC5D JUMP JUMPDEST STOP JUMPDEST PUSH1 0x60 PUSH1 0x0 PUSH2 0x1EF CALLER DUP5 PUSH2 0x10C5 JUMP JUMPDEST SWAP1 POP PUSH1 0x0 PUSH2 0x1FD DUP5 CALLER PUSH2 0x10C5 JUMP JUMPDEST SWAP1 POP PUSH1 0x0 PUSH1 0x1 PUSH1 0x0 DUP5 DUP2 MSTORE PUSH1 0x20 ADD SWAP1 DUP2 MSTORE PUSH1 0x20 ADD PUSH1 0x0 KECCAK256 DUP1 SLOAD DUP1 PUSH1 0x20 MUL PUSH1 0x20 ADD PUSH1 0x40 MLOAD SWAP1 DUP2 ADD PUSH1 0x40 MSTORE DUP1 SWAP3 SWAP2 SWAP1 DUP2 DUP2 MSTORE PUSH1 0x20 ADD PUSH1 0x0 SWAP1 JUMPDEST DUP3 DUP3 LT ISZERO PUSH2 0x358 JUMPI DUP4 DUP3 SWAP1 PUSH1 0x0 MSTORE PUSH1 0x20 PUSH1 0x0 KECCAK256 SWAP1 PUSH1 0x3 MUL ADD PUSH1 0x40 MLOAD DUP1 PUSH1 0x60 ADD PUSH1 0x40 MSTORE SWAP1 DUP2 PUSH1 0x0 DUP3 ADD PUSH1 0x0 SWAP1 SLOAD SWAP1 PUSH2 0x100 EXP SWAP1 DIV PUSH20 0xFFFFFFFFFFFFFFFFFFFFFFFFFFFFFFFFFFFFFFFF AND PUSH20 0xFFFFFFFFFFFFFFFFFFFFFFFFFFFFFFFFFFFFFFFF AND PUSH20 0xFFFFFFFFFFFFFFFFFFFFFFFFFFFFFFFFFFFFFFFF AND DUP2 MSTORE PUSH1 0x20 ADD PUSH1 0x1 DUP3 ADD SLOAD DUP2 MSTORE PUSH1 0x20 ADD PUSH1 0x2 DUP3 ADD DUP1 SLOAD PUSH2 0x2C7 SWAP1 PUSH2 0x1A54 JUMP JUMPDEST DUP1 PUSH1 0x1F ADD PUSH1 0x20 DUP1 SWAP2 DIV MUL PUSH1 0x20 ADD PUSH1 0x40 MLOAD SWAP1 DUP2 ADD PUSH1 0x40 MSTORE DUP1 SWAP3 SWAP2 SWAP1 DUP2 DUP2 MSTORE PUSH1 0x20 ADD DUP3 DUP1 SLOAD PUSH2 0x2F3 SWAP1 PUSH2 0x1A54 JUMP JUMPDEST DUP1 ISZERO PUSH2 0x340 JUMPI DUP1 PUSH1 0x1F LT PUSH2 0x315 JUMPI PUSH2 0x100 DUP1 DUP4 SLOAD DIV MUL DUP4 MSTORE SWAP2 PUSH1 0x20 ADD SWAP2 PUSH2 0x340 JUMP JUMPDEST DUP3 ADD SWAP2 SWAP1 PUSH1 0x0 MSTORE PUSH1 0x20 PUSH1 0x0 KECCAK256 SWAP1 JUMPDEST DUP2 SLOAD DUP2 MSTORE SWAP1 PUSH1 0x1 ADD SWAP1 PUSH1 0x20 ADD DUP1 DUP4 GT PUSH2 0x323 JUMPI DUP3 SWAP1 SUB PUSH1 0x1F AND DUP3 ADD SWAP2 JUMPDEST POP POP POP POP POP DUP2 MSTORE POP POP DUP2 MSTORE PUSH1 0x20 ADD SWAP1 PUSH1 0x1 ADD SWAP1 PUSH2 0x234 JUMP JUMPDEST POP POP POP POP SWAP1 POP PUSH1 0x0 PUSH1 0x1 PUSH1 0x0 DUP5 DUP2 MSTORE PUSH1 0x20 ADD SWAP1 DUP2 MSTORE PUSH1 0x20 ADD PUSH1 0x0 KECCAK256 DUP1 SLOAD DUP1 PUSH1 0x20 MUL PUSH1 0x20 ADD PUSH1 0x40 MLOAD SWAP1 DUP2 ADD PUSH1 0x40 MSTORE DUP1 SWAP3 SWAP2 SWAP1 DUP2 DUP2 MSTORE PUSH1 0x20 ADD PUSH1 0x0 SWAP1 JUMPDEST DUP3 DUP3 LT ISZERO PUSH2 0x4B7 JUMPI DUP4 DUP3 SWAP1 PUSH1 0x0 MSTORE PUSH1 0x20 PUSH1 0x0 KECCAK256 SWAP1 PUSH1 0x3 MUL ADD PUSH1 0x40 MLOAD DUP1 PUSH1 0x60 ADD PUSH1 0x40 MSTORE SWAP1 DUP2 PUSH1 0x0 DUP3 ADD PUSH1 0x0 SWAP1 SLOAD SWAP1 PUSH2 0x100 EXP SWAP1 DIV PUSH20 0xFFFFFFFFFFFFFFFFFFFFFFFFFFFFFFFFFFFFFFFF AND PUSH20 0xFFFFFFFFFFFFFFFFFFFFFFFFFFFFFFFFFFFFFFFF AND PUSH20 0xFFFFFFFFFFFFFFFFFFFFFFFFFFFFFFFFFFFFFFFF AND DUP2 MSTORE PUSH1 0x20 ADD PUSH1 0x1 DUP3 ADD SLOAD DUP2 MSTORE PUSH1 0x20 ADD PUSH1 0x2 DUP3 ADD DUP1 SLOAD PUSH2 0x426 SWAP1 PUSH2 0x1A54 JUMP JUMPDEST DUP1 PUSH1 0x1F ADD PUSH1 0x20 DUP1 SWAP2 DIV MUL PUSH1 0x20 ADD PUSH1 0x40 MLOAD SWAP1 DUP2 ADD PUSH1 0x40 MSTORE DUP1 SWAP3 SWAP2 SWAP1 DUP2 DUP2 MSTORE PUSH1 0x20 ADD DUP3 DUP1 SLOAD PUSH2 0x452 SWAP1 PUSH2 0x1A54 JUMP JUMPDEST DUP1 ISZERO PUSH2 0x49F JUMPI DUP1 PUSH1 0x1F LT PUSH2 0x474 JUMPI PUSH2 0x100 DUP1 DUP4 SLOAD DIV MUL DUP4 MSTORE SWAP2 PUSH1 0x20 ADD SWAP2 PUSH2 0x49F JUMP JUMPDEST DUP3 ADD SWAP2 SWAP1 PUSH1 0x0 MSTORE PUSH1 0x20 PUSH1 0x0 KECCAK256 SWAP1 JUMPDEST DUP2 SLOAD DUP2 MSTORE SWAP1 PUSH1 0x1 ADD SWAP1 PUSH1 0x20 ADD DUP1 DUP4 GT PUSH2 0x482 JUMPI DUP3 SWAP1 SUB PUSH1 0x1F AND DUP3 ADD SWAP2 JUMPDEST POP POP POP POP POP DUP2 MSTORE POP POP DUP2 MSTORE PUSH1 0x20 ADD SWAP1 PUSH1 0x1 ADD SWAP1 PUSH2 0x393 JUMP JUMPDEST POP POP POP POP SWAP1 POP PUSH1 0x0 DUP2 MLOAD DUP4 MLOAD PUSH2 0x4CD SWAP2 SWAP1 PUSH2 0x1AB4 JUMP JUMPDEST SWAP1 POP PUSH1 0x0 DUP2 PUSH8 0xFFFFFFFFFFFFFFFF DUP2 GT ISZERO PUSH2 0x4EB JUMPI PUSH2 0x4EA PUSH2 0x189E JUMP JUMPDEST JUMPDEST PUSH1 0x40 MLOAD SWAP1 DUP1 DUP3 MSTORE DUP1 PUSH1 0x20 MUL PUSH1 0x20 ADD DUP3 ADD PUSH1 0x40 MSTORE DUP1 ISZERO PUSH2 0x524 JUMPI DUP2 PUSH1 0x20 ADD JUMPDEST PUSH2 0x511 PUSH2 0x121E JUMP JUMPDEST DUP2 MSTORE PUSH1 0x20 ADD SWAP1 PUSH1 0x1 SWAP1 SUB SWAP1 DUP2 PUSH2 0x509 JUMPI SWAP1 POP JUMPDEST POP SWAP1 POP PUSH1 0x0 DUP1 JUMPDEST DUP6 MLOAD DUP2 LT ISZERO PUSH2 0x58E JUMPI DUP6 DUP2 DUP2 MLOAD DUP2 LT PUSH2 0x547 JUMPI PUSH2 0x546 PUSH2 0x1AE8 JUMP JUMPDEST JUMPDEST PUSH1 0x20 MUL PUSH1 0x20 ADD ADD MLOAD DUP4 DUP3 DUP2 MLOAD DUP2 LT PUSH2 0x562 JUMPI PUSH2 0x561 PUSH2 0x1AE8 JUMP JUMPDEST JUMPDEST PUSH1 0x20 MUL PUSH1 0x20 ADD ADD DUP2 SWAP1 MSTORE POP DUP2 DUP1 PUSH2 0x578 SWAP1 PUSH2 0x1B17 JUMP JUMPDEST SWAP3 POP POP DUP1 DUP1 PUSH2 0x586 SWAP1 PUSH2 0x1B17 JUMP JUMPDEST SWAP2 POP POP PUSH2 0x52B JUMP JUMPDEST POP PUSH1 0x0 JUMPDEST DUP5 MLOAD DUP2 LT ISZERO PUSH2 0x601 JUMPI DUP5 DUP2 DUP2 MLOAD DUP2 LT PUSH2 0x5AE JUMPI PUSH2 0x5AD PUSH2 0x1AE8 JUMP JUMPDEST JUMPDEST PUSH1 0x20 MUL PUSH1 0x20 ADD ADD MLOAD DUP4 DUP3 DUP9 MLOAD PUSH2 0x5C4 SWAP2 SWAP1 PUSH2 0x1AB4 JUMP JUMPDEST DUP2 MLOAD DUP2 LT PUSH2 0x5D5 JUMPI PUSH2 0x5D4 PUSH2 0x1AE8 JUMP JUMPDEST JUMPDEST PUSH1 0x20 MUL PUSH1 0x20 ADD ADD DUP2 SWAP1 MSTORE POP DUP2 DUP1 PUSH2 0x5EB SWAP1 PUSH2 0x1B17 JUMP JUMPDEST SWAP3 POP POP DUP1 DUP1 PUSH2 0x5F9 SWAP1 PUSH2 0x1B17 JUMP JUMPDEST SWAP2 POP POP PUSH2 0x592 JUMP JUMPDEST POP PUSH2 0x60B DUP3 PUSH2 0x10F8 JUMP JUMPDEST DUP2 SWAP8 POP POP POP POP POP POP POP POP SWAP2 SWAP1 POP JUMP JUMPDEST PUSH1 0x60 PUSH1 0x0 DUP1 CALLER PUSH20 0xFFFFFFFFFFFFFFFFFFFFFFFFFFFFFFFFFFFFFFFF AND PUSH20 0xFFFFFFFFFFFFFFFFFFFFFFFFFFFFFFFFFFFFFFFF AND DUP2 MSTORE PUSH1 0x20 ADD SWAP1 DUP2 MSTORE PUSH1 0x20 ADD PUSH1 0x0 KECCAK256 DUP1 SLOAD DUP1 PUSH1 0x20 MUL PUSH1 0x20 ADD PUSH1 0x40 MLOAD SWAP1 DUP2 ADD PUSH1 0x40 MSTORE DUP1 SWAP3 SWAP2 SWAP1 DUP2 DUP2 MSTORE PUSH1 0x20 ADD PUSH1 0x0 SWAP1 JUMPDEST DUP3 DUP3 LT ISZERO PUSH2 0x82A JUMPI DUP4 DUP3 SWAP1 PUSH1 0x0 MSTORE PUSH1 0x20 PUSH1 0x0 KECCAK256 SWAP1 PUSH1 0x5 MUL ADD PUSH1 0x40 MLOAD DUP1 PUSH1 0xC0 ADD PUSH1 0x40 MSTORE SWAP1 DUP2 PUSH1 0x0 DUP3 ADD PUSH1 0x0 SWAP1 SLOAD SWAP1 PUSH2 0x100 EXP SWAP1 DIV PUSH20 0xFFFFFFFFFFFFFFFFFFFFFFFFFFFFFFFFFFFFFFFF AND PUSH20 0xFFFFFFFFFFFFFFFFFFFFFFFFFFFFFFFFFFFFFFFF AND PUSH20 0xFFFFFFFFFFFFFFFFFFFFFFFFFFFFFFFFFFFFFFFF AND DUP2 MSTORE PUSH1 0x20 ADD PUSH1 0x1 DUP3 ADD PUSH1 0x0 SWAP1 SLOAD SWAP1 PUSH2 0x100 EXP SWAP1 DIV PUSH20 0xFFFFFFFFFFFFFFFFFFFFFFFFFFFFFFFFFFFFFFFF AND PUSH20 0xFFFFFFFFFFFFFFFFFFFFFFFFFFFFFFFFFFFFFFFF AND PUSH20 0xFFFFFFFFFFFFFFFFFFFFFFFFFFFFFFFFFFFFFFFF AND DUP2 MSTORE PUSH1 0x20 ADD PUSH1 0x2 DUP3 ADD DUP1 SLOAD PUSH2 0x759 SWAP1 PUSH2 0x1A54 JUMP JUMPDEST DUP1 PUSH1 0x1F ADD PUSH1 0x20 DUP1 SWAP2 DIV MUL PUSH1 0x20 ADD PUSH1 0x40 MLOAD SWAP1 DUP2 ADD PUSH1 0x40 MSTORE DUP1 SWAP3 SWAP2 SWAP1 DUP2 DUP2 MSTORE PUSH1 0x20 ADD DUP3 DUP1 SLOAD PUSH2 0x785 SWAP1 PUSH2 0x1A54 JUMP JUMPDEST DUP1 ISZERO PUSH2 0x7D2 JUMPI DUP1 PUSH1 0x1F LT PUSH2 0x7A7 JUMPI PUSH2 0x100 DUP1 DUP4 SLOAD DIV MUL DUP4 MSTORE SWAP2 PUSH1 0x20 ADD SWAP2 PUSH2 0x7D2 JUMP JUMPDEST DUP3 ADD SWAP2 SWAP1 PUSH1 0x0 MSTORE PUSH1 0x20 PUSH1 0x0 KECCAK256 SWAP1 JUMPDEST DUP2 SLOAD DUP2 MSTORE SWAP1 PUSH1 0x1 ADD SWAP1 PUSH1 0x20 ADD DUP1 DUP4 GT PUSH2 0x7B5 JUMPI DUP3 SWAP1 SUB PUSH1 0x1F AND DUP3 ADD SWAP2 JUMPDEST POP POP POP POP POP DUP2 MSTORE PUSH1 0x20 ADD PUSH1 0x3 DUP3 ADD SLOAD DUP2 MSTORE PUSH1 0x20 ADD PUSH1 0x4 DUP3 ADD PUSH1 0x0 SWAP1 SLOAD SWAP1 PUSH2 0x100 EXP SWAP1 DIV PUSH1 0xFF AND ISZERO ISZERO ISZERO ISZERO DUP2 MSTORE PUSH1 0x20 ADD PUSH1 0x4 DUP3 ADD PUSH1 0x1 SWAP1 SLOAD SWAP1 PUSH2 0x100 EXP SWAP1 DIV PUSH1 0xFF AND ISZERO ISZERO ISZERO ISZERO DUP2 MSTORE POP POP DUP2 MSTORE PUSH1 0x20 ADD SWAP1 PUSH1 0x1 ADD SWAP1 PUSH2 0x67A JUMP JUMPDEST POP POP POP POP SWAP1 POP SWAP1 JUMP JUMPDEST PUSH1 0x1 PUSH1 0x20 MSTORE DUP2 PUSH1 0x0 MSTORE PUSH1 0x40 PUSH1 0x0 KECCAK256 DUP2 DUP2 SLOAD DUP2 LT PUSH2 0x84F JUMPI PUSH1 0x0 DUP1 REVERT JUMPDEST SWAP1 PUSH1 0x0 MSTORE PUSH1 0x20 PUSH1 0x0 KECCAK256 SWAP1 PUSH1 0x3 MUL ADD PUSH1 0x0 SWAP2 POP SWAP2 POP POP DUP1 PUSH1 0x0 ADD PUSH1 0x0 SWAP1 SLOAD SWAP1 PUSH2 0x100 EXP SWAP1 DIV PUSH20 0xFFFFFFFFFFFFFFFFFFFFFFFFFFFFFFFFFFFFFFFF AND SWAP1 DUP1 PUSH1 0x1 ADD SLOAD SWAP1 DUP1 PUSH1 0x2 ADD DUP1 SLOAD PUSH2 0x89F SWAP1 PUSH2 0x1A54 JUMP JUMPDEST DUP1 PUSH1 0x1F ADD PUSH1 0x20 DUP1 SWAP2 DIV MUL PUSH1 0x20 ADD PUSH1 0x40 MLOAD SWAP1 DUP2 ADD PUSH1 0x40 MSTORE DUP1 SWAP3 SWAP2 SWAP1 DUP2 DUP2 MSTORE PUSH1 0x20 ADD DUP3 DUP1 SLOAD PUSH2 0x8CB SWAP1 PUSH2 0x1A54 JUMP JUMPDEST DUP1 ISZERO PUSH2 0x918 JUMPI DUP1 PUSH1 0x1F LT PUSH2 0x8ED JUMPI PUSH2 0x100 DUP1 DUP4 SLOAD DIV MUL DUP4 MSTORE SWAP2 PUSH1 0x20 ADD SWAP2 PUSH2 0x918 JUMP JUMPDEST DUP3 ADD SWAP2 SWAP1 PUSH1 0x0 MSTORE PUSH1 0x20 PUSH1 0x0 KECCAK256 SWAP1 JUMPDEST DUP2 SLOAD DUP2 MSTORE SWAP1 PUSH1 0x1 ADD SWAP1 PUSH1 0x20 ADD DUP1 DUP4 GT PUSH2 0x8FB JUMPI DUP3 SWAP1 SUB PUSH1 0x1F AND DUP3 ADD SWAP2 JUMPDEST POP POP POP POP POP SWAP1 POP DUP4 JUMP JUMPDEST PUSH1 0x0 DUP1 CALLER PUSH20 0xFFFFFFFFFFFFFFFFFFFFFFFFFFFFFFFFFFFFFFFF AND PUSH20 0xFFFFFFFFFFFFFFFFFFFFFFFFFFFFFFFFFFFFFFFF AND DUP2 MSTORE PUSH1 0x20 ADD SWAP1 DUP2 MSTORE PUSH1 0x20 ADD PUSH1 0x0 KECCAK256 DUP1 SLOAD SWAP1 POP DUP2 LT PUSH2 0x9A5 JUMPI PUSH1 0x40 MLOAD PUSH32 0x8C379A000000000000000000000000000000000000000000000000000000000 DUP2 MSTORE PUSH1 0x4 ADD PUSH2 0x99C SWAP1 PUSH2 0x1BAB JUMP JUMPDEST PUSH1 0x40 MLOAD DUP1 SWAP2 SUB SWAP1 REVERT JUMPDEST PUSH1 0x1 PUSH1 0x0 DUP1 CALLER PUSH20 0xFFFFFFFFFFFFFFFFFFFFFFFFFFFFFFFFFFFFFFFF AND PUSH20 0xFFFFFFFFFFFFFFFFFFFFFFFFFFFFFFFFFFFFFFFF AND DUP2 MSTORE PUSH1 0x20 ADD SWAP1 DUP2 MSTORE PUSH1 0x20 ADD PUSH1 0x0 KECCAK256 DUP3 DUP2 SLOAD DUP2 LT PUSH2 0x9F7 JUMPI PUSH2 0x9F6 PUSH2 0x1AE8 JUMP JUMPDEST JUMPDEST SWAP1 PUSH1 0x0 MSTORE PUSH1 0x20 PUSH1 0x0 KECCAK256 SWAP1 PUSH1 0x5 MUL ADD PUSH1 0x4 ADD PUSH1 0x0 PUSH2 0x100 EXP DUP2 SLOAD DUP2 PUSH1 0xFF MUL NOT AND SWAP1 DUP4 ISZERO ISZERO MUL OR SWAP1 SSTORE POP POP JUMP JUMPDEST PUSH1 0x0 PUSH1 0x20 MSTORE DUP2 PUSH1 0x0 MSTORE PUSH1 0x40 PUSH1 0x0 KECCAK256 DUP2 DUP2 SLOAD DUP2 LT PUSH2 0xA3E JUMPI PUSH1 0x0 DUP1 REVERT JUMPDEST SWAP1 PUSH1 0x0 MSTORE PUSH1 0x20 PUSH1 0x0 KECCAK256 SWAP1 PUSH1 0x5 MUL ADD PUSH1 0x0 SWAP2 POP SWAP2 POP POP DUP1 PUSH1 0x0 ADD PUSH1 0x0 SWAP1 SLOAD SWAP1 PUSH2 0x100 EXP SWAP1 DIV PUSH20 0xFFFFFFFFFFFFFFFFFFFFFFFFFFFFFFFFFFFFFFFF AND SWAP1 DUP1 PUSH1 0x1 ADD PUSH1 0x0 SWAP1 SLOAD SWAP1 PUSH2 0x100 EXP SWAP1 DIV PUSH20 0xFFFFFFFFFFFFFFFFFFFFFFFFFFFFFFFFFFFFFFFF AND SWAP1 DUP1 PUSH1 0x2 ADD DUP1 SLOAD PUSH2 0xAAE SWAP1 PUSH2 0x1A54 JUMP JUMPDEST DUP1 PUSH1 0x1F ADD PUSH1 0x20 DUP1 SWAP2 DIV MUL PUSH1 0x20 ADD PUSH1 0x40 MLOAD SWAP1 DUP2 ADD PUSH1 0x40 MSTORE DUP1 SWAP3 SWAP2 SWAP1 DUP2 DUP2 MSTORE PUSH1 0x20 ADD DUP3 DUP1 SLOAD PUSH2 0xADA SWAP1 PUSH2 0x1A54 JUMP JUMPDEST DUP1 ISZERO PUSH2 0xB27 JUMPI DUP1 PUSH1 0x1F LT PUSH2 0xAFC JUMPI PUSH2 0x100 DUP1 DUP4 SLOAD DIV MUL DUP4 MSTORE SWAP2 PUSH1 0x20 ADD SWAP2 PUSH2 0xB27 JUMP JUMPDEST DUP3 ADD SWAP2 SWAP1 PUSH1 0x0 MSTORE PUSH1 0x20 PUSH1 0x0 KECCAK256 SWAP1 JUMPDEST DUP2 SLOAD DUP2 MSTORE SWAP1 PUSH1 0x1 ADD SWAP1 PUSH1 0x20 ADD DUP1 DUP4 GT PUSH2 0xB0A JUMPI DUP3 SWAP1 SUB PUSH1 0x1F AND DUP3 ADD SWAP2 JUMPDEST POP POP POP POP POP SWAP1 DUP1 PUSH1 0x3 ADD SLOAD SWAP1 DUP1 PUSH1 0x4 ADD PUSH1 0x0 SWAP1 SLOAD SWAP1 PUSH2 0x100 EXP SWAP1 DIV PUSH1 0xFF AND SWAP1 DUP1 PUSH1 0x4 ADD PUSH1 0x1 SWAP1 SLOAD SWAP1 PUSH2 0x100 EXP SWAP1 DIV PUSH1 0xFF AND SWAP1 POP DUP7 JUMP JUMPDEST PUSH1 0x0 DUP1 CALLER PUSH20 0xFFFFFFFFFFFFFFFFFFFFFFFFFFFFFFFFFFFFFFFF AND PUSH20 0xFFFFFFFFFFFFFFFFFFFFFFFFFFFFFFFFFFFFFFFF AND DUP2 MSTORE PUSH1 0x20 ADD SWAP1 DUP2 MSTORE PUSH1 0x20 ADD PUSH1 0x0 KECCAK256 DUP1 SLOAD SWAP1 POP DUP2 LT PUSH2 0xBE0 JUMPI PUSH1 0x40 MLOAD PUSH32 0x8C379A000000000000000000000000000000000000000000000000000000000 DUP2 MSTORE PUSH1 0x4 ADD PUSH2 0xBD7 SWAP1 PUSH2 0x1BAB JUMP JUMPDEST PUSH1 0x40 MLOAD DUP1 SWAP2 SUB SWAP1 REVERT JUMPDEST PUSH1 0x1 PUSH1 0x0 DUP1 CALLER PUSH20 0xFFFFFFFFFFFFFFFFFFFFFFFFFFFFFFFFFFFFFFFF AND PUSH20 0xFFFFFFFFFFFFFFFFFFFFFFFFFFFFFFFFFFFFFFFF AND DUP2 MSTORE PUSH1 0x20 ADD SWAP1 DUP2 MSTORE PUSH1 0x20 ADD PUSH1 0x0 KECCAK256 DUP3 DUP2 SLOAD DUP2 LT PUSH2 0xC32 JUMPI PUSH2 0xC31 PUSH2 0x1AE8 JUMP JUMPDEST JUMPDEST SWAP1 PUSH1 0x0 MSTORE PUSH1 0x20 PUSH1 0x0 KECCAK256 SWAP1 PUSH1 0x5 MUL ADD PUSH1 0x4 ADD PUSH1 0x1 PUSH2 0x100 EXP DUP2 SLOAD DUP2 PUSH1 0xFF MUL NOT AND SWAP1 DUP4 ISZERO ISZERO MUL OR SWAP1 SSTORE POP POP JUMP JUMPDEST PUSH1 0x0 PUSH1 0x40 MLOAD DUP1 PUSH1 0xC0 ADD PUSH1 0x40 MSTORE DUP1 CALLER PUSH20 0xFFFFFFFFFFFFFFFFFFFFFFFFFFFFFFFFFFFFFFFF AND DUP2 MSTORE PUSH1 0x20 ADD DUP5 PUSH20 0xFFFFFFFFFFFFFFFFFFFFFFFFFFFFFFFFFFFFFFFF AND DUP2 MSTORE PUSH1 0x20 ADD DUP4 DUP2 MSTORE PUSH1 0x20 ADD TIMESTAMP DUP2 MSTORE PUSH1 0x20 ADD PUSH1 0x0 ISZERO ISZERO DUP2 MSTORE PUSH1 0x20 ADD PUSH1 0x0 ISZERO ISZERO DUP2 MSTORE POP SWAP1 POP PUSH1 0x0 PUSH1 0x40 MLOAD DUP1 PUSH1 0x60 ADD PUSH1 0x40 MSTORE DUP1 CALLER PUSH20 0xFFFFFFFFFFFFFFFFFFFFFFFFFFFFFFFFFFFFFFFF AND DUP2 MSTORE PUSH1 0x20 ADD TIMESTAMP DUP2 MSTORE PUSH1 0x20 ADD DUP5 DUP2 MSTORE POP SWAP1 POP PUSH1 0x0 PUSH2 0xD01 CALLER DUP7 PUSH2 0x10C5 JUMP JUMPDEST SWAP1 POP PUSH1 0x0 DUP1 CALLER PUSH20 0xFFFFFFFFFFFFFFFFFFFFFFFFFFFFFFFFFFFFFFFF AND PUSH20 0xFFFFFFFFFFFFFFFFFFFFFFFFFFFFFFFFFFFFFFFF AND DUP2 MSTORE PUSH1 0x20 ADD SWAP1 DUP2 MSTORE PUSH1 0x20 ADD PUSH1 0x0 KECCAK256 DUP4 SWAP1 DUP1 PUSH1 0x1 DUP2 SLOAD ADD DUP1 DUP3 SSTORE DUP1 SWAP2 POP POP PUSH1 0x1 SWAP1 SUB SWAP1 PUSH1 0x0 MSTORE PUSH1 0x20 PUSH1 0x0 KECCAK256 SWAP1 PUSH1 0x5 MUL ADD PUSH1 0x0 SWAP1 SWAP2 SWAP1 SWAP2 SWAP1 SWAP2 POP PUSH1 0x0 DUP3 ADD MLOAD DUP2 PUSH1 0x0 ADD PUSH1 0x0 PUSH2 0x100 EXP DUP2 SLOAD DUP2 PUSH20 0xFFFFFFFFFFFFFFFFFFFFFFFFFFFFFFFFFFFFFFFF MUL NOT AND SWAP1 DUP4 PUSH20 0xFFFFFFFFFFFFFFFFFFFFFFFFFFFFFFFFFFFFFFFF AND MUL OR SWAP1 SSTORE POP PUSH1 0x20 DUP3 ADD MLOAD DUP2 PUSH1 0x1 ADD PUSH1 0x0 PUSH2 0x100 EXP DUP2 SLOAD DUP2 PUSH20 0xFFFFFFFFFFFFFFFFFFFFFFFFFFFFFFFFFFFFFFFF MUL NOT AND SWAP1 DUP4 PUSH20 0xFFFFFFFFFFFFFFFFFFFFFFFFFFFFFFFFFFFFFFFF AND MUL OR SWAP1 SSTORE POP PUSH1 0x40 DUP3 ADD MLOAD DUP2 PUSH1 0x2 ADD SWAP1 DUP2 PUSH2 0xE0E SWAP2 SWAP1 PUSH2 0x1D77 JUMP JUMPDEST POP PUSH1 0x60 DUP3 ADD MLOAD DUP2 PUSH1 0x3 ADD SSTORE PUSH1 0x80 DUP3 ADD MLOAD DUP2 PUSH1 0x4 ADD PUSH1 0x0 PUSH2 0x100 EXP DUP2 SLOAD DUP2 PUSH1 0xFF MUL NOT AND SWAP1 DUP4 ISZERO ISZERO MUL OR SWAP1 SSTORE POP PUSH1 0xA0 DUP3 ADD MLOAD DUP2 PUSH1 0x4 ADD PUSH1 0x1 PUSH2 0x100 EXP DUP2 SLOAD DUP2 PUSH1 0xFF MUL NOT AND SWAP1 DUP4 ISZERO ISZERO MUL OR SWAP1 SSTORE POP POP POP PUSH1 0x0 DUP1 DUP7 PUSH20 0xFFFFFFFFFFFFFFFFFFFFFFFFFFFFFFFFFFFFFFFF AND PUSH20 0xFFFFFFFFFFFFFFFFFFFFFFFFFFFFFFFFFFFFFFFF AND DUP2 MSTORE PUSH1 0x20 ADD SWAP1 DUP2 MSTORE PUSH1 0x20 ADD PUSH1 0x0 KECCAK256 DUP4 SWAP1 DUP1 PUSH1 0x1 DUP2 SLOAD ADD DUP1 DUP3 SSTORE DUP1 SWAP2 POP POP PUSH1 0x1 SWAP1 SUB SWAP1 PUSH1 0x0 MSTORE PUSH1 0x20 PUSH1 0x0 KECCAK256 SWAP1 PUSH1 0x5 MUL ADD PUSH1 0x0 SWAP1 SWAP2 SWAP1 SWAP2 SWAP1 SWAP2 POP PUSH1 0x0 DUP3 ADD MLOAD DUP2 PUSH1 0x0 ADD PUSH1 0x0 PUSH2 0x100 EXP DUP2 SLOAD DUP2 PUSH20 0xFFFFFFFFFFFFFFFFFFFFFFFFFFFFFFFFFFFFFFFF MUL NOT AND SWAP1 DUP4 PUSH20 0xFFFFFFFFFFFFFFFFFFFFFFFFFFFFFFFFFFFFFFFF AND MUL OR SWAP1 SSTORE POP PUSH1 0x20 DUP3 ADD MLOAD DUP2 PUSH1 0x1 ADD PUSH1 0x0 PUSH2 0x100 EXP DUP2 SLOAD DUP2 PUSH20 0xFFFFFFFFFFFFFFFFFFFFFFFFFFFFFFFFFFFFFFFF MUL NOT AND SWAP1 DUP4 PUSH20 0xFFFFFFFFFFFFFFFFFFFFFFFFFFFFFFFFFFFFFFFF AND MUL OR SWAP1 SSTORE POP PUSH1 0x40 DUP3 ADD MLOAD DUP2 PUSH1 0x2 ADD SWAP1 DUP2 PUSH2 0xF66 SWAP2 SWAP1 PUSH2 0x1D77 JUMP JUMPDEST POP PUSH1 0x60 DUP3 ADD MLOAD DUP2 PUSH1 0x3 ADD SSTORE PUSH1 0x80 DUP3 ADD MLOAD DUP2 PUSH1 0x4 ADD PUSH1 0x0 PUSH2 0x100 EXP DUP2 SLOAD DUP2 PUSH1 0xFF MUL NOT AND SWAP1 DUP4 ISZERO ISZERO MUL OR SWAP1 SSTORE POP PUSH1 0xA0 DUP3 ADD MLOAD DUP2 PUSH1 0x4 ADD PUSH1 0x1 PUSH2 0x100 EXP DUP2 SLOAD DUP2 PUSH1 0xFF MUL NOT AND SWAP1 DUP4 ISZERO ISZERO MUL OR SWAP1 SSTORE POP POP POP PUSH1 0x1 PUSH1 0x0 DUP3 DUP2 MSTORE PUSH1 0x20 ADD SWAP1 DUP2 MSTORE PUSH1 0x20 ADD PUSH1 0x0 KECCAK256 DUP3 SWAP1 DUP1 PUSH1 0x1 DUP2 SLOAD ADD DUP1 DUP3 SSTORE DUP1 SWAP2 POP POP PUSH1 0x1 SWAP1 SUB SWAP1 PUSH1 0x0 MSTORE PUSH1 0x20 PUSH1 0x0 KECCAK256 SWAP1 PUSH1 0x3 MUL ADD PUSH1 0x0 SWAP1 SWAP2 SWAP1 SWAP2 SWAP1 SWAP2 POP PUSH1 0x0 DUP3 ADD MLOAD DUP2 PUSH1 0x0 ADD PUSH1 0x0 PUSH2 0x100 EXP DUP2 SLOAD DUP2 PUSH20 0xFFFFFFFFFFFFFFFFFFFFFFFFFFFFFFFFFFFFFFFF MUL NOT AND SWAP1 DUP4 PUSH20 0xFFFFFFFFFFFFFFFFFFFFFFFFFFFFFFFFFFFFFFFF AND MUL OR SWAP1 SSTORE POP PUSH1 0x20 DUP3 ADD MLOAD DUP2 PUSH1 0x1 ADD SSTORE PUSH1 0x40 DUP3 ADD MLOAD DUP2 PUSH1 0x2 ADD SWAP1 DUP2 PUSH2 0x1056 SWAP2 SWAP1 PUSH2 0x1D77 JUMP JUMPDEST POP POP POP DUP5 PUSH20 0xFFFFFFFFFFFFFFFFFFFFFFFFFFFFFFFFFFFFFFFF AND CALLER PUSH20 0xFFFFFFFFFFFFFFFFFFFFFFFFFFFFFFFFFFFFFFFF AND PUSH32 0xE2CF7446A11CBCD14CD99EA3A1BB77FB7653A64F4064D660140B5100D001E13C DUP7 PUSH1 0x40 MLOAD PUSH2 0x10B6 SWAP2 SWAP1 PUSH2 0x1E49 JUMP JUMPDEST PUSH1 0x40 MLOAD DUP1 SWAP2 SUB SWAP1 LOG3 POP POP POP POP POP JUMP JUMPDEST PUSH1 0x0 DUP3 DUP3 PUSH1 0x40 MLOAD PUSH1 0x20 ADD PUSH2 0x10DA SWAP3 SWAP2 SWAP1 PUSH2 0x1EB3 JUMP JUMPDEST PUSH1 0x40 MLOAD PUSH1 0x20 DUP2 DUP4 SUB SUB DUP2 MSTORE SWAP1 PUSH1 0x40 MSTORE DUP1 MLOAD SWAP1 PUSH1 0x20 ADD KECCAK256 SWAP1 POP SWAP3 SWAP2 POP POP JUMP JUMPDEST PUSH1 0x1 DUP2 MLOAD GT ISZERO PUSH2 0x121B JUMPI PUSH1 0x0 JUMPDEST PUSH1 0x1 DUP3 MLOAD PUSH2 0x1113 SWAP2 SWAP1 PUSH2 0x1EDF JUMP JUMPDEST DUP2 LT ISZERO PUSH2 0x1219 JUMPI PUSH1 0x0 PUSH1 0x1 DUP3 PUSH2 0x1129 SWAP2 SWAP1 PUSH2 0x1AB4 JUMP JUMPDEST SWAP1 POP JUMPDEST DUP3 MLOAD DUP2 LT ISZERO PUSH2 0x1205 JUMPI DUP3 DUP2 DUP2 MLOAD DUP2 LT PUSH2 0x1148 JUMPI PUSH2 0x1147 PUSH2 0x1AE8 JUMP JUMPDEST JUMPDEST PUSH1 0x20 MUL PUSH1 0x20 ADD ADD MLOAD PUSH1 0x20 ADD MLOAD DUP4 DUP4 DUP2 MLOAD DUP2 LT PUSH2 0x1167 JUMPI PUSH2 0x1166 PUSH2 0x1AE8 JUMP JUMPDEST JUMPDEST PUSH1 0x20 MUL PUSH1 0x20 ADD ADD MLOAD PUSH1 0x20 ADD MLOAD GT ISZERO PUSH2 0x11F2 JUMPI PUSH1 0x0 DUP4 DUP4 DUP2 MLOAD DUP2 LT PUSH2 0x118E JUMPI PUSH2 0x118D PUSH2 0x1AE8 JUMP JUMPDEST JUMPDEST PUSH1 0x20 MUL PUSH1 0x20 ADD ADD MLOAD SWAP1 POP DUP4 DUP3 DUP2 MLOAD DUP2 LT PUSH2 0x11AB JUMPI PUSH2 0x11AA PUSH2 0x1AE8 JUMP JUMPDEST JUMPDEST PUSH1 0x20 MUL PUSH1 0x20 ADD ADD MLOAD DUP5 DUP5 DUP2 MLOAD DUP2 LT PUSH2 0x11C6 JUMPI PUSH2 0x11C5 PUSH2 0x1AE8 JUMP JUMPDEST JUMPDEST PUSH1 0x20 MUL PUSH1 0x20 ADD ADD DUP2 SWAP1 MSTORE POP DUP1 DUP5 DUP4 DUP2 MLOAD DUP2 LT PUSH2 0x11E5 JUMPI PUSH2 0x11E4 PUSH2 0x1AE8 JUMP JUMPDEST JUMPDEST PUSH1 0x20 MUL PUSH1 0x20 ADD ADD DUP2 SWAP1 MSTORE POP POP JUMPDEST DUP1 DUP1 PUSH2 0x11FD SWAP1 PUSH2 0x1B17 JUMP JUMPDEST SWAP2 POP POP PUSH2 0x112C JUMP JUMPDEST POP DUP1 DUP1 PUSH2 0x1211 SWAP1 PUSH2 0x1B17 JUMP JUMPDEST SWAP2 POP POP PUSH2 0x1105 JUMP JUMPDEST POP JUMPDEST POP JUMP JUMPDEST PUSH1 0x40 MLOAD DUP1 PUSH1 0x60 ADD PUSH1 0x40 MSTORE DUP1 PUSH1 0x0 PUSH20 0xFFFFFFFFFFFFFFFFFFFFFFFFFFFFFFFFFFFFFFFF AND DUP2 MSTORE PUSH1 0x20 ADD PUSH1 0x0 DUP2 MSTORE PUSH1 0x20 ADD PUSH1 0x60 DUP2 MSTORE POP SWAP1 JUMP JUMPDEST PUSH1 0x0 PUSH1 0x40 MLOAD SWAP1 POP SWAP1 JUMP JUMPDEST PUSH1 0x0 DUP1 REVERT JUMPDEST PUSH1 0x0 DUP1 REVERT JUMPDEST PUSH1 0x0 PUSH20 0xFFFFFFFFFFFFFFFFFFFFFFFFFFFFFFFFFFFFFFFF DUP3 AND SWAP1 POP SWAP2 SWAP1 POP JUMP JUMPDEST PUSH1 0x0 PUSH2 0x1294 DUP3 PUSH2 0x1269 JUMP JUMPDEST SWAP1 POP SWAP2 SWAP1 POP JUMP JUMPDEST PUSH2 0x12A4 DUP2 PUSH2 0x1289 JUMP JUMPDEST DUP2 EQ PUSH2 0x12AF JUMPI PUSH1 0x0 DUP1 REVERT JUMPDEST POP JUMP JUMPDEST PUSH1 0x0 DUP2 CALLDATALOAD SWAP1 POP PUSH2 0x12C1 DUP2 PUSH2 0x129B JUMP JUMPDEST SWAP3 SWAP2 POP POP JUMP JUMPDEST PUSH1 0x0 PUSH1 0x20 DUP3 DUP5 SUB SLT ISZERO PUSH2 0x12DD JUMPI PUSH2 0x12DC PUSH2 0x125F JUMP JUMPDEST JUMPDEST PUSH1 0x0 PUSH2 0x12EB DUP5 DUP3 DUP6 ADD PUSH2 0x12B2 JUMP JUMPDEST SWAP2 POP POP SWAP3 SWAP2 POP POP JUMP JUMPDEST PUSH1 0x0 DUP2 MLOAD SWAP1 POP SWAP2 SWAP1 POP JUMP JUMPDEST PUSH1 0x0 DUP3 DUP3 MSTORE PUSH1 0x20 DUP3 ADD SWAP1 POP SWAP3 SWAP2 POP POP JUMP JUMPDEST PUSH1 0x0 DUP2 SWAP1 POP PUSH1 0x20 DUP3 ADD SWAP1 POP SWAP2 SWAP1 POP JUMP JUMPDEST PUSH2 0x1329 DUP2 PUSH2 0x1289 JUMP JUMPDEST DUP3 MSTORE POP POP JUMP JUMPDEST PUSH1 0x0 DUP2 SWAP1 POP SWAP2 SWAP1 POP JUMP JUMPDEST PUSH2 0x1342 DUP2 PUSH2 0x132F JUMP JUMPDEST DUP3 MSTORE POP POP JUMP JUMPDEST PUSH1 0x0 DUP2 MLOAD SWAP1 POP SWAP2 SWAP1 POP JUMP JUMPDEST PUSH1 0x0 DUP3 DUP3 MSTORE PUSH1 0x20 DUP3 ADD SWAP1 POP SWAP3 SWAP2 POP POP JUMP JUMPDEST PUSH1 0x0 JUMPDEST DUP4 DUP2 LT ISZERO PUSH2 0x1382 JUMPI DUP1 DUP3 ADD MLOAD DUP2 DUP5 ADD MSTORE PUSH1 0x20 DUP2 ADD SWAP1 POP PUSH2 0x1367 JUMP JUMPDEST PUSH1 0x0 DUP5 DUP5 ADD MSTORE POP POP POP POP JUMP JUMPDEST PUSH1 0x0 PUSH1 0x1F NOT PUSH1 0x1F DUP4 ADD AND SWAP1 POP SWAP2 SWAP1 POP JUMP JUMPDEST PUSH1 0x0 PUSH2 0x13AA DUP3 PUSH2 0x1348 JUMP JUMPDEST PUSH2 0x13B4 DUP2 DUP6 PUSH2 0x1353 JUMP JUMPDEST SWAP4 POP PUSH2 0x13C4 DUP2 DUP6 PUSH1 0x20 DUP7 ADD PUSH2 0x1364 JUMP JUMPDEST PUSH2 0x13CD DUP2 PUSH2 0x138E JUMP JUMPDEST DUP5 ADD SWAP2 POP POP SWAP3 SWAP2 POP POP JUMP JUMPDEST PUSH1 0x0 PUSH1 0x60 DUP4 ADD PUSH1 0x0 DUP4 ADD MLOAD PUSH2 0x13F0 PUSH1 0x0 DUP7 ADD DUP3 PUSH2 0x1320 JUMP JUMPDEST POP PUSH1 0x20 DUP4 ADD MLOAD PUSH2 0x1403 PUSH1 0x20 DUP7 ADD DUP3 PUSH2 0x1339 JUMP JUMPDEST POP PUSH1 0x40 DUP4 ADD MLOAD DUP5 DUP3 SUB PUSH1 0x40 DUP7 ADD MSTORE PUSH2 0x141B DUP3 DUP3 PUSH2 0x139F JUMP JUMPDEST SWAP2 POP POP DUP1 SWAP2 POP POP SWAP3 SWAP2 POP POP JUMP JUMPDEST PUSH1 0x0 PUSH2 0x1434 DUP4 DUP4 PUSH2 0x13D8 JUMP JUMPDEST SWAP1 POP SWAP3 SWAP2 POP POP JUMP JUMPDEST PUSH1 0x0 PUSH1 0x20 DUP3 ADD SWAP1 POP SWAP2 SWAP1 POP JUMP JUMPDEST PUSH1 0x0 PUSH2 0x1454 DUP3 PUSH2 0x12F4 JUMP JUMPDEST PUSH2 0x145E DUP2 DUP6 PUSH2 0x12FF JUMP JUMPDEST SWAP4 POP DUP4 PUSH1 0x20 DUP3 MUL DUP6 ADD PUSH2 0x1470 DUP6 PUSH2 0x1310 JUMP JUMPDEST DUP1 PUSH1 0x0 JUMPDEST DUP6 DUP2 LT ISZERO PUSH2 0x14AC JUMPI DUP5 DUP5 SUB DUP10 MSTORE DUP2 MLOAD PUSH2 0x148D DUP6 DUP3 PUSH2 0x1428 JUMP JUMPDEST SWAP5 POP PUSH2 0x1498 DUP4 PUSH2 0x143C JUMP JUMPDEST SWAP3 POP PUSH1 0x20 DUP11 ADD SWAP10 POP POP PUSH1 0x1 DUP2 ADD SWAP1 POP PUSH2 0x1474 JUMP JUMPDEST POP DUP3 SWAP8 POP DUP8 SWAP6 POP POP POP POP POP POP SWAP3 SWAP2 POP POP JUMP JUMPDEST PUSH1 0x0 PUSH1 0x20 DUP3 ADD SWAP1 POP DUP2 DUP2 SUB PUSH1 0x0 DUP4 ADD MSTORE PUSH2 0x14D8 DUP2 DUP5 PUSH2 0x1449 JUMP JUMPDEST SWAP1 POP SWAP3 SWAP2 POP POP JUMP JUMPDEST PUSH1 0x0 DUP2 MLOAD SWAP1 POP SWAP2 SWAP1 POP JUMP JUMPDEST PUSH1 0x0 DUP3 DUP3 MSTORE PUSH1 0x20 DUP3 ADD SWAP1 POP SWAP3 SWAP2 POP POP JUMP JUMPDEST PUSH1 0x0 DUP2 SWAP1 POP PUSH1 0x20 DUP3 ADD SWAP1 POP SWAP2 SWAP1 POP JUMP JUMPDEST PUSH1 0x0 DUP2 ISZERO ISZERO SWAP1 POP SWAP2 SWAP1 POP JUMP JUMPDEST PUSH2 0x1521 DUP2 PUSH2 0x150C JUMP JUMPDEST DUP3 MSTORE POP POP JUMP JUMPDEST PUSH1 0x0 PUSH1 0xC0 DUP4 ADD PUSH1 0x0 DUP4 ADD MLOAD PUSH2 0x153F PUSH1 0x0 DUP7 ADD DUP3 PUSH2 0x1320 JUMP JUMPDEST POP PUSH1 0x20 DUP4 ADD MLOAD PUSH2 0x1552 PUSH1 0x20 DUP7 ADD DUP3 PUSH2 0x1320 JUMP JUMPDEST POP PUSH1 0x40 DUP4 ADD MLOAD DUP5 DUP3 SUB PUSH1 0x40 DUP7 ADD MSTORE PUSH2 0x156A DUP3 DUP3 PUSH2 0x139F JUMP JUMPDEST SWAP2 POP POP PUSH1 0x60 DUP4 ADD MLOAD PUSH2 0x157F PUSH1 0x60 DUP7 ADD DUP3 PUSH2 0x1339 JUMP JUMPDEST POP PUSH1 0x80 DUP4 ADD MLOAD PUSH2 0x1592 PUSH1 0x80 DUP7 ADD DUP3 PUSH2 0x1518 JUMP JUMPDEST POP PUSH1 0xA0 DUP4 ADD MLOAD PUSH2 0x15A5 PUSH1 0xA0 DUP7 ADD DUP3 PUSH2 0x1518 JUMP JUMPDEST POP DUP1 SWAP2 POP POP SWAP3 SWAP2 POP POP JUMP JUMPDEST PUSH1 0x0 PUSH2 0x15BC DUP4 DUP4 PUSH2 0x1527 JUMP JUMPDEST SWAP1 POP SWAP3 SWAP2 POP POP JUMP JUMPDEST PUSH1 0x0 PUSH1 0x20 DUP3 ADD SWAP1 POP SWAP2 SWAP1 POP JUMP JUMPDEST PUSH1 0x0 PUSH2 0x15DC DUP3 PUSH2 0x14E0 JUMP JUMPDEST PUSH2 0x15E6 DUP2 DUP6 PUSH2 0x14EB JUMP JUMPDEST SWAP4 POP DUP4 PUSH1 0x20 DUP3 MUL DUP6 ADD PUSH2 0x15F8 DUP6 PUSH2 0x14FC JUMP JUMPDEST DUP1 PUSH1 0x0 JUMPDEST DUP6 DUP2 LT ISZERO PUSH2 0x1634 JUMPI DUP5 DUP5 SUB DUP10 MSTORE DUP2 MLOAD PUSH2 0x1615 DUP6 DUP3 PUSH2 0x15B0 JUMP JUMPDEST SWAP5 POP PUSH2 0x1620 DUP4 PUSH2 0x15C4 JUMP JUMPDEST SWAP3 POP PUSH1 0x20 DUP11 ADD SWAP10 POP POP PUSH1 0x1 DUP2 ADD SWAP1 POP PUSH2 0x15FC JUMP JUMPDEST POP DUP3 SWAP8 POP DUP8 SWAP6 POP POP POP POP POP POP SWAP3 SWAP2 POP POP JUMP JUMPDEST PUSH1 0x0 PUSH1 0x20 DUP3 ADD SWAP1 POP DUP2 DUP2 SUB PUSH1 0x0 DUP4 ADD MSTORE PUSH2 0x1660 DUP2 DUP5 PUSH2 0x15D1 JUMP JUMPDEST SWAP1 POP SWAP3 SWAP2 POP POP JUMP JUMPDEST PUSH1 0x0 DUP2 SWAP1 POP SWAP2 SWAP1 POP JUMP JUMPDEST PUSH2 0x167B DUP2 PUSH2 0x1668 JUMP JUMPDEST DUP2 EQ PUSH2 0x1686 JUMPI PUSH1 0x0 DUP1 REVERT JUMPDEST POP JUMP JUMPDEST PUSH1 0x0 DUP2 CALLDATALOAD SWAP1 POP PUSH2 0x1698 DUP2 PUSH2 0x1672 JUMP JUMPDEST SWAP3 SWAP2 POP POP JUMP JUMPDEST PUSH2 0x16A7 DUP2 PUSH2 0x132F JUMP JUMPDEST DUP2 EQ PUSH2 0x16B2 JUMPI PUSH1 0x0 DUP1 REVERT JUMPDEST POP JUMP JUMPDEST PUSH1 0x0 DUP2 CALLDATALOAD SWAP1 POP PUSH2 0x16C4 DUP2 PUSH2 0x169E JUMP JUMPDEST SWAP3 SWAP2 POP POP JUMP JUMPDEST PUSH1 0x0 DUP1 PUSH1 0x40 DUP4 DUP6 SUB SLT ISZERO PUSH2 0x16E1 JUMPI PUSH2 0x16E0 PUSH2 0x125F JUMP JUMPDEST JUMPDEST PUSH1 0x0 PUSH2 0x16EF DUP6 DUP3 DUP7 ADD PUSH2 0x1689 JUMP JUMPDEST SWAP3 POP POP PUSH1 0x20 PUSH2 0x1700 DUP6 DUP3 DUP7 ADD PUSH2 0x16B5 JUMP JUMPDEST SWAP2 POP POP SWAP3 POP SWAP3 SWAP1 POP JUMP JUMPDEST PUSH2 0x1713 DUP2 PUSH2 0x1289 JUMP JUMPDEST DUP3 MSTORE POP POP JUMP JUMPDEST PUSH2 0x1722 DUP2 PUSH2 0x132F JUMP JUMPDEST DUP3 MSTORE POP POP JUMP JUMPDEST PUSH1 0x0 DUP3 DUP3 MSTORE PUSH1 0x20 DUP3 ADD SWAP1 POP SWAP3 SWAP2 POP POP JUMP JUMPDEST PUSH1 0x0 PUSH2 0x1744 DUP3 PUSH2 0x1348 JUMP JUMPDEST PUSH2 0x174E DUP2 DUP6 PUSH2 0x1728 JUMP JUMPDEST SWAP4 POP PUSH2 0x175E DUP2 DUP6 PUSH1 0x20 DUP7 ADD PUSH2 0x1364 JUMP JUMPDEST PUSH2 0x1767 DUP2 PUSH2 0x138E JUMP JUMPDEST DUP5 ADD SWAP2 POP POP SWAP3 SWAP2 POP POP JUMP JUMPDEST PUSH1 0x0 PUSH1 0x60 DUP3 ADD SWAP1 POP PUSH2 0x1787 PUSH1 0x0 DUP4 ADD DUP7 PUSH2 0x170A JUMP JUMPDEST PUSH2 0x1794 PUSH1 0x20 DUP4 ADD DUP6 PUSH2 0x1719 JUMP JUMPDEST DUP2 DUP2 SUB PUSH1 0x40 DUP4 ADD MSTORE PUSH2 0x17A6 DUP2 DUP5 PUSH2 0x1739 JUMP JUMPDEST SWAP1 POP SWAP5 SWAP4 POP POP POP POP JUMP JUMPDEST PUSH1 0x0 PUSH1 0x20 DUP3 DUP5 SUB SLT ISZERO PUSH2 0x17C6 JUMPI PUSH2 0x17C5 PUSH2 0x125F JUMP JUMPDEST JUMPDEST PUSH1 0x0 PUSH2 0x17D4 DUP5 DUP3 DUP6 ADD PUSH2 0x16B5 JUMP JUMPDEST SWAP2 POP POP SWAP3 SWAP2 POP POP JUMP JUMPDEST PUSH1 0x0 DUP1 PUSH1 0x40 DUP4 DUP6 SUB SLT ISZERO PUSH2 0x17F4 JUMPI PUSH2 0x17F3 PUSH2 0x125F JUMP JUMPDEST JUMPDEST PUSH1 0x0 PUSH2 0x1802 DUP6 DUP3 DUP7 ADD PUSH2 0x12B2 JUMP JUMPDEST SWAP3 POP POP PUSH1 0x20 PUSH2 0x1813 DUP6 DUP3 DUP7 ADD PUSH2 0x16B5 JUMP JUMPDEST SWAP2 POP POP SWAP3 POP SWAP3 SWAP1 POP JUMP JUMPDEST PUSH2 0x1826 DUP2 PUSH2 0x150C JUMP JUMPDEST DUP3 MSTORE POP POP JUMP JUMPDEST PUSH1 0x0 PUSH1 0xC0 DUP3 ADD SWAP1 POP PUSH2 0x1841 PUSH1 0x0 DUP4 ADD DUP10 PUSH2 0x170A JUMP JUMPDEST PUSH2 0x184E PUSH1 0x20 DUP4 ADD DUP9 PUSH2 0x170A JUMP JUMPDEST DUP2 DUP2 SUB PUSH1 0x40 DUP4 ADD MSTORE PUSH2 0x1860 DUP2 DUP8 PUSH2 0x1739 JUMP JUMPDEST SWAP1 POP PUSH2 0x186F PUSH1 0x60 DUP4 ADD DUP7 PUSH2 0x1719 JUMP JUMPDEST PUSH2 0x187C PUSH1 0x80 DUP4 ADD DUP6 PUSH2 0x181D JUMP JUMPDEST PUSH2 0x1889 PUSH1 0xA0 DUP4 ADD DUP5 PUSH2 0x181D JUMP JUMPDEST SWAP8 SWAP7 POP POP POP POP POP POP POP JUMP JUMPDEST PUSH1 0x0 DUP1 REVERT JUMPDEST PUSH1 0x0 DUP1 REVERT JUMPDEST PUSH32 0x4E487B7100000000000000000000000000000000000000000000000000000000 PUSH1 0x0 MSTORE PUSH1 0x41 PUSH1 0x4 MSTORE PUSH1 0x24 PUSH1 0x0 REVERT JUMPDEST PUSH2 0x18D6 DUP3 PUSH2 0x138E JUMP JUMPDEST DUP2 ADD DUP2 DUP2 LT PUSH8 0xFFFFFFFFFFFFFFFF DUP3 GT OR ISZERO PUSH2 0x18F5 JUMPI PUSH2 0x18F4 PUSH2 0x189E JUMP JUMPDEST JUMPDEST DUP1 PUSH1 0x40 MSTORE POP POP POP JUMP JUMPDEST PUSH1 0x0 PUSH2 0x1908 PUSH2 0x1255 JUMP JUMPDEST SWAP1 POP PUSH2 0x1914 DUP3 DUP3 PUSH2 0x18CD JUMP JUMPDEST SWAP2 SWAP1 POP JUMP JUMPDEST PUSH1 0x0 PUSH8 0xFFFFFFFFFFFFFFFF DUP3 GT ISZERO PUSH2 0x1934 JUMPI PUSH2 0x1933 PUSH2 0x189E JUMP JUMPDEST JUMPDEST PUSH2 0x193D DUP3 PUSH2 0x138E JUMP JUMPDEST SWAP1 POP PUSH1 0x20 DUP2 ADD SWAP1 POP SWAP2 SWAP1 POP JUMP JUMPDEST DUP3 DUP2 DUP4 CALLDATACOPY PUSH1 0x0 DUP4 DUP4 ADD MSTORE POP POP POP JUMP JUMPDEST PUSH1 0x0 PUSH2 0x196C PUSH2 0x1967 DUP5 PUSH2 0x1919 JUMP JUMPDEST PUSH2 0x18FE JUMP JUMPDEST SWAP1 POP DUP3 DUP2 MSTORE PUSH1 0x20 DUP2 ADD DUP5 DUP5 DUP5 ADD GT ISZERO PUSH2 0x1988 JUMPI PUSH2 0x1987 PUSH2 0x1899 JUMP JUMPDEST JUMPDEST PUSH2 0x1993 DUP5 DUP3 DUP6 PUSH2 0x194A JUMP JUMPDEST POP SWAP4 SWAP3 POP POP POP JUMP JUMPDEST PUSH1 0x0 DUP3 PUSH1 0x1F DUP4 ADD SLT PUSH2 0x19B0 JUMPI PUSH2 0x19AF PUSH2 0x1894 JUMP JUMPDEST JUMPDEST DUP2 CALLDATALOAD PUSH2 0x19C0 DUP5 DUP3 PUSH1 0x20 DUP7 ADD PUSH2 0x1959 JUMP JUMPDEST SWAP2 POP POP SWAP3 SWAP2 POP POP JUMP JUMPDEST PUSH1 0x0 DUP1 PUSH1 0x40 DUP4 DUP6 SUB SLT ISZERO PUSH2 0x19E0 JUMPI PUSH2 0x19DF PUSH2 0x125F JUMP JUMPDEST JUMPDEST PUSH1 0x0 PUSH2 0x19EE DUP6 DUP3 DUP7 ADD PUSH2 0x12B2 JUMP JUMPDEST SWAP3 POP POP PUSH1 0x20 DUP4 ADD CALLDATALOAD PUSH8 0xFFFFFFFFFFFFFFFF DUP2 GT ISZERO PUSH2 0x1A0F JUMPI PUSH2 0x1A0E PUSH2 0x1264 JUMP JUMPDEST JUMPDEST PUSH2 0x1A1B DUP6 DUP3 DUP7 ADD PUSH2 0x199B JUMP JUMPDEST SWAP2 POP POP SWAP3 POP SWAP3 SWAP1 POP JUMP JUMPDEST PUSH32 0x4E487B7100000000000000000000000000000000000000000000000000000000 PUSH1 0x0 MSTORE PUSH1 0x22 PUSH1 0x4 MSTORE PUSH1 0x24 PUSH1 0x0 REVERT JUMPDEST PUSH1 0x0 PUSH1 0x2 DUP3 DIV SWAP1 POP PUSH1 0x1 DUP3 AND DUP1 PUSH2 0x1A6C JUMPI PUSH1 0x7F DUP3 AND SWAP2 POP JUMPDEST PUSH1 0x20 DUP3 LT DUP2 SUB PUSH2 0x1A7F JUMPI PUSH2 0x1A7E PUSH2 0x1A25 JUMP JUMPDEST JUMPDEST POP SWAP2 SWAP1 POP JUMP JUMPDEST PUSH32 0x4E487B7100000000000000000000000000000000000000000000000000000000 PUSH1 0x0 MSTORE PUSH1 0x11 PUSH1 0x4 MSTORE PUSH1 0x24 PUSH1 0x0 REVERT JUMPDEST PUSH1 0x0 PUSH2 0x1ABF DUP3 PUSH2 0x132F JUMP JUMPDEST SWAP2 POP PUSH2 0x1ACA DUP4 PUSH2 0x132F JUMP JUMPDEST SWAP3 POP DUP3 DUP3 ADD SWAP1 POP DUP1 DUP3 GT ISZERO PUSH2 0x1AE2 JUMPI PUSH2 0x1AE1 PUSH2 0x1A85 JUMP JUMPDEST JUMPDEST SWAP3 SWAP2 POP POP JUMP JUMPDEST PUSH32 0x4E487B7100000000000000000000000000000000000000000000000000000000 PUSH1 0x0 MSTORE PUSH1 0x32 PUSH1 0x4 MSTORE PUSH1 0x24 PUSH1 0x0 REVERT JUMPDEST PUSH1 0x0 PUSH2 0x1B22 DUP3 PUSH2 0x132F JUMP JUMPDEST SWAP2 POP PUSH32 0xFFFFFFFFFFFFFFFFFFFFFFFFFFFFFFFFFFFFFFFFFFFFFFFFFFFFFFFFFFFFFFFF DUP3 SUB PUSH2 0x1B54 JUMPI PUSH2 0x1B53 PUSH2 0x1A85 JUMP JUMPDEST JUMPDEST PUSH1 0x1 DUP3 ADD SWAP1 POP SWAP2 SWAP1 POP JUMP JUMPDEST PUSH32 0x496E76616C6964206D65737361676520696E6465780000000000000000000000 PUSH1 0x0 DUP3 ADD MSTORE POP JUMP JUMPDEST PUSH1 0x0 PUSH2 0x1B95 PUSH1 0x15 DUP4 PUSH2 0x1728 JUMP JUMPDEST SWAP2 POP PUSH2 0x1BA0 DUP3 PUSH2 0x1B5F JUMP JUMPDEST PUSH1 0x20 DUP3 ADD SWAP1 POP SWAP2 SWAP1 POP JUMP JUMPDEST PUSH1 0x0 PUSH1 0x20 DUP3 ADD SWAP1 POP DUP2 DUP2 SUB PUSH1 0x0 DUP4 ADD MSTORE PUSH2 0x1BC4 DUP2 PUSH2 0x1B88 JUMP JUMPDEST SWAP1 POP SWAP2 SWAP1 POP JUMP JUMPDEST PUSH1 0x0 DUP2 SWAP1 POP DUP2 PUSH1 0x0 MSTORE PUSH1 0x20 PUSH1 0x0 KECCAK256 SWAP1 POP SWAP2 SWAP1 POP JUMP JUMPDEST PUSH1 0x0 PUSH1 0x20 PUSH1 0x1F DUP4 ADD DIV SWAP1 POP SWAP2 SWAP1 POP JUMP JUMPDEST PUSH1 0x0 DUP3 DUP3 SHL SWAP1 POP SWAP3 SWAP2 POP POP JUMP JUMPDEST PUSH1 0x0 PUSH1 0x8 DUP4 MUL PUSH2 0x1C2D PUSH32 0xFFFFFFFFFFFFFFFFFFFFFFFFFFFFFFFFFFFFFFFFFFFFFFFFFFFFFFFFFFFFFFFF DUP3 PUSH2 0x1BF0 JUMP JUMPDEST PUSH2 0x1C37 DUP7 DUP4 PUSH2 0x1BF0 JUMP JUMPDEST SWAP6 POP DUP1 NOT DUP5 AND SWAP4 POP DUP1 DUP7 AND DUP5 OR SWAP3 POP POP POP SWAP4 SWAP3 POP POP POP JUMP JUMPDEST PUSH1 0x0 DUP2 SWAP1 POP SWAP2 SWAP1 POP JUMP JUMPDEST PUSH1 0x0 PUSH2 0x1C74 PUSH2 0x1C6F PUSH2 0x1C6A DUP5 PUSH2 0x132F JUMP JUMPDEST PUSH2 0x1C4F JUMP JUMPDEST PUSH2 0x132F JUMP JUMPDEST SWAP1 POP SWAP2 SWAP1 POP JUMP JUMPDEST PUSH1 0x0 DUP2 SWAP1 POP SWAP2 SWAP1 POP JUMP JUMPDEST PUSH2 0x1C8E DUP4 PUSH2 0x1C59 JUMP JUMPDEST PUSH2 0x1CA2 PUSH2 0x1C9A DUP3 PUSH2 0x1C7B JUMP JUMPDEST DUP5 DUP5 SLOAD PUSH2 0x1BFD JUMP JUMPDEST DUP3 SSTORE POP POP POP POP JUMP JUMPDEST PUSH1 0x0 SWAP1 JUMP JUMPDEST PUSH2 0x1CB7 PUSH2 0x1CAA JUMP JUMPDEST PUSH2 0x1CC2 DUP2 DUP5 DUP5 PUSH2 0x1C85 JUMP JUMPDEST POP POP POP JUMP JUMPDEST JUMPDEST DUP2 DUP2 LT ISZERO PUSH2 0x1CE6 JUMPI PUSH2 0x1CDB PUSH1 0x0 DUP3 PUSH2 0x1CAF JUMP JUMPDEST PUSH1 0x1 DUP2 ADD SWAP1 POP PUSH2 0x1CC8 JUMP JUMPDEST POP POP JUMP JUMPDEST PUSH1 0x1F DUP3 GT ISZERO PUSH2 0x1D2B JUMPI PUSH2 0x1CFC DUP2 PUSH2 0x1BCB JUMP JUMPDEST PUSH2 0x1D05 DUP5 PUSH2 0x1BE0 JUMP JUMPDEST DUP2 ADD PUSH1 0x20 DUP6 LT ISZERO PUSH2 0x1D14 JUMPI DUP2 SWAP1 POP JUMPDEST PUSH2 0x1D28 PUSH2 0x1D20 DUP6 PUSH2 0x1BE0 JUMP JUMPDEST DUP4 ADD DUP3 PUSH2 0x1CC7 JUMP JUMPDEST POP POP JUMPDEST POP POP POP JUMP JUMPDEST PUSH1 0x0 DUP3 DUP3 SHR SWAP1 POP SWAP3 SWAP2 POP POP JUMP JUMPDEST PUSH1 0x0 PUSH2 0x1D4E PUSH1 0x0 NOT DUP5 PUSH1 0x8 MUL PUSH2 0x1D30 JUMP JUMPDEST NOT DUP1 DUP4 AND SWAP2 POP POP SWAP3 SWAP2 POP POP JUMP JUMPDEST PUSH1 0x0 PUSH2 0x1D67 DUP4 DUP4 PUSH2 0x1D3D JUMP JUMPDEST SWAP2 POP DUP3 PUSH1 0x2 MUL DUP3 OR SWAP1 POP SWAP3 SWAP2 POP POP JUMP JUMPDEST PUSH2 0x1D80 DUP3 PUSH2 0x1348 JUMP JUMPDEST PUSH8 0xFFFFFFFFFFFFFFFF DUP2 GT ISZERO PUSH2 0x1D99 JUMPI PUSH2 0x1D98 PUSH2 0x189E JUMP JUMPDEST JUMPDEST PUSH2 0x1DA3 DUP3 SLOAD PUSH2 0x1A54 JUMP JUMPDEST PUSH2 0x1DAE DUP3 DUP3 DUP6 PUSH2 0x1CEA JUMP JUMPDEST PUSH1 0x0 PUSH1 0x20 SWAP1 POP PUSH1 0x1F DUP4 GT PUSH1 0x1 DUP2 EQ PUSH2 0x1DE1 JUMPI PUSH1 0x0 DUP5 ISZERO PUSH2 0x1DCF JUMPI DUP3 DUP8 ADD MLOAD SWAP1 POP JUMPDEST PUSH2 0x1DD9 DUP6 DUP3 PUSH2 0x1D5B JUMP JUMPDEST DUP7 SSTORE POP PUSH2 0x1E41 JUMP JUMPDEST PUSH1 0x1F NOT DUP5 AND PUSH2 0x1DEF DUP7 PUSH2 0x1BCB JUMP JUMPDEST PUSH1 0x0 JUMPDEST DUP3 DUP2 LT ISZERO PUSH2 0x1E17 JUMPI DUP5 DUP10 ADD MLOAD DUP3 SSTORE PUSH1 0x1 DUP3 ADD SWAP2 POP PUSH1 0x20 DUP6 ADD SWAP5 POP PUSH1 0x20 DUP2 ADD SWAP1 POP PUSH2 0x1DF2 JUMP JUMPDEST DUP7 DUP4 LT ISZERO PUSH2 0x1E34 JUMPI DUP5 DUP10 ADD MLOAD PUSH2 0x1E30 PUSH1 0x1F DUP10 AND DUP3 PUSH2 0x1D3D JUMP JUMPDEST DUP4 SSTORE POP JUMPDEST PUSH1 0x1 PUSH1 0x2 DUP9 MUL ADD DUP9 SSTORE POP POP POP JUMPDEST POP POP POP POP POP POP JUMP JUMPDEST PUSH1 0x0 PUSH1 0x20 DUP3 ADD SWAP1 POP DUP2 DUP2 SUB PUSH1 0x0 DUP4 ADD MSTORE PUSH2 0x1E63 DUP2 DUP5 PUSH2 0x1739 JUMP JUMPDEST SWAP1 POP SWAP3 SWAP2 POP POP JUMP JUMPDEST PUSH1 0x0 DUP2 PUSH1 0x60 SHL SWAP1 POP SWAP2 SWAP1 POP JUMP JUMPDEST PUSH1 0x0 PUSH2 0x1E83 DUP3 PUSH2 0x1E6B JUMP JUMPDEST SWAP1 POP SWAP2 SWAP1 POP JUMP JUMPDEST PUSH1 0x0 PUSH2 0x1E95 DUP3 PUSH2 0x1E78 JUMP JUMPDEST SWAP1 POP SWAP2 SWAP1 POP JUMP JUMPDEST PUSH2 0x1EAD PUSH2 0x1EA8 DUP3 PUSH2 0x1289 JUMP JUMPDEST PUSH2 0x1E8A JUMP JUMPDEST DUP3 MSTORE POP POP JUMP JUMPDEST PUSH1 0x0 PUSH2 0x1EBF DUP3 DUP6 PUSH2 0x1E9C JUMP JUMPDEST PUSH1 0x14 DUP3 ADD SWAP2 POP PUSH2 0x1ECF DUP3 DUP5 PUSH2 0x1E9C JUMP JUMPDEST PUSH1 0x14 DUP3 ADD SWAP2 POP DUP2 SWAP1 POP SWAP4 SWAP3 POP POP POP JUMP JUMPDEST PUSH1 0x0 PUSH2 0x1EEA DUP3 PUSH2 0x132F JUMP JUMPDEST SWAP2 POP PUSH2 0x1EF5 DUP4 PUSH2 0x132F JUMP JUMPDEST SWAP3 POP DUP3 DUP3 SUB SWAP1 POP DUP2 DUP2 GT ISZERO PUSH2 0x1F0D JUMPI PUSH2 0x1F0C PUSH2 0x1A85 JUMP JUMPDEST JUMPDEST SWAP3 SWAP2 POP POP JUMP INVALID LOG2 PUSH5 0x6970667358 0x22 SLT KECCAK256 RETURNDATASIZE 0xBC PUSH22 0x852E7467992F4C31E5387CF0AB9942B6128520883FF4 0x21 0xB1 0xC6 SMOD SELFBALANCE CALLCODE 0xA7 PUSH5 0x736F6C6343 STOP ADDMOD ISZERO STOP CALLER "},"gasEstimates":{"creation":{"codeDepositCost":"1601800","executionCost":"1680","totalCost":"1603480"},"external":{"":"152","allMessages(bytes32,uint256)":"infinite","deleteMessage(uint256)":"29273","getMyMessages()":"infinite","markAsRead(uint256)":"29179","readFriendMessage(address)":"infinite","sendMessage(address,string)":"infinite","userMessages(address,uint256)":"infinite"},"internal":{"_getChatCode(address,address)":"infinite","sortMessagesByTimestamp(struct MessageStorage.shortMessage memory[] memory)":"infinite"}},"methodIdentifiers":{"allMessages(bytes32,uint256)":"7694eaa6","deleteMessage(uint256)":"b888690a","getMyMessages()":"5e7339ce","markAsRead(uint256)":"7c100c36","readFriendMessage(address)":"4ab27284","sendMessage(address,string)":"de6f24bb","userMessages(address,uint256)":"9428cda3"}},"storageLayout":{"storage":[{"astId":2041,"contract":"contracts/MessageStorage.sol:MessageStorage","label":"userMessages","offset":0,"slot":"0","type":"t_mapping(t_address,t_array(t_struct(Message)2028_storage)dyn_storage)"},{"astId":2047,"contract":"contracts/MessageStorage.sol:MessageStorage","label":"allMessages","offset":0,"slot":"1","type":"t_mapping(t_bytes32,t_array(t_struct(shortMessage)2035_storage)dyn_storage)"}],"types":{"t_address":{"encoding":"inplace","label":"address","numberOfBytes":"20"},"t_array(t_struct(Message)2028_storage)dyn_storage":{"base":"t_struct(Message)2028_storage","encoding":"dynamic_array","label":"struct MessageStorage.Message[]","numberOfBytes":"32"},"t_array(t_struct(shortMessage)2035_storage)dyn_storage":{"base":"t_struct(shortMessage)2035_storage","encoding":"dynamic_array","label":"struct MessageStorage.shortMessage[]","numberOfBytes":"32"},"t_bool":{"encoding":"inplace","label":"bool","numberOfBytes":"1"},"t_bytes32":{"encoding":"inplace","label":"bytes32","numberOfBytes":"32"},"t_mapping(t_address,t_array(t_struct(Message)2028_storage)dyn_storage)":{"encoding":"mapping","key":"t_address","label":"mapping(address => struct MessageStorage.Message[])","numberOfBytes":"32","value":"t_array(t_struct(Message)2028_storage)dyn_storage"},"t_mapping(t_bytes32,t_array(t_struct(shortMessage)2035_storage)dyn_storage)":{"encoding":"mapping","key":"t_bytes32","label":"mapping(bytes32 => struct MessageStorage.shortMessage[])","numberOfBytes":"32","value":"t_array(t_struct(shortMessage)2035_storage)dyn_storage"},"t_string_storage":{"encoding":"bytes","label":"string","numberOfBytes":"32"},"t_struct(Message)2028_storage":{"encoding":"inplace","label":"struct MessageStorage.Message","members":[{"astId":2017,"contract":"contracts/MessageStorage.sol:MessageStorage","label":"sender","offset":0,"slot":"0","type":"t_address"},{"astId":2019,"contract":"contracts/MessageStorage.sol:MessageStorage","label":"recipient","offset":0,"slot":"1","type":"t_address"},{"astId":2021,"contract":"contracts/MessageStorage.sol:MessageStorage","label":"content","offset":0,"slot":"2","type":"t_string_storage"},{"astId":2023,"contract":"contracts/MessageStorage.sol:MessageStorage","label":"timestamp","offset":0,"slot":"3","type":"t_uint256"},{"astId":2025,"contract":"contracts/MessageStorage.sol:MessageStorage","label":"isRead","offset":0,"slot":"4","type":"t_bool"},{"astId":2027,"contract":"contracts/MessageStorage.sol:MessageStorage","label":"isDeleted","offset":1,"slot":"4","type":"t_bool"}],"numberOfBytes":"160"},"t_struct(shortMessage)2035_storage":{"encoding":"inplace","label":"struct MessageStorage.shortMessage","members":[{"astId":2030,"contract":"contracts/MessageStorage.sol:MessageStorage","label":"sender","offset":0,"slot":"0","type":"t_address"},{"astId":2032,"contract":"contracts/MessageStorage.sol:MessageStorage","label":"timestamp","offset":0,"slot":"1","type":"t_uint256"},{"astId":2034,"contract":"contracts/MessageStorage.sol:MessageStorage","label":"content","offset":0,"slot":"2","type":"t_string_storage"}],"numberOfBytes":"96"},"t_uint256":{"encoding":"inplace","label":"uint256","numberOfBytes":"32"}}},"userdoc":{"kind":"user","methods":{},"version":1}}}}