{"contracts/ERC735.sol":{"ERC735":{"abi":[{"anonymous":false,"inputs":[{"indexed":true,"internalType":"bytes32","name":"claimId","type":"bytes32"},{"indexed":true,"internalType":"uint256","name":"claimType","type":"uint256"},{"indexed":true,"internalType":"address","name":"issuer","type":"address"},{"indexed":false,"internalType":"uint256","name":"signatureType","type":"uint256"},{"indexed":false,"internalType":"bytes32","name":"signature","type":"bytes32"},{"indexed":false,"internalType":"bytes","name":"claim","type":"bytes"},{"indexed":false,"internalType":"string","name":"uri","type":"string"}],"name":"ClaimAdded","type":"event"},{"anonymous":false,"inputs":[{"indexed":true,"internalType":"bytes32","name":"claimId","type":"bytes32"},{"indexed":true,"internalType":"uint256","name":"claimType","type":"uint256"},{"indexed":false,"internalType":"uint256","name":"scheme","type":"uint256"},{"indexed":true,"internalType":"address","name":"issuer","type":"address"},{"indexed":false,"internalType":"bytes","name":"signature","type":"bytes"},{"indexed":false,"internalType":"bytes","name":"data","type":"bytes"},{"indexed":false,"internalType":"string","name":"uri","type":"string"}],"name":"ClaimChanged","type":"event"},{"anonymous":false,"inputs":[{"indexed":true,"internalType":"bytes32","name":"claimId","type":"bytes32"},{"indexed":true,"internalType":"uint256","name":"claimType","type":"uint256"},{"indexed":false,"internalType":"uint256","name":"scheme","type":"uint256"},{"indexed":true,"internalType":"address","name":"issuer","type":"address"},{"indexed":false,"internalType":"bytes","name":"signature","type":"bytes"},{"indexed":false,"internalType":"bytes","name":"data","type":"bytes"},{"indexed":false,"internalType":"string","name":"uri","type":"string"}],"name":"ClaimRemoved","type":"event"},{"anonymous":false,"inputs":[{"indexed":true,"internalType":"uint256","name":"claimRequestId","type":"uint256"},{"indexed":true,"internalType":"uint256","name":"claimType","type":"uint256"},{"indexed":false,"internalType":"uint256","name":"scheme","type":"uint256"},{"indexed":true,"internalType":"address","name":"issuer","type":"address"},{"indexed":false,"internalType":"bytes","name":"signature","type":"bytes"},{"indexed":false,"internalType":"bytes","name":"data","type":"bytes"},{"indexed":false,"internalType":"string","name":"uri","type":"string"}],"name":"ClaimRequested","type":"event"},{"inputs":[{"internalType":"uint256","name":"_claimType","type":"uint256"},{"internalType":"uint256","name":"_scheme","type":"uint256"},{"internalType":"address","name":"_issuer","type":"address"},{"internalType":"bytes","name":"_signature","type":"bytes"},{"internalType":"bytes","name":"_data","type":"bytes"},{"internalType":"string","name":"_uri","type":"string"}],"name":"addClaim","outputs":[{"internalType":"bytes32","name":"","type":"bytes32"}],"stateMutability":"nonpayable","type":"function"},{"inputs":[{"internalType":"uint256","name":"","type":"uint256"},{"internalType":"uint256","name":"","type":"uint256"}],"name":"claimIdsByType","outputs":[{"internalType":"bytes32","name":"","type":"bytes32"}],"stateMutability":"view","type":"function"},{"inputs":[{"internalType":"bytes32","name":"","type":"bytes32"}],"name":"claims","outputs":[{"internalType":"uint256","name":"claimType","type":"uint256"},{"internalType":"uint256","name":"scheme","type":"uint256"},{"internalType":"address","name":"issuer","type":"address"},{"internalType":"bytes","name":"signature","type":"bytes"},{"internalType":"bytes","name":"data","type":"bytes"},{"internalType":"string","name":"uri","type":"string"}],"stateMutability":"view","type":"function"},{"inputs":[{"internalType":"bytes32","name":"_claimId","type":"bytes32"}],"name":"getClaim","outputs":[{"internalType":"uint256","name":"claimType","type":"uint256"},{"internalType":"uint256","name":"scheme","type":"uint256"},{"internalType":"address","name":"issuer","type":"address"},{"internalType":"bytes","name":"signature","type":"bytes"},{"internalType":"bytes","name":"data","type":"bytes"},{"internalType":"string","name":"uri","type":"string"}],"stateMutability":"view","type":"function"},{"inputs":[{"internalType":"uint256","name":"_claimType","type":"uint256"}],"name":"getClaimIdsByType","outputs":[{"internalType":"bytes32[]","name":"claimIds","type":"bytes32[]"}],"stateMutability":"view","type":"function"},{"inputs":[{"internalType":"bytes32","name":"_claimId","type":"bytes32"}],"name":"removeClaim","outputs":[{"internalType":"bool","name":"success","type":"bool"}],"stateMutability":"nonpayable","type":"function"}],"devdoc":{"kind":"dev","methods":{},"version":1},"evm":{"bytecode":{"linkReferences":{},"object":"608060405234801561001057600080fd5b506119f4806100206000396000f3fe608060405234801561001057600080fd5b50600436106100625760003560e01c80631de2b13114610067578063262b54f5146100975780634eee424a146100c7578063b1a34e0d146100f7578063c9100bcb14610127578063eff0f5921461015c575b600080fd5b610081600480360381019061007c9190610bc2565b610191565b60405161008e9190610c1b565b60405180910390f35b6100b160048036038101906100ac9190610c36565b6101c2565b6040516100be9190610d21565b60405180910390f35b6100e160048036038101906100dc9190610d6f565b61022d565b6040516100ee9190610db7565b60405180910390f35b610111600480360381019061010c9190611017565b61050a565b60405161011e9190610c1b565b60405180910390f35b610141600480360381019061013c9190610d6f565b6106d2565b604051610153969594939291906111ea565b60405180910390f35b61017660048036038101906101719190610d6f565b6108e7565b604051610188969594939291906111ea565b60405180910390f35b600160205281600052604060002081815481106101ad57600080fd5b90600052602060002001600091509150505481565b60606001600083815260200190815260200160002080548060200260200160405190810160405280929190818152602001828054801561022157602002820191906000526020600020905b81548152602001906001019080831161020d575b50505050509050919050565b600080600083815260200190815260200160002060020160009054906101000a900473ffffffffffffffffffffffffffffffffffffffff1673ffffffffffffffffffffffffffffffffffffffff163373ffffffffffffffffffffffffffffffffffffffff161461029c57600080fd5b60008083815260200190815260200160002060008082016000905560018201600090556002820160006101000a81549073ffffffffffffffffffffffffffffffffffffffff02191690556003820160006102f69190610adb565b6004820160006103069190610adb565b6005820160006103169190610b1b565b50506000806000848152602001908152602001600020600001549050600060016000838152602001908152602001600020905060005b8180549050811015610422578482828154811061036c5761036b611260565b5b90600052602060002001540361040f576001828054905061038d91906112be565b81146103e35781600183805490506103a591906112be565b815481106103b6576103b5611260565b5b90600052602060002001548282815481106103d4576103d3611260565b5b90600052602060002001819055505b818054806103f4576103f36112f2565b5b60019003818190600052602060002001600090559055610422565b808061041a90611321565b91505061034c565b5060008085815260200190815260200160002060020160009054906101000a900473ffffffffffffffffffffffffffffffffffffffff1673ffffffffffffffffffffffffffffffffffffffff1682857f3cf57863a89432c61c4a27073c6ee39e8a764bff5a05aebfbcdcdc80b2e6130a600080898152602001908152602001600020600101546000808a81526020019081526020016000206003016000808b81526020019081526020016000206004016000808c81526020019081526020016000206005016040516104f794939291906114fb565b60405180910390a4600192505050919050565b60008085886040516020016105209291906115be565b6040516020818303038152906040528051906020012090506040518060c001604052808981526020018881526020018773ffffffffffffffffffffffffffffffffffffffff16815260200186815260200185815260200184815250600080838152602001908152602001600020600082015181600001556020820151816001015560408201518160020160006101000a81548173ffffffffffffffffffffffffffffffffffffffff021916908373ffffffffffffffffffffffffffffffffffffffff16021790555060608201518160030190816105fd9190611781565b5060808201518160040190816106139190611781565b5060a08201518160050190816106299190611899565b50905050600160008981526020019081526020016000208190806001815401808255809150506001900390600052602060002001600090919091909150558573ffffffffffffffffffffffffffffffffffffffff1688827fe77b8a549307a1a60bdd8c5fa64ede3706a3db2ac23c61d87b66af36eacf07f38a898051906020012089896040516106bc949392919061196b565b60405180910390a4809150509695505050505050565b6000806000606080606060008060008981526020019081526020016000209050806000015481600101548260020160009054906101000a900473ffffffffffffffffffffffffffffffffffffffff1683600301846004018560050182805461073990611398565b80601f016020809104026020016040519081016040528092919081815260200182805461076590611398565b80156107b25780601f10610787576101008083540402835291602001916107b2565b820191906000526020600020905b81548152906001019060200180831161079557829003601f168201915b505050505092508180546107c590611398565b80601f01602080910402602001604051908101604052809291908181526020018280546107f190611398565b801561083e5780601f106108135761010080835404028352916020019161083e565b820191906000526020600020905b81548152906001019060200180831161082157829003601f168201915b5050505050915080805461085190611398565b80601f016020809104026020016040519081016040528092919081815260200182805461087d90611398565b80156108ca5780601f1061089f576101008083540402835291602001916108ca565b820191906000526020600020905b8154815290600101906020018083116108ad57829003601f168201915b505050505090509650965096509650965096505091939550919395565b60006020528060005260406000206000915090508060000154908060010154908060020160009054906101000a900473ffffffffffffffffffffffffffffffffffffffff169080600301805461093c90611398565b80601f016020809104026020016040519081016040528092919081815260200182805461096890611398565b80156109b55780601f1061098a576101008083540402835291602001916109b5565b820191906000526020600020905b81548152906001019060200180831161099857829003601f168201915b5050505050908060040180546109ca90611398565b80601f01602080910402602001604051908101604052809291908181526020018280546109f690611398565b8015610a435780601f10610a1857610100808354040283529160200191610a43565b820191906000526020600020905b815481529060010190602001808311610a2657829003601f168201915b505050505090806005018054610a5890611398565b80601f0160208091040260200160405190810160405280929190818152602001828054610a8490611398565b8015610ad15780601f10610aa657610100808354040283529160200191610ad1565b820191906000526020600020905b815481529060010190602001808311610ab457829003601f168201915b5050505050905086565b508054610ae790611398565b6000825580601f10610af95750610b18565b601f016020900490600052602060002090810190610b179190610b5b565b5b50565b508054610b2790611398565b6000825580601f10610b395750610b58565b601f016020900490600052602060002090810190610b579190610b5b565b5b50565b5b80821115610b74576000816000905550600101610b5c565b5090565b6000604051905090565b600080fd5b600080fd5b6000819050919050565b610b9f81610b8c565b8114610baa57600080fd5b50565b600081359050610bbc81610b96565b92915050565b60008060408385031215610bd957610bd8610b82565b5b6000610be785828601610bad565b9250506020610bf885828601610bad565b9150509250929050565b6000819050919050565b610c1581610c02565b82525050565b6000602082019050610c306000830184610c0c565b92915050565b600060208284031215610c4c57610c4b610b82565b5b6000610c5a84828501610bad565b91505092915050565b600081519050919050565b600082825260208201905092915050565b6000819050602082019050919050565b610c9881610c02565b82525050565b6000610caa8383610c8f565b60208301905092915050565b6000602082019050919050565b6000610cce82610c63565b610cd88185610c6e565b9350610ce383610c7f565b8060005b83811015610d14578151610cfb8882610c9e565b9750610d0683610cb6565b925050600181019050610ce7565b5085935050505092915050565b60006020820190508181036000830152610d3b8184610cc3565b905092915050565b610d4c81610c02565b8114610d5757600080fd5b50565b600081359050610d6981610d43565b92915050565b600060208284031215610d8557610d84610b82565b5b6000610d9384828501610d5a565b91505092915050565b60008115159050919050565b610db181610d9c565b82525050565b6000602082019050610dcc6000830184610da8565b92915050565b600073ffffffffffffffffffffffffffffffffffffffff82169050919050565b6000610dfd82610dd2565b9050919050565b610e0d81610df2565b8114610e1857600080fd5b50565b600081359050610e2a81610e04565b92915050565b600080fd5b600080fd5b6000601f19601f8301169050919050565b7f4e487b7100000000000000000000000000000000000000000000000000000000600052604160045260246000fd5b610e8382610e3a565b810181811067ffffffffffffffff82111715610ea257610ea1610e4b565b5b80604052505050565b6000610eb5610b78565b9050610ec18282610e7a565b919050565b600067ffffffffffffffff821115610ee157610ee0610e4b565b5b610eea82610e3a565b9050602081019050919050565b82818337600083830152505050565b6000610f19610f1484610ec6565b610eab565b905082815260208101848484011115610f3557610f34610e35565b5b610f40848285610ef7565b509392505050565b600082601f830112610f5d57610f5c610e30565b5b8135610f6d848260208601610f06565b91505092915050565b600067ffffffffffffffff821115610f9157610f90610e4b565b5b610f9a82610e3a565b9050602081019050919050565b6000610fba610fb584610f76565b610eab565b905082815260208101848484011115610fd657610fd5610e35565b5b610fe1848285610ef7565b509392505050565b600082601f830112610ffe57610ffd610e30565b5b813561100e848260208601610fa7565b91505092915050565b60008060008060008060c0878903121561103457611033610b82565b5b600061104289828a01610bad565b965050602061105389828a01610bad565b955050604061106489828a01610e1b565b945050606087013567ffffffffffffffff81111561108557611084610b87565b5b61109189828a01610f48565b935050608087013567ffffffffffffffff8111156110b2576110b1610b87565b5b6110be89828a01610f48565b92505060a087013567ffffffffffffffff8111156110df576110de610b87565b5b6110eb89828a01610fe9565b9150509295509295509295565b61110181610b8c565b82525050565b61111081610df2565b82525050565b600081519050919050565b600082825260208201905092915050565b60005b83811015611150578082015181840152602081019050611135565b60008484015250505050565b600061116782611116565b6111718185611121565b9350611181818560208601611132565b61118a81610e3a565b840191505092915050565b600081519050919050565b600082825260208201905092915050565b60006111bc82611195565b6111c681856111a0565b93506111d6818560208601611132565b6111df81610e3a565b840191505092915050565b600060c0820190506111ff60008301896110f8565b61120c60208301886110f8565b6112196040830187611107565b818103606083015261122b818661115c565b9050818103608083015261123f818561115c565b905081810360a083015261125381846111b1565b9050979650505050505050565b7f4e487b7100000000000000000000000000000000000000000000000000000000600052603260045260246000fd5b7f4e487b7100000000000000000000000000000000000000000000000000000000600052601160045260246000fd5b60006112c982610b8c565b91506112d483610b8c565b92508282039050818111156112ec576112eb61128f565b5b92915050565b7f4e487b7100000000000000000000000000000000000000000000000000000000600052603160045260246000fd5b600061132c82610b8c565b91507fffffffffffffffffffffffffffffffffffffffffffffffffffffffffffffffff820361135e5761135d61128f565b5b600182019050919050565b7f4e487b7100000000000000000000000000000000000000000000000000000000600052602260045260246000fd5b600060028204905060018216806113b057607f821691505b6020821081036113c3576113c2611369565b5b50919050565b60008190508160005260206000209050919050565b600081546113eb81611398565b6113f58186611121565b94506001821660008114611410576001811461142657611459565b60ff198316865281151560200286019350611459565b61142f856113c9565b60005b8381101561145157815481890152600182019150602081019050611432565b808801955050505b50505092915050565b60008190508160005260206000209050919050565b6000815461148481611398565b61148e81866111a0565b945060018216600081146114a957600181146114bf576114f2565b60ff1983168652811515602002860193506114f2565b6114c885611462565b60005b838110156114ea578154818901526001820191506020810190506114cb565b808801955050505b50505092915050565b600060808201905061151060008301876110f8565b818103602083015261152281866113de565b9050818103604083015261153681856113de565b9050818103606083015261154a8184611477565b905095945050505050565b60008160601b9050919050565b600061156d82611555565b9050919050565b600061157f82611562565b9050919050565b61159761159282610df2565b611574565b82525050565b6000819050919050565b6115b86115b382610b8c565b61159d565b82525050565b60006115ca8285611586565b6014820191506115da82846115a7565b6020820191508190509392505050565b60006020601f8301049050919050565b600082821b905092915050565b6000600883026116377fffffffffffffffffffffffffffffffffffffffffffffffffffffffffffffffff826115fa565b61164186836115fa565b95508019841693508086168417925050509392505050565b6000819050919050565b600061167e61167961167484610b8c565b611659565b610b8c565b9050919050565b6000819050919050565b61169883611663565b6116ac6116a482611685565b848454611607565b825550505050565b600090565b6116c16116b4565b6116cc81848461168f565b505050565b5b818110156116f0576116e56000826116b9565b6001810190506116d2565b5050565b601f82111561173557611706816113c9565b61170f846115ea565b8101602085101561171e578190505b61173261172a856115ea565b8301826116d1565b50505b505050565b600082821c905092915050565b60006117586000198460080261173a565b1980831691505092915050565b60006117718383611747565b9150826002028217905092915050565b61178a82611116565b67ffffffffffffffff8111156117a3576117a2610e4b565b5b6117ad8254611398565b6117b88282856116f4565b600060209050601f8311600181146117eb57600084156117d9578287015190505b6117e38582611765565b86555061184b565b601f1984166117f9866113c9565b60005b82811015611821578489015182556001820191506020850194506020810190506117fc565b8683101561183e578489015161183a601f891682611747565b8355505b6001600288020188555050505b505050505050565b601f8211156118945761186581611462565b61186e846115ea565b8101602085101561187d578190505b611891611889856115ea565b8301826116d1565b50505b505050565b6118a282611195565b67ffffffffffffffff8111156118bb576118ba610e4b565b5b6118c58254611398565b6118d0828285611853565b600060209050601f83116001811461190357600084156118f1578287015190505b6118fb8582611765565b865550611963565b601f19841661191186611462565b60005b8281101561193957848901518255600182019150602085019450602081019050611914565b868310156119565784890151611952601f891682611747565b8355505b6001600288020188555050505b505050505050565b600060808201905061198060008301876110f8565b61198d6020830186610c0c565b818103604083015261199f818561115c565b905081810360608301526119b381846111b1565b90509594505050505056fea2646970667358221220e46c517c6ab47f20d0135f638b5cb2f95ac023a41cdc9dbf129dafe3f32f3b5264736f6c63430008150033","opcodes":"PUSH1 0x80 PUSH1 0x40 MSTORE CALLVALUE DUP1 ISZERO PUSH2 0x10 JUMPI PUSH1 0x0 DUP1 REVERT JUMPDEST POP PUSH2 0x19F4 DUP1 PUSH2 0x20 PUSH1 0x0 CODECOPY PUSH1 0x0 RETURN INVALID PUSH1 0x80 PUSH1 0x40 MSTORE CALLVALUE DUP1 ISZERO PUSH2 0x10 JUMPI PUSH1 0x0 DUP1 REVERT JUMPDEST POP PUSH1 0x4 CALLDATASIZE LT PUSH2 0x62 JUMPI PUSH1 0x0 CALLDATALOAD PUSH1 0xE0 SHR DUP1 PUSH4 0x1DE2B131 EQ PUSH2 0x67 JUMPI DUP1 PUSH4 0x262B54F5 EQ PUSH2 0x97 JUMPI DUP1 PUSH4 0x4EEE424A EQ PUSH2 0xC7 JUMPI DUP1 PUSH4 0xB1A34E0D EQ PUSH2 0xF7 JUMPI DUP1 PUSH4 0xC9100BCB EQ PUSH2 0x127 JUMPI DUP1 PUSH4 0xEFF0F592 EQ PUSH2 0x15C JUMPI JUMPDEST PUSH1 0x0 DUP1 REVERT JUMPDEST PUSH2 0x81 PUSH1 0x4 DUP1 CALLDATASIZE SUB DUP2 ADD SWAP1 PUSH2 0x7C SWAP2 SWAP1 PUSH2 0xBC2 JUMP JUMPDEST PUSH2 0x191 JUMP JUMPDEST PUSH1 0x40 MLOAD PUSH2 0x8E SWAP2 SWAP1 PUSH2 0xC1B JUMP JUMPDEST PUSH1 0x40 MLOAD DUP1 SWAP2 SUB SWAP1 RETURN JUMPDEST PUSH2 0xB1 PUSH1 0x4 DUP1 CALLDATASIZE SUB DUP2 ADD SWAP1 PUSH2 0xAC SWAP2 SWAP1 PUSH2 0xC36 JUMP JUMPDEST PUSH2 0x1C2 JUMP JUMPDEST PUSH1 0x40 MLOAD PUSH2 0xBE SWAP2 SWAP1 PUSH2 0xD21 JUMP JUMPDEST PUSH1 0x40 MLOAD DUP1 SWAP2 SUB SWAP1 RETURN JUMPDEST PUSH2 0xE1 PUSH1 0x4 DUP1 CALLDATASIZE SUB DUP2 ADD SWAP1 PUSH2 0xDC SWAP2 SWAP1 PUSH2 0xD6F JUMP JUMPDEST PUSH2 0x22D JUMP JUMPDEST PUSH1 0x40 MLOAD PUSH2 0xEE SWAP2 SWAP1 PUSH2 0xDB7 JUMP JUMPDEST PUSH1 0x40 MLOAD DUP1 SWAP2 SUB SWAP1 RETURN JUMPDEST PUSH2 0x111 PUSH1 0x4 DUP1 CALLDATASIZE SUB DUP2 ADD SWAP1 PUSH2 0x10C SWAP2 SWAP1 PUSH2 0x1017 JUMP JUMPDEST PUSH2 0x50A JUMP JUMPDEST PUSH1 0x40 MLOAD PUSH2 0x11E SWAP2 SWAP1 PUSH2 0xC1B JUMP JUMPDEST PUSH1 0x40 MLOAD DUP1 SWAP2 SUB SWAP1 RETURN JUMPDEST PUSH2 0x141 PUSH1 0x4 DUP1 CALLDATASIZE SUB DUP2 ADD SWAP1 PUSH2 0x13C SWAP2 SWAP1 PUSH2 0xD6F JUMP JUMPDEST PUSH2 0x6D2 JUMP JUMPDEST PUSH1 0x40 MLOAD PUSH2 0x153 SWAP7 SWAP6 SWAP5 SWAP4 SWAP3 SWAP2 SWAP1 PUSH2 0x11EA JUMP JUMPDEST PUSH1 0x40 MLOAD DUP1 SWAP2 SUB SWAP1 RETURN JUMPDEST PUSH2 0x176 PUSH1 0x4 DUP1 CALLDATASIZE SUB DUP2 ADD SWAP1 PUSH2 0x171 SWAP2 SWAP1 PUSH2 0xD6F JUMP JUMPDEST PUSH2 0x8E7 JUMP JUMPDEST PUSH1 0x40 MLOAD PUSH2 0x188 SWAP7 SWAP6 SWAP5 SWAP4 SWAP3 SWAP2 SWAP1 PUSH2 0x11EA JUMP JUMPDEST PUSH1 0x40 MLOAD DUP1 SWAP2 SUB SWAP1 RETURN JUMPDEST PUSH1 0x1 PUSH1 0x20 MSTORE DUP2 PUSH1 0x0 MSTORE PUSH1 0x40 PUSH1 0x0 KECCAK256 DUP2 DUP2 SLOAD DUP2 LT PUSH2 0x1AD JUMPI PUSH1 0x0 DUP1 REVERT JUMPDEST SWAP1 PUSH1 0x0 MSTORE PUSH1 0x20 PUSH1 0x0 KECCAK256 ADD PUSH1 0x0 SWAP2 POP SWAP2 POP POP SLOAD DUP2 JUMP JUMPDEST PUSH1 0x60 PUSH1 0x1 PUSH1 0x0 DUP4 DUP2 MSTORE PUSH1 0x20 ADD SWAP1 DUP2 MSTORE PUSH1 0x20 ADD PUSH1 0x0 KECCAK256 DUP1 SLOAD DUP1 PUSH1 0x20 MUL PUSH1 0x20 ADD PUSH1 0x40 MLOAD SWAP1 DUP2 ADD PUSH1 0x40 MSTORE DUP1 SWAP3 SWAP2 SWAP1 DUP2 DUP2 MSTORE PUSH1 0x20 ADD DUP3 DUP1 SLOAD DUP1 ISZERO PUSH2 0x221 JUMPI PUSH1 0x20 MUL DUP3 ADD SWAP2 SWAP1 PUSH1 0x0 MSTORE PUSH1 0x20 PUSH1 0x0 KECCAK256 SWAP1 JUMPDEST DUP2 SLOAD DUP2 MSTORE PUSH1 0x20 ADD SWAP1 PUSH1 0x1 ADD SWAP1 DUP1 DUP4 GT PUSH2 0x20D JUMPI JUMPDEST POP POP POP POP POP SWAP1 POP SWAP2 SWAP1 POP JUMP JUMPDEST PUSH1 0x0 DUP1 PUSH1 0x0 DUP4 DUP2 MSTORE PUSH1 0x20 ADD SWAP1 DUP2 MSTORE PUSH1 0x20 ADD PUSH1 0x0 KECCAK256 PUSH1 0x2 ADD PUSH1 0x0 SWAP1 SLOAD SWAP1 PUSH2 0x100 EXP SWAP1 DIV PUSH20 0xFFFFFFFFFFFFFFFFFFFFFFFFFFFFFFFFFFFFFFFF AND PUSH20 0xFFFFFFFFFFFFFFFFFFFFFFFFFFFFFFFFFFFFFFFF AND CALLER PUSH20 0xFFFFFFFFFFFFFFFFFFFFFFFFFFFFFFFFFFFFFFFF AND EQ PUSH2 0x29C JUMPI PUSH1 0x0 DUP1 REVERT JUMPDEST PUSH1 0x0 DUP1 DUP4 DUP2 MSTORE PUSH1 0x20 ADD SWAP1 DUP2 MSTORE PUSH1 0x20 ADD PUSH1 0x0 KECCAK256 PUSH1 0x0 DUP1 DUP3 ADD PUSH1 0x0 SWAP1 SSTORE PUSH1 0x1 DUP3 ADD PUSH1 0x0 SWAP1 SSTORE PUSH1 0x2 DUP3 ADD PUSH1 0x0 PUSH2 0x100 EXP DUP2 SLOAD SWAP1 PUSH20 0xFFFFFFFFFFFFFFFFFFFFFFFFFFFFFFFFFFFFFFFF MUL NOT AND SWAP1 SSTORE PUSH1 0x3 DUP3 ADD PUSH1 0x0 PUSH2 0x2F6 SWAP2 SWAP1 PUSH2 0xADB JUMP JUMPDEST PUSH1 0x4 DUP3 ADD PUSH1 0x0 PUSH2 0x306 SWAP2 SWAP1 PUSH2 0xADB JUMP JUMPDEST PUSH1 0x5 DUP3 ADD PUSH1 0x0 PUSH2 0x316 SWAP2 SWAP1 PUSH2 0xB1B JUMP JUMPDEST POP POP PUSH1 0x0 DUP1 PUSH1 0x0 DUP5 DUP2 MSTORE PUSH1 0x20 ADD SWAP1 DUP2 MSTORE PUSH1 0x20 ADD PUSH1 0x0 KECCAK256 PUSH1 0x0 ADD SLOAD SWAP1 POP PUSH1 0x0 PUSH1 0x1 PUSH1 0x0 DUP4 DUP2 MSTORE PUSH1 0x20 ADD SWAP1 DUP2 MSTORE PUSH1 0x20 ADD PUSH1 0x0 KECCAK256 SWAP1 POP PUSH1 0x0 JUMPDEST DUP2 DUP1 SLOAD SWAP1 POP DUP2 LT ISZERO PUSH2 0x422 JUMPI DUP5 DUP3 DUP3 DUP2 SLOAD DUP2 LT PUSH2 0x36C JUMPI PUSH2 0x36B PUSH2 0x1260 JUMP JUMPDEST JUMPDEST SWAP1 PUSH1 0x0 MSTORE PUSH1 0x20 PUSH1 0x0 KECCAK256 ADD SLOAD SUB PUSH2 0x40F JUMPI PUSH1 0x1 DUP3 DUP1 SLOAD SWAP1 POP PUSH2 0x38D SWAP2 SWAP1 PUSH2 0x12BE JUMP JUMPDEST DUP2 EQ PUSH2 0x3E3 JUMPI DUP2 PUSH1 0x1 DUP4 DUP1 SLOAD SWAP1 POP PUSH2 0x3A5 SWAP2 SWAP1 PUSH2 0x12BE JUMP JUMPDEST DUP2 SLOAD DUP2 LT PUSH2 0x3B6 JUMPI PUSH2 0x3B5 PUSH2 0x1260 JUMP JUMPDEST JUMPDEST SWAP1 PUSH1 0x0 MSTORE PUSH1 0x20 PUSH1 0x0 KECCAK256 ADD SLOAD DUP3 DUP3 DUP2 SLOAD DUP2 LT PUSH2 0x3D4 JUMPI PUSH2 0x3D3 PUSH2 0x1260 JUMP JUMPDEST JUMPDEST SWAP1 PUSH1 0x0 MSTORE PUSH1 0x20 PUSH1 0x0 KECCAK256 ADD DUP2 SWAP1 SSTORE POP JUMPDEST DUP2 DUP1 SLOAD DUP1 PUSH2 0x3F4 JUMPI PUSH2 0x3F3 PUSH2 0x12F2 JUMP JUMPDEST JUMPDEST PUSH1 0x1 SWAP1 SUB DUP2 DUP2 SWAP1 PUSH1 0x0 MSTORE PUSH1 0x20 PUSH1 0x0 KECCAK256 ADD PUSH1 0x0 SWAP1 SSTORE SWAP1 SSTORE PUSH2 0x422 JUMP JUMPDEST DUP1 DUP1 PUSH2 0x41A SWAP1 PUSH2 0x1321 JUMP JUMPDEST SWAP2 POP POP PUSH2 0x34C JUMP JUMPDEST POP PUSH1 0x0 DUP1 DUP6 DUP2 MSTORE PUSH1 0x20 ADD SWAP1 DUP2 MSTORE PUSH1 0x20 ADD PUSH1 0x0 KECCAK256 PUSH1 0x2 ADD PUSH1 0x0 SWAP1 SLOAD SWAP1 PUSH2 0x100 EXP SWAP1 DIV PUSH20 0xFFFFFFFFFFFFFFFFFFFFFFFFFFFFFFFFFFFFFFFF AND PUSH20 0xFFFFFFFFFFFFFFFFFFFFFFFFFFFFFFFFFFFFFFFF AND DUP3 DUP6 PUSH32 0x3CF57863A89432C61C4A27073C6EE39E8A764BFF5A05AEBFBCDCDC80B2E6130A PUSH1 0x0 DUP1 DUP10 DUP2 MSTORE PUSH1 0x20 ADD SWAP1 DUP2 MSTORE PUSH1 0x20 ADD PUSH1 0x0 KECCAK256 PUSH1 0x1 ADD SLOAD PUSH1 0x0 DUP1 DUP11 DUP2 MSTORE PUSH1 0x20 ADD SWAP1 DUP2 MSTORE PUSH1 0x20 ADD PUSH1 0x0 KECCAK256 PUSH1 0x3 ADD PUSH1 0x0 DUP1 DUP12 DUP2 MSTORE PUSH1 0x20 ADD SWAP1 DUP2 MSTORE PUSH1 0x20 ADD PUSH1 0x0 KECCAK256 PUSH1 0x4 ADD PUSH1 0x0 DUP1 DUP13 DUP2 MSTORE PUSH1 0x20 ADD SWAP1 DUP2 MSTORE PUSH1 0x20 ADD PUSH1 0x0 KECCAK256 PUSH1 0x5 ADD PUSH1 0x40 MLOAD PUSH2 0x4F7 SWAP5 SWAP4 SWAP3 SWAP2 SWAP1 PUSH2 0x14FB JUMP JUMPDEST PUSH1 0x40 MLOAD DUP1 SWAP2 SUB SWAP1 LOG4 PUSH1 0x1 SWAP3 POP POP POP SWAP2 SWAP1 POP JUMP JUMPDEST PUSH1 0x0 DUP1 DUP6 DUP9 PUSH1 0x40 MLOAD PUSH1 0x20 ADD PUSH2 0x520 SWAP3 SWAP2 SWAP1 PUSH2 0x15BE JUMP JUMPDEST PUSH1 0x40 MLOAD PUSH1 0x20 DUP2 DUP4 SUB SUB DUP2 MSTORE SWAP1 PUSH1 0x40 MSTORE DUP1 MLOAD SWAP1 PUSH1 0x20 ADD KECCAK256 SWAP1 POP PUSH1 0x40 MLOAD DUP1 PUSH1 0xC0 ADD PUSH1 0x40 MSTORE DUP1 DUP10 DUP2 MSTORE PUSH1 0x20 ADD DUP9 DUP2 MSTORE PUSH1 0x20 ADD DUP8 PUSH20 0xFFFFFFFFFFFFFFFFFFFFFFFFFFFFFFFFFFFFFFFF AND DUP2 MSTORE PUSH1 0x20 ADD DUP7 DUP2 MSTORE PUSH1 0x20 ADD DUP6 DUP2 MSTORE PUSH1 0x20 ADD DUP5 DUP2 MSTORE POP PUSH1 0x0 DUP1 DUP4 DUP2 MSTORE PUSH1 0x20 ADD SWAP1 DUP2 MSTORE PUSH1 0x20 ADD PUSH1 0x0 KECCAK256 PUSH1 0x0 DUP3 ADD MLOAD DUP2 PUSH1 0x0 ADD SSTORE PUSH1 0x20 DUP3 ADD MLOAD DUP2 PUSH1 0x1 ADD SSTORE PUSH1 0x40 DUP3 ADD MLOAD DUP2 PUSH1 0x2 ADD PUSH1 0x0 PUSH2 0x100 EXP DUP2 SLOAD DUP2 PUSH20 0xFFFFFFFFFFFFFFFFFFFFFFFFFFFFFFFFFFFFFFFF MUL NOT AND SWAP1 DUP4 PUSH20 0xFFFFFFFFFFFFFFFFFFFFFFFFFFFFFFFFFFFFFFFF AND MUL OR SWAP1 SSTORE POP PUSH1 0x60 DUP3 ADD MLOAD DUP2 PUSH1 0x3 ADD SWAP1 DUP2 PUSH2 0x5FD SWAP2 SWAP1 PUSH2 0x1781 JUMP JUMPDEST POP PUSH1 0x80 DUP3 ADD MLOAD DUP2 PUSH1 0x4 ADD SWAP1 DUP2 PUSH2 0x613 SWAP2 SWAP1 PUSH2 0x1781 JUMP JUMPDEST POP PUSH1 0xA0 DUP3 ADD MLOAD DUP2 PUSH1 0x5 ADD SWAP1 DUP2 PUSH2 0x629 SWAP2 SWAP1 PUSH2 0x1899 JUMP JUMPDEST POP SWAP1 POP POP PUSH1 0x1 PUSH1 0x0 DUP10 DUP2 MSTORE PUSH1 0x20 ADD SWAP1 DUP2 MSTORE PUSH1 0x20 ADD PUSH1 0x0 KECCAK256 DUP2 SWAP1 DUP1 PUSH1 0x1 DUP2 SLOAD ADD DUP1 DUP3 SSTORE DUP1 SWAP2 POP POP PUSH1 0x1 SWAP1 SUB SWAP1 PUSH1 0x0 MSTORE PUSH1 0x20 PUSH1 0x0 KECCAK256 ADD PUSH1 0x0 SWAP1 SWAP2 SWAP1 SWAP2 SWAP1 SWAP2 POP SSTORE DUP6 PUSH20 0xFFFFFFFFFFFFFFFFFFFFFFFFFFFFFFFFFFFFFFFF AND DUP9 DUP3 PUSH32 0xE77B8A549307A1A60BDD8C5FA64EDE3706A3DB2AC23C61D87B66AF36EACF07F3 DUP11 DUP10 DUP1 MLOAD SWAP1 PUSH1 0x20 ADD KECCAK256 DUP10 DUP10 PUSH1 0x40 MLOAD PUSH2 0x6BC SWAP5 SWAP4 SWAP3 SWAP2 SWAP1 PUSH2 0x196B JUMP JUMPDEST PUSH1 0x40 MLOAD DUP1 SWAP2 SUB SWAP1 LOG4 DUP1 SWAP2 POP POP SWAP7 SWAP6 POP POP POP POP POP POP JUMP JUMPDEST PUSH1 0x0 DUP1 PUSH1 0x0 PUSH1 0x60 DUP1 PUSH1 0x60 PUSH1 0x0 DUP1 PUSH1 0x0 DUP10 DUP2 MSTORE PUSH1 0x20 ADD SWAP1 DUP2 MSTORE PUSH1 0x20 ADD PUSH1 0x0 KECCAK256 SWAP1 POP DUP1 PUSH1 0x0 ADD SLOAD DUP2 PUSH1 0x1 ADD SLOAD DUP3 PUSH1 0x2 ADD PUSH1 0x0 SWAP1 SLOAD SWAP1 PUSH2 0x100 EXP SWAP1 DIV PUSH20 0xFFFFFFFFFFFFFFFFFFFFFFFFFFFFFFFFFFFFFFFF AND DUP4 PUSH1 0x3 ADD DUP5 PUSH1 0x4 ADD DUP6 PUSH1 0x5 ADD DUP3 DUP1 SLOAD PUSH2 0x739 SWAP1 PUSH2 0x1398 JUMP JUMPDEST DUP1 PUSH1 0x1F ADD PUSH1 0x20 DUP1 SWAP2 DIV MUL PUSH1 0x20 ADD PUSH1 0x40 MLOAD SWAP1 DUP2 ADD PUSH1 0x40 MSTORE DUP1 SWAP3 SWAP2 SWAP1 DUP2 DUP2 MSTORE PUSH1 0x20 ADD DUP3 DUP1 SLOAD PUSH2 0x765 SWAP1 PUSH2 0x1398 JUMP JUMPDEST DUP1 ISZERO PUSH2 0x7B2 JUMPI DUP1 PUSH1 0x1F LT PUSH2 0x787 JUMPI PUSH2 0x100 DUP1 DUP4 SLOAD DIV MUL DUP4 MSTORE SWAP2 PUSH1 0x20 ADD SWAP2 PUSH2 0x7B2 JUMP JUMPDEST DUP3 ADD SWAP2 SWAP1 PUSH1 0x0 MSTORE PUSH1 0x20 PUSH1 0x0 KECCAK256 SWAP1 JUMPDEST DUP2 SLOAD DUP2 MSTORE SWAP1 PUSH1 0x1 ADD SWAP1 PUSH1 0x20 ADD DUP1 DUP4 GT PUSH2 0x795 JUMPI DUP3 SWAP1 SUB PUSH1 0x1F AND DUP3 ADD SWAP2 JUMPDEST POP POP POP POP POP SWAP3 POP DUP2 DUP1 SLOAD PUSH2 0x7C5 SWAP1 PUSH2 0x1398 JUMP JUMPDEST DUP1 PUSH1 0x1F ADD PUSH1 0x20 DUP1 SWAP2 DIV MUL PUSH1 0x20 ADD PUSH1 0x40 MLOAD SWAP1 DUP2 ADD PUSH1 0x40 MSTORE DUP1 SWAP3 SWAP2 SWAP1 DUP2 DUP2 MSTORE PUSH1 0x20 ADD DUP3 DUP1 SLOAD PUSH2 0x7F1 SWAP1 PUSH2 0x1398 JUMP JUMPDEST DUP1 ISZERO PUSH2 0x83E JUMPI DUP1 PUSH1 0x1F LT PUSH2 0x813 JUMPI PUSH2 0x100 DUP1 DUP4 SLOAD DIV MUL DUP4 MSTORE SWAP2 PUSH1 0x20 ADD SWAP2 PUSH2 0x83E JUMP JUMPDEST DUP3 ADD SWAP2 SWAP1 PUSH1 0x0 MSTORE PUSH1 0x20 PUSH1 0x0 KECCAK256 SWAP1 JUMPDEST DUP2 SLOAD DUP2 MSTORE SWAP1 PUSH1 0x1 ADD SWAP1 PUSH1 0x20 ADD DUP1 DUP4 GT PUSH2 0x821 JUMPI DUP3 SWAP1 SUB PUSH1 0x1F AND DUP3 ADD SWAP2 JUMPDEST POP POP POP POP POP SWAP2 POP DUP1 DUP1 SLOAD PUSH2 0x851 SWAP1 PUSH2 0x1398 JUMP JUMPDEST DUP1 PUSH1 0x1F ADD PUSH1 0x20 DUP1 SWAP2 DIV MUL PUSH1 0x20 ADD PUSH1 0x40 MLOAD SWAP1 DUP2 ADD PUSH1 0x40 MSTORE DUP1 SWAP3 SWAP2 SWAP1 DUP2 DUP2 MSTORE PUSH1 0x20 ADD DUP3 DUP1 SLOAD PUSH2 0x87D SWAP1 PUSH2 0x1398 JUMP JUMPDEST DUP1 ISZERO PUSH2 0x8CA JUMPI DUP1 PUSH1 0x1F LT PUSH2 0x89F JUMPI PUSH2 0x100 DUP1 DUP4 SLOAD DIV MUL DUP4 MSTORE SWAP2 PUSH1 0x20 ADD SWAP2 PUSH2 0x8CA JUMP JUMPDEST DUP3 ADD SWAP2 SWAP1 PUSH1 0x0 MSTORE PUSH1 0x20 PUSH1 0x0 KECCAK256 SWAP1 JUMPDEST DUP2 SLOAD DUP2 MSTORE SWAP1 PUSH1 0x1 ADD SWAP1 PUSH1 0x20 ADD DUP1 DUP4 GT PUSH2 0x8AD JUMPI DUP3 SWAP1 SUB PUSH1 0x1F AND DUP3 ADD SWAP2 JUMPDEST POP POP POP POP POP SWAP1 POP SWAP7 POP SWAP7 POP SWAP7 POP SWAP7 POP SWAP7 POP SWAP7 POP POP SWAP2 SWAP4 SWAP6 POP SWAP2 SWAP4 SWAP6 JUMP JUMPDEST PUSH1 0x0 PUSH1 0x20 MSTORE DUP1 PUSH1 0x0 MSTORE PUSH1 0x40 PUSH1 0x0 KECCAK256 PUSH1 0x0 SWAP2 POP SWAP1 POP DUP1 PUSH1 0x0 ADD SLOAD SWAP1 DUP1 PUSH1 0x1 ADD SLOAD SWAP1 DUP1 PUSH1 0x2 ADD PUSH1 0x0 SWAP1 SLOAD SWAP1 PUSH2 0x100 EXP SWAP1 DIV PUSH20 0xFFFFFFFFFFFFFFFFFFFFFFFFFFFFFFFFFFFFFFFF AND SWAP1 DUP1 PUSH1 0x3 ADD DUP1 SLOAD PUSH2 0x93C SWAP1 PUSH2 0x1398 JUMP JUMPDEST DUP1 PUSH1 0x1F ADD PUSH1 0x20 DUP1 SWAP2 DIV MUL PUSH1 0x20 ADD PUSH1 0x40 MLOAD SWAP1 DUP2 ADD PUSH1 0x40 MSTORE DUP1 SWAP3 SWAP2 SWAP1 DUP2 DUP2 MSTORE PUSH1 0x20 ADD DUP3 DUP1 SLOAD PUSH2 0x968 SWAP1 PUSH2 0x1398 JUMP JUMPDEST DUP1 ISZERO PUSH2 0x9B5 JUMPI DUP1 PUSH1 0x1F LT PUSH2 0x98A JUMPI PUSH2 0x100 DUP1 DUP4 SLOAD DIV MUL DUP4 MSTORE SWAP2 PUSH1 0x20 ADD SWAP2 PUSH2 0x9B5 JUMP JUMPDEST DUP3 ADD SWAP2 SWAP1 PUSH1 0x0 MSTORE PUSH1 0x20 PUSH1 0x0 KECCAK256 SWAP1 JUMPDEST DUP2 SLOAD DUP2 MSTORE SWAP1 PUSH1 0x1 ADD SWAP1 PUSH1 0x20 ADD DUP1 DUP4 GT PUSH2 0x998 JUMPI DUP3 SWAP1 SUB PUSH1 0x1F AND DUP3 ADD SWAP2 JUMPDEST POP POP POP POP POP SWAP1 DUP1 PUSH1 0x4 ADD DUP1 SLOAD PUSH2 0x9CA SWAP1 PUSH2 0x1398 JUMP JUMPDEST DUP1 PUSH1 0x1F ADD PUSH1 0x20 DUP1 SWAP2 DIV MUL PUSH1 0x20 ADD PUSH1 0x40 MLOAD SWAP1 DUP2 ADD PUSH1 0x40 MSTORE DUP1 SWAP3 SWAP2 SWAP1 DUP2 DUP2 MSTORE PUSH1 0x20 ADD DUP3 DUP1 SLOAD PUSH2 0x9F6 SWAP1 PUSH2 0x1398 JUMP JUMPDEST DUP1 ISZERO PUSH2 0xA43 JUMPI DUP1 PUSH1 0x1F LT PUSH2 0xA18 JUMPI PUSH2 0x100 DUP1 DUP4 SLOAD DIV MUL DUP4 MSTORE SWAP2 PUSH1 0x20 ADD SWAP2 PUSH2 0xA43 JUMP JUMPDEST DUP3 ADD SWAP2 SWAP1 PUSH1 0x0 MSTORE PUSH1 0x20 PUSH1 0x0 KECCAK256 SWAP1 JUMPDEST DUP2 SLOAD DUP2 MSTORE SWAP1 PUSH1 0x1 ADD SWAP1 PUSH1 0x20 ADD DUP1 DUP4 GT PUSH2 0xA26 JUMPI DUP3 SWAP1 SUB PUSH1 0x1F AND DUP3 ADD SWAP2 JUMPDEST POP POP POP POP POP SWAP1 DUP1 PUSH1 0x5 ADD DUP1 SLOAD PUSH2 0xA58 SWAP1 PUSH2 0x1398 JUMP JUMPDEST DUP1 PUSH1 0x1F ADD PUSH1 0x20 DUP1 SWAP2 DIV MUL PUSH1 0x20 ADD PUSH1 0x40 MLOAD SWAP1 DUP2 ADD PUSH1 0x40 MSTORE DUP1 SWAP3 SWAP2 SWAP1 DUP2 DUP2 MSTORE PUSH1 0x20 ADD DUP3 DUP1 SLOAD PUSH2 0xA84 SWAP1 PUSH2 0x1398 JUMP JUMPDEST DUP1 ISZERO PUSH2 0xAD1 JUMPI DUP1 PUSH1 0x1F LT PUSH2 0xAA6 JUMPI PUSH2 0x100 DUP1 DUP4 SLOAD DIV MUL DUP4 MSTORE SWAP2 PUSH1 0x20 ADD SWAP2 PUSH2 0xAD1 JUMP JUMPDEST DUP3 ADD SWAP2 SWAP1 PUSH1 0x0 MSTORE PUSH1 0x20 PUSH1 0x0 KECCAK256 SWAP1 JUMPDEST DUP2 SLOAD DUP2 MSTORE SWAP1 PUSH1 0x1 ADD SWAP1 PUSH1 0x20 ADD DUP1 DUP4 GT PUSH2 0xAB4 JUMPI DUP3 SWAP1 SUB PUSH1 0x1F AND DUP3 ADD SWAP2 JUMPDEST POP POP POP POP POP SWAP1 POP DUP7 JUMP JUMPDEST POP DUP1 SLOAD PUSH2 0xAE7 SWAP1 PUSH2 0x1398 JUMP JUMPDEST PUSH1 0x0 DUP3 SSTORE DUP1 PUSH1 0x1F LT PUSH2 0xAF9 JUMPI POP PUSH2 0xB18 JUMP JUMPDEST PUSH1 0x1F ADD PUSH1 0x20 SWAP1 DIV SWAP1 PUSH1 0x0 MSTORE PUSH1 0x20 PUSH1 0x0 KECCAK256 SWAP1 DUP2 ADD SWAP1 PUSH2 0xB17 SWAP2 SWAP1 PUSH2 0xB5B JUMP JUMPDEST JUMPDEST POP JUMP JUMPDEST POP DUP1 SLOAD PUSH2 0xB27 SWAP1 PUSH2 0x1398 JUMP JUMPDEST PUSH1 0x0 DUP3 SSTORE DUP1 PUSH1 0x1F LT PUSH2 0xB39 JUMPI POP PUSH2 0xB58 JUMP JUMPDEST PUSH1 0x1F ADD PUSH1 0x20 SWAP1 DIV SWAP1 PUSH1 0x0 MSTORE PUSH1 0x20 PUSH1 0x0 KECCAK256 SWAP1 DUP2 ADD SWAP1 PUSH2 0xB57 SWAP2 SWAP1 PUSH2 0xB5B JUMP JUMPDEST JUMPDEST POP JUMP JUMPDEST JUMPDEST DUP1 DUP3 GT ISZERO PUSH2 0xB74 JUMPI PUSH1 0x0 DUP2 PUSH1 0x0 SWAP1 SSTORE POP PUSH1 0x1 ADD PUSH2 0xB5C JUMP JUMPDEST POP SWAP1 JUMP JUMPDEST PUSH1 0x0 PUSH1 0x40 MLOAD SWAP1 POP SWAP1 JUMP JUMPDEST PUSH1 0x0 DUP1 REVERT JUMPDEST PUSH1 0x0 DUP1 REVERT JUMPDEST PUSH1 0x0 DUP2 SWAP1 POP SWAP2 SWAP1 POP JUMP JUMPDEST PUSH2 0xB9F DUP2 PUSH2 0xB8C JUMP JUMPDEST DUP2 EQ PUSH2 0xBAA JUMPI PUSH1 0x0 DUP1 REVERT JUMPDEST POP JUMP JUMPDEST PUSH1 0x0 DUP2 CALLDATALOAD SWAP1 POP PUSH2 0xBBC DUP2 PUSH2 0xB96 JUMP JUMPDEST SWAP3 SWAP2 POP POP JUMP JUMPDEST PUSH1 0x0 DUP1 PUSH1 0x40 DUP4 DUP6 SUB SLT ISZERO PUSH2 0xBD9 JUMPI PUSH2 0xBD8 PUSH2 0xB82 JUMP JUMPDEST JUMPDEST PUSH1 0x0 PUSH2 0xBE7 DUP6 DUP3 DUP7 ADD PUSH2 0xBAD JUMP JUMPDEST SWAP3 POP POP PUSH1 0x20 PUSH2 0xBF8 DUP6 DUP3 DUP7 ADD PUSH2 0xBAD JUMP JUMPDEST SWAP2 POP POP SWAP3 POP SWAP3 SWAP1 POP JUMP JUMPDEST PUSH1 0x0 DUP2 SWAP1 POP SWAP2 SWAP1 POP JUMP JUMPDEST PUSH2 0xC15 DUP2 PUSH2 0xC02 JUMP JUMPDEST DUP3 MSTORE POP POP JUMP JUMPDEST PUSH1 0x0 PUSH1 0x20 DUP3 ADD SWAP1 POP PUSH2 0xC30 PUSH1 0x0 DUP4 ADD DUP5 PUSH2 0xC0C JUMP JUMPDEST SWAP3 SWAP2 POP POP JUMP JUMPDEST PUSH1 0x0 PUSH1 0x20 DUP3 DUP5 SUB SLT ISZERO PUSH2 0xC4C JUMPI PUSH2 0xC4B PUSH2 0xB82 JUMP JUMPDEST JUMPDEST PUSH1 0x0 PUSH2 0xC5A DUP5 DUP3 DUP6 ADD PUSH2 0xBAD JUMP JUMPDEST SWAP2 POP POP SWAP3 SWAP2 POP POP JUMP JUMPDEST PUSH1 0x0 DUP2 MLOAD SWAP1 POP SWAP2 SWAP1 POP JUMP JUMPDEST PUSH1 0x0 DUP3 DUP3 MSTORE PUSH1 0x20 DUP3 ADD SWAP1 POP SWAP3 SWAP2 POP POP JUMP JUMPDEST PUSH1 0x0 DUP2 SWAP1 POP PUSH1 0x20 DUP3 ADD SWAP1 POP SWAP2 SWAP1 POP JUMP JUMPDEST PUSH2 0xC98 DUP2 PUSH2 0xC02 JUMP JUMPDEST DUP3 MSTORE POP POP JUMP JUMPDEST PUSH1 0x0 PUSH2 0xCAA DUP4 DUP4 PUSH2 0xC8F JUMP JUMPDEST PUSH1 0x20 DUP4 ADD SWAP1 POP SWAP3 SWAP2 POP POP JUMP JUMPDEST PUSH1 0x0 PUSH1 0x20 DUP3 ADD SWAP1 POP SWAP2 SWAP1 POP JUMP JUMPDEST PUSH1 0x0 PUSH2 0xCCE DUP3 PUSH2 0xC63 JUMP JUMPDEST PUSH2 0xCD8 DUP2 DUP6 PUSH2 0xC6E JUMP JUMPDEST SWAP4 POP PUSH2 0xCE3 DUP4 PUSH2 0xC7F JUMP JUMPDEST DUP1 PUSH1 0x0 JUMPDEST DUP4 DUP2 LT ISZERO PUSH2 0xD14 JUMPI DUP2 MLOAD PUSH2 0xCFB DUP9 DUP3 PUSH2 0xC9E JUMP JUMPDEST SWAP8 POP PUSH2 0xD06 DUP4 PUSH2 0xCB6 JUMP JUMPDEST SWAP3 POP POP PUSH1 0x1 DUP2 ADD SWAP1 POP PUSH2 0xCE7 JUMP JUMPDEST POP DUP6 SWAP4 POP POP POP POP SWAP3 SWAP2 POP POP JUMP JUMPDEST PUSH1 0x0 PUSH1 0x20 DUP3 ADD SWAP1 POP DUP2 DUP2 SUB PUSH1 0x0 DUP4 ADD MSTORE PUSH2 0xD3B DUP2 DUP5 PUSH2 0xCC3 JUMP JUMPDEST SWAP1 POP SWAP3 SWAP2 POP POP JUMP JUMPDEST PUSH2 0xD4C DUP2 PUSH2 0xC02 JUMP JUMPDEST DUP2 EQ PUSH2 0xD57 JUMPI PUSH1 0x0 DUP1 REVERT JUMPDEST POP JUMP JUMPDEST PUSH1 0x0 DUP2 CALLDATALOAD SWAP1 POP PUSH2 0xD69 DUP2 PUSH2 0xD43 JUMP JUMPDEST SWAP3 SWAP2 POP POP JUMP JUMPDEST PUSH1 0x0 PUSH1 0x20 DUP3 DUP5 SUB SLT ISZERO PUSH2 0xD85 JUMPI PUSH2 0xD84 PUSH2 0xB82 JUMP JUMPDEST JUMPDEST PUSH1 0x0 PUSH2 0xD93 DUP5 DUP3 DUP6 ADD PUSH2 0xD5A JUMP JUMPDEST SWAP2 POP POP SWAP3 SWAP2 POP POP JUMP JUMPDEST PUSH1 0x0 DUP2 ISZERO ISZERO SWAP1 POP SWAP2 SWAP1 POP JUMP JUMPDEST PUSH2 0xDB1 DUP2 PUSH2 0xD9C JUMP JUMPDEST DUP3 MSTORE POP POP JUMP JUMPDEST PUSH1 0x0 PUSH1 0x20 DUP3 ADD SWAP1 POP PUSH2 0xDCC PUSH1 0x0 DUP4 ADD DUP5 PUSH2 0xDA8 JUMP JUMPDEST SWAP3 SWAP2 POP POP JUMP JUMPDEST PUSH1 0x0 PUSH20 0xFFFFFFFFFFFFFFFFFFFFFFFFFFFFFFFFFFFFFFFF DUP3 AND SWAP1 POP SWAP2 SWAP1 POP JUMP JUMPDEST PUSH1 0x0 PUSH2 0xDFD DUP3 PUSH2 0xDD2 JUMP JUMPDEST SWAP1 POP SWAP2 SWAP1 POP JUMP JUMPDEST PUSH2 0xE0D DUP2 PUSH2 0xDF2 JUMP JUMPDEST DUP2 EQ PUSH2 0xE18 JUMPI PUSH1 0x0 DUP1 REVERT JUMPDEST POP JUMP JUMPDEST PUSH1 0x0 DUP2 CALLDATALOAD SWAP1 POP PUSH2 0xE2A DUP2 PUSH2 0xE04 JUMP JUMPDEST SWAP3 SWAP2 POP POP JUMP JUMPDEST PUSH1 0x0 DUP1 REVERT JUMPDEST PUSH1 0x0 DUP1 REVERT JUMPDEST PUSH1 0x0 PUSH1 0x1F NOT PUSH1 0x1F DUP4 ADD AND SWAP1 POP SWAP2 SWAP1 POP JUMP JUMPDEST PUSH32 0x4E487B7100000000000000000000000000000000000000000000000000000000 PUSH1 0x0 MSTORE PUSH1 0x41 PUSH1 0x4 MSTORE PUSH1 0x24 PUSH1 0x0 REVERT JUMPDEST PUSH2 0xE83 DUP3 PUSH2 0xE3A JUMP JUMPDEST DUP2 ADD DUP2 DUP2 LT PUSH8 0xFFFFFFFFFFFFFFFF DUP3 GT OR ISZERO PUSH2 0xEA2 JUMPI PUSH2 0xEA1 PUSH2 0xE4B JUMP JUMPDEST JUMPDEST DUP1 PUSH1 0x40 MSTORE POP POP POP JUMP JUMPDEST PUSH1 0x0 PUSH2 0xEB5 PUSH2 0xB78 JUMP JUMPDEST SWAP1 POP PUSH2 0xEC1 DUP3 DUP3 PUSH2 0xE7A JUMP JUMPDEST SWAP2 SWAP1 POP JUMP JUMPDEST PUSH1 0x0 PUSH8 0xFFFFFFFFFFFFFFFF DUP3 GT ISZERO PUSH2 0xEE1 JUMPI PUSH2 0xEE0 PUSH2 0xE4B JUMP JUMPDEST JUMPDEST PUSH2 0xEEA DUP3 PUSH2 0xE3A JUMP JUMPDEST SWAP1 POP PUSH1 0x20 DUP2 ADD SWAP1 POP SWAP2 SWAP1 POP JUMP JUMPDEST DUP3 DUP2 DUP4 CALLDATACOPY PUSH1 0x0 DUP4 DUP4 ADD MSTORE POP POP POP JUMP JUMPDEST PUSH1 0x0 PUSH2 0xF19 PUSH2 0xF14 DUP5 PUSH2 0xEC6 JUMP JUMPDEST PUSH2 0xEAB JUMP JUMPDEST SWAP1 POP DUP3 DUP2 MSTORE PUSH1 0x20 DUP2 ADD DUP5 DUP5 DUP5 ADD GT ISZERO PUSH2 0xF35 JUMPI PUSH2 0xF34 PUSH2 0xE35 JUMP JUMPDEST JUMPDEST PUSH2 0xF40 DUP5 DUP3 DUP6 PUSH2 0xEF7 JUMP JUMPDEST POP SWAP4 SWAP3 POP POP POP JUMP JUMPDEST PUSH1 0x0 DUP3 PUSH1 0x1F DUP4 ADD SLT PUSH2 0xF5D JUMPI PUSH2 0xF5C PUSH2 0xE30 JUMP JUMPDEST JUMPDEST DUP2 CALLDATALOAD PUSH2 0xF6D DUP5 DUP3 PUSH1 0x20 DUP7 ADD PUSH2 0xF06 JUMP JUMPDEST SWAP2 POP POP SWAP3 SWAP2 POP POP JUMP JUMPDEST PUSH1 0x0 PUSH8 0xFFFFFFFFFFFFFFFF DUP3 GT ISZERO PUSH2 0xF91 JUMPI PUSH2 0xF90 PUSH2 0xE4B JUMP JUMPDEST JUMPDEST PUSH2 0xF9A DUP3 PUSH2 0xE3A JUMP JUMPDEST SWAP1 POP PUSH1 0x20 DUP2 ADD SWAP1 POP SWAP2 SWAP1 POP JUMP JUMPDEST PUSH1 0x0 PUSH2 0xFBA PUSH2 0xFB5 DUP5 PUSH2 0xF76 JUMP JUMPDEST PUSH2 0xEAB JUMP JUMPDEST SWAP1 POP DUP3 DUP2 MSTORE PUSH1 0x20 DUP2 ADD DUP5 DUP5 DUP5 ADD GT ISZERO PUSH2 0xFD6 JUMPI PUSH2 0xFD5 PUSH2 0xE35 JUMP JUMPDEST JUMPDEST PUSH2 0xFE1 DUP5 DUP3 DUP6 PUSH2 0xEF7 JUMP JUMPDEST POP SWAP4 SWAP3 POP POP POP JUMP JUMPDEST PUSH1 0x0 DUP3 PUSH1 0x1F DUP4 ADD SLT PUSH2 0xFFE JUMPI PUSH2 0xFFD PUSH2 0xE30 JUMP JUMPDEST JUMPDEST DUP2 CALLDATALOAD PUSH2 0x100E DUP5 DUP3 PUSH1 0x20 DUP7 ADD PUSH2 0xFA7 JUMP JUMPDEST SWAP2 POP POP SWAP3 SWAP2 POP POP JUMP JUMPDEST PUSH1 0x0 DUP1 PUSH1 0x0 DUP1 PUSH1 0x0 DUP1 PUSH1 0xC0 DUP8 DUP10 SUB SLT ISZERO PUSH2 0x1034 JUMPI PUSH2 0x1033 PUSH2 0xB82 JUMP JUMPDEST JUMPDEST PUSH1 0x0 PUSH2 0x1042 DUP10 DUP3 DUP11 ADD PUSH2 0xBAD JUMP JUMPDEST SWAP7 POP POP PUSH1 0x20 PUSH2 0x1053 DUP10 DUP3 DUP11 ADD PUSH2 0xBAD JUMP JUMPDEST SWAP6 POP POP PUSH1 0x40 PUSH2 0x1064 DUP10 DUP3 DUP11 ADD PUSH2 0xE1B JUMP JUMPDEST SWAP5 POP POP PUSH1 0x60 DUP8 ADD CALLDATALOAD PUSH8 0xFFFFFFFFFFFFFFFF DUP2 GT ISZERO PUSH2 0x1085 JUMPI PUSH2 0x1084 PUSH2 0xB87 JUMP JUMPDEST JUMPDEST PUSH2 0x1091 DUP10 DUP3 DUP11 ADD PUSH2 0xF48 JUMP JUMPDEST SWAP4 POP POP PUSH1 0x80 DUP8 ADD CALLDATALOAD PUSH8 0xFFFFFFFFFFFFFFFF DUP2 GT ISZERO PUSH2 0x10B2 JUMPI PUSH2 0x10B1 PUSH2 0xB87 JUMP JUMPDEST JUMPDEST PUSH2 0x10BE DUP10 DUP3 DUP11 ADD PUSH2 0xF48 JUMP JUMPDEST SWAP3 POP POP PUSH1 0xA0 DUP8 ADD CALLDATALOAD PUSH8 0xFFFFFFFFFFFFFFFF DUP2 GT ISZERO PUSH2 0x10DF JUMPI PUSH2 0x10DE PUSH2 0xB87 JUMP JUMPDEST JUMPDEST PUSH2 0x10EB DUP10 DUP3 DUP11 ADD PUSH2 0xFE9 JUMP JUMPDEST SWAP2 POP POP SWAP3 SWAP6 POP SWAP3 SWAP6 POP SWAP3 SWAP6 JUMP JUMPDEST PUSH2 0x1101 DUP2 PUSH2 0xB8C JUMP JUMPDEST DUP3 MSTORE POP POP JUMP JUMPDEST PUSH2 0x1110 DUP2 PUSH2 0xDF2 JUMP JUMPDEST DUP3 MSTORE POP POP JUMP JUMPDEST PUSH1 0x0 DUP2 MLOAD SWAP1 POP SWAP2 SWAP1 POP JUMP JUMPDEST PUSH1 0x0 DUP3 DUP3 MSTORE PUSH1 0x20 DUP3 ADD SWAP1 POP SWAP3 SWAP2 POP POP JUMP JUMPDEST PUSH1 0x0 JUMPDEST DUP4 DUP2 LT ISZERO PUSH2 0x1150 JUMPI DUP1 DUP3 ADD MLOAD DUP2 DUP5 ADD MSTORE PUSH1 0x20 DUP2 ADD SWAP1 POP PUSH2 0x1135 JUMP JUMPDEST PUSH1 0x0 DUP5 DUP5 ADD MSTORE POP POP POP POP JUMP JUMPDEST PUSH1 0x0 PUSH2 0x1167 DUP3 PUSH2 0x1116 JUMP JUMPDEST PUSH2 0x1171 DUP2 DUP6 PUSH2 0x1121 JUMP JUMPDEST SWAP4 POP PUSH2 0x1181 DUP2 DUP6 PUSH1 0x20 DUP7 ADD PUSH2 0x1132 JUMP JUMPDEST PUSH2 0x118A DUP2 PUSH2 0xE3A JUMP JUMPDEST DUP5 ADD SWAP2 POP POP SWAP3 SWAP2 POP POP JUMP JUMPDEST PUSH1 0x0 DUP2 MLOAD SWAP1 POP SWAP2 SWAP1 POP JUMP JUMPDEST PUSH1 0x0 DUP3 DUP3 MSTORE PUSH1 0x20 DUP3 ADD SWAP1 POP SWAP3 SWAP2 POP POP JUMP JUMPDEST PUSH1 0x0 PUSH2 0x11BC DUP3 PUSH2 0x1195 JUMP JUMPDEST PUSH2 0x11C6 DUP2 DUP6 PUSH2 0x11A0 JUMP JUMPDEST SWAP4 POP PUSH2 0x11D6 DUP2 DUP6 PUSH1 0x20 DUP7 ADD PUSH2 0x1132 JUMP JUMPDEST PUSH2 0x11DF DUP2 PUSH2 0xE3A JUMP JUMPDEST DUP5 ADD SWAP2 POP POP SWAP3 SWAP2 POP POP JUMP JUMPDEST PUSH1 0x0 PUSH1 0xC0 DUP3 ADD SWAP1 POP PUSH2 0x11FF PUSH1 0x0 DUP4 ADD DUP10 PUSH2 0x10F8 JUMP JUMPDEST PUSH2 0x120C PUSH1 0x20 DUP4 ADD DUP9 PUSH2 0x10F8 JUMP JUMPDEST PUSH2 0x1219 PUSH1 0x40 DUP4 ADD DUP8 PUSH2 0x1107 JUMP JUMPDEST DUP2 DUP2 SUB PUSH1 0x60 DUP4 ADD MSTORE PUSH2 0x122B DUP2 DUP7 PUSH2 0x115C JUMP JUMPDEST SWAP1 POP DUP2 DUP2 SUB PUSH1 0x80 DUP4 ADD MSTORE PUSH2 0x123F DUP2 DUP6 PUSH2 0x115C JUMP JUMPDEST SWAP1 POP DUP2 DUP2 SUB PUSH1 0xA0 DUP4 ADD MSTORE PUSH2 0x1253 DUP2 DUP5 PUSH2 0x11B1 JUMP JUMPDEST SWAP1 POP SWAP8 SWAP7 POP POP POP POP POP POP POP JUMP JUMPDEST PUSH32 0x4E487B7100000000000000000000000000000000000000000000000000000000 PUSH1 0x0 MSTORE PUSH1 0x32 PUSH1 0x4 MSTORE PUSH1 0x24 PUSH1 0x0 REVERT JUMPDEST PUSH32 0x4E487B7100000000000000000000000000000000000000000000000000000000 PUSH1 0x0 MSTORE PUSH1 0x11 PUSH1 0x4 MSTORE PUSH1 0x24 PUSH1 0x0 REVERT JUMPDEST PUSH1 0x0 PUSH2 0x12C9 DUP3 PUSH2 0xB8C JUMP JUMPDEST SWAP2 POP PUSH2 0x12D4 DUP4 PUSH2 0xB8C JUMP JUMPDEST SWAP3 POP DUP3 DUP3 SUB SWAP1 POP DUP2 DUP2 GT ISZERO PUSH2 0x12EC JUMPI PUSH2 0x12EB PUSH2 0x128F JUMP JUMPDEST JUMPDEST SWAP3 SWAP2 POP POP JUMP JUMPDEST PUSH32 0x4E487B7100000000000000000000000000000000000000000000000000000000 PUSH1 0x0 MSTORE PUSH1 0x31 PUSH1 0x4 MSTORE PUSH1 0x24 PUSH1 0x0 REVERT JUMPDEST PUSH1 0x0 PUSH2 0x132C DUP3 PUSH2 0xB8C JUMP JUMPDEST SWAP2 POP PUSH32 0xFFFFFFFFFFFFFFFFFFFFFFFFFFFFFFFFFFFFFFFFFFFFFFFFFFFFFFFFFFFFFFFF DUP3 SUB PUSH2 0x135E JUMPI PUSH2 0x135D PUSH2 0x128F JUMP JUMPDEST JUMPDEST PUSH1 0x1 DUP3 ADD SWAP1 POP SWAP2 SWAP1 POP JUMP JUMPDEST PUSH32 0x4E487B7100000000000000000000000000000000000000000000000000000000 PUSH1 0x0 MSTORE PUSH1 0x22 PUSH1 0x4 MSTORE PUSH1 0x24 PUSH1 0x0 REVERT JUMPDEST PUSH1 0x0 PUSH1 0x2 DUP3 DIV SWAP1 POP PUSH1 0x1 DUP3 AND DUP1 PUSH2 0x13B0 JUMPI PUSH1 0x7F DUP3 AND SWAP2 POP JUMPDEST PUSH1 0x20 DUP3 LT DUP2 SUB PUSH2 0x13C3 JUMPI PUSH2 0x13C2 PUSH2 0x1369 JUMP JUMPDEST JUMPDEST POP SWAP2 SWAP1 POP JUMP JUMPDEST PUSH1 0x0 DUP2 SWAP1 POP DUP2 PUSH1 0x0 MSTORE PUSH1 0x20 PUSH1 0x0 KECCAK256 SWAP1 POP SWAP2 SWAP1 POP JUMP JUMPDEST PUSH1 0x0 DUP2 SLOAD PUSH2 0x13EB DUP2 PUSH2 0x1398 JUMP JUMPDEST PUSH2 0x13F5 DUP2 DUP7 PUSH2 0x1121 JUMP JUMPDEST SWAP5 POP PUSH1 0x1 DUP3 AND PUSH1 0x0 DUP2 EQ PUSH2 0x1410 JUMPI PUSH1 0x1 DUP2 EQ PUSH2 0x1426 JUMPI PUSH2 0x1459 JUMP JUMPDEST PUSH1 0xFF NOT DUP4 AND DUP7 MSTORE DUP2 ISZERO ISZERO PUSH1 0x20 MUL DUP7 ADD SWAP4 POP PUSH2 0x1459 JUMP JUMPDEST PUSH2 0x142F DUP6 PUSH2 0x13C9 JUMP JUMPDEST PUSH1 0x0 JUMPDEST DUP4 DUP2 LT ISZERO PUSH2 0x1451 JUMPI DUP2 SLOAD DUP2 DUP10 ADD MSTORE PUSH1 0x1 DUP3 ADD SWAP2 POP PUSH1 0x20 DUP2 ADD SWAP1 POP PUSH2 0x1432 JUMP JUMPDEST DUP1 DUP9 ADD SWAP6 POP POP POP JUMPDEST POP POP POP SWAP3 SWAP2 POP POP JUMP JUMPDEST PUSH1 0x0 DUP2 SWAP1 POP DUP2 PUSH1 0x0 MSTORE PUSH1 0x20 PUSH1 0x0 KECCAK256 SWAP1 POP SWAP2 SWAP1 POP JUMP JUMPDEST PUSH1 0x0 DUP2 SLOAD PUSH2 0x1484 DUP2 PUSH2 0x1398 JUMP JUMPDEST PUSH2 0x148E DUP2 DUP7 PUSH2 0x11A0 JUMP JUMPDEST SWAP5 POP PUSH1 0x1 DUP3 AND PUSH1 0x0 DUP2 EQ PUSH2 0x14A9 JUMPI PUSH1 0x1 DUP2 EQ PUSH2 0x14BF JUMPI PUSH2 0x14F2 JUMP JUMPDEST PUSH1 0xFF NOT DUP4 AND DUP7 MSTORE DUP2 ISZERO ISZERO PUSH1 0x20 MUL DUP7 ADD SWAP4 POP PUSH2 0x14F2 JUMP JUMPDEST PUSH2 0x14C8 DUP6 PUSH2 0x1462 JUMP JUMPDEST PUSH1 0x0 JUMPDEST DUP4 DUP2 LT ISZERO PUSH2 0x14EA JUMPI DUP2 SLOAD DUP2 DUP10 ADD MSTORE PUSH1 0x1 DUP3 ADD SWAP2 POP PUSH1 0x20 DUP2 ADD SWAP1 POP PUSH2 0x14CB JUMP JUMPDEST DUP1 DUP9 ADD SWAP6 POP POP POP JUMPDEST POP POP POP SWAP3 SWAP2 POP POP JUMP JUMPDEST PUSH1 0x0 PUSH1 0x80 DUP3 ADD SWAP1 POP PUSH2 0x1510 PUSH1 0x0 DUP4 ADD DUP8 PUSH2 0x10F8 JUMP JUMPDEST DUP2 DUP2 SUB PUSH1 0x20 DUP4 ADD MSTORE PUSH2 0x1522 DUP2 DUP7 PUSH2 0x13DE JUMP JUMPDEST SWAP1 POP DUP2 DUP2 SUB PUSH1 0x40 DUP4 ADD MSTORE PUSH2 0x1536 DUP2 DUP6 PUSH2 0x13DE JUMP JUMPDEST SWAP1 POP DUP2 DUP2 SUB PUSH1 0x60 DUP4 ADD MSTORE PUSH2 0x154A DUP2 DUP5 PUSH2 0x1477 JUMP JUMPDEST SWAP1 POP SWAP6 SWAP5 POP POP POP POP POP JUMP JUMPDEST PUSH1 0x0 DUP2 PUSH1 0x60 SHL SWAP1 POP SWAP2 SWAP1 POP JUMP JUMPDEST PUSH1 0x0 PUSH2 0x156D DUP3 PUSH2 0x1555 JUMP JUMPDEST SWAP1 POP SWAP2 SWAP1 POP JUMP JUMPDEST PUSH1 0x0 PUSH2 0x157F DUP3 PUSH2 0x1562 JUMP JUMPDEST SWAP1 POP SWAP2 SWAP1 POP JUMP JUMPDEST PUSH2 0x1597 PUSH2 0x1592 DUP3 PUSH2 0xDF2 JUMP JUMPDEST PUSH2 0x1574 JUMP JUMPDEST DUP3 MSTORE POP POP JUMP JUMPDEST PUSH1 0x0 DUP2 SWAP1 POP SWAP2 SWAP1 POP JUMP JUMPDEST PUSH2 0x15B8 PUSH2 0x15B3 DUP3 PUSH2 0xB8C JUMP JUMPDEST PUSH2 0x159D JUMP JUMPDEST DUP3 MSTORE POP POP JUMP JUMPDEST PUSH1 0x0 PUSH2 0x15CA DUP3 DUP6 PUSH2 0x1586 JUMP JUMPDEST PUSH1 0x14 DUP3 ADD SWAP2 POP PUSH2 0x15DA DUP3 DUP5 PUSH2 0x15A7 JUMP JUMPDEST PUSH1 0x20 DUP3 ADD SWAP2 POP DUP2 SWAP1 POP SWAP4 SWAP3 POP POP POP JUMP JUMPDEST PUSH1 0x0 PUSH1 0x20 PUSH1 0x1F DUP4 ADD DIV SWAP1 POP SWAP2 SWAP1 POP JUMP JUMPDEST PUSH1 0x0 DUP3 DUP3 SHL SWAP1 POP SWAP3 SWAP2 POP POP JUMP JUMPDEST PUSH1 0x0 PUSH1 0x8 DUP4 MUL PUSH2 0x1637 PUSH32 0xFFFFFFFFFFFFFFFFFFFFFFFFFFFFFFFFFFFFFFFFFFFFFFFFFFFFFFFFFFFFFFFF DUP3 PUSH2 0x15FA JUMP JUMPDEST PUSH2 0x1641 DUP7 DUP4 PUSH2 0x15FA JUMP JUMPDEST SWAP6 POP DUP1 NOT DUP5 AND SWAP4 POP DUP1 DUP7 AND DUP5 OR SWAP3 POP POP POP SWAP4 SWAP3 POP POP POP JUMP JUMPDEST PUSH1 0x0 DUP2 SWAP1 POP SWAP2 SWAP1 POP JUMP JUMPDEST PUSH1 0x0 PUSH2 0x167E PUSH2 0x1679 PUSH2 0x1674 DUP5 PUSH2 0xB8C JUMP JUMPDEST PUSH2 0x1659 JUMP JUMPDEST PUSH2 0xB8C JUMP JUMPDEST SWAP1 POP SWAP2 SWAP1 POP JUMP JUMPDEST PUSH1 0x0 DUP2 SWAP1 POP SWAP2 SWAP1 POP JUMP JUMPDEST PUSH2 0x1698 DUP4 PUSH2 0x1663 JUMP JUMPDEST PUSH2 0x16AC PUSH2 0x16A4 DUP3 PUSH2 0x1685 JUMP JUMPDEST DUP5 DUP5 SLOAD PUSH2 0x1607 JUMP JUMPDEST DUP3 SSTORE POP POP POP POP JUMP JUMPDEST PUSH1 0x0 SWAP1 JUMP JUMPDEST PUSH2 0x16C1 PUSH2 0x16B4 JUMP JUMPDEST PUSH2 0x16CC DUP2 DUP5 DUP5 PUSH2 0x168F JUMP JUMPDEST POP POP POP JUMP JUMPDEST JUMPDEST DUP2 DUP2 LT ISZERO PUSH2 0x16F0 JUMPI PUSH2 0x16E5 PUSH1 0x0 DUP3 PUSH2 0x16B9 JUMP JUMPDEST PUSH1 0x1 DUP2 ADD SWAP1 POP PUSH2 0x16D2 JUMP JUMPDEST POP POP JUMP JUMPDEST PUSH1 0x1F DUP3 GT ISZERO PUSH2 0x1735 JUMPI PUSH2 0x1706 DUP2 PUSH2 0x13C9 JUMP JUMPDEST PUSH2 0x170F DUP5 PUSH2 0x15EA JUMP JUMPDEST DUP2 ADD PUSH1 0x20 DUP6 LT ISZERO PUSH2 0x171E JUMPI DUP2 SWAP1 POP JUMPDEST PUSH2 0x1732 PUSH2 0x172A DUP6 PUSH2 0x15EA JUMP JUMPDEST DUP4 ADD DUP3 PUSH2 0x16D1 JUMP JUMPDEST POP POP JUMPDEST POP POP POP JUMP JUMPDEST PUSH1 0x0 DUP3 DUP3 SHR SWAP1 POP SWAP3 SWAP2 POP POP JUMP JUMPDEST PUSH1 0x0 PUSH2 0x1758 PUSH1 0x0 NOT DUP5 PUSH1 0x8 MUL PUSH2 0x173A JUMP JUMPDEST NOT DUP1 DUP4 AND SWAP2 POP POP SWAP3 SWAP2 POP POP JUMP JUMPDEST PUSH1 0x0 PUSH2 0x1771 DUP4 DUP4 PUSH2 0x1747 JUMP JUMPDEST SWAP2 POP DUP3 PUSH1 0x2 MUL DUP3 OR SWAP1 POP SWAP3 SWAP2 POP POP JUMP JUMPDEST PUSH2 0x178A DUP3 PUSH2 0x1116 JUMP JUMPDEST PUSH8 0xFFFFFFFFFFFFFFFF DUP2 GT ISZERO PUSH2 0x17A3 JUMPI PUSH2 0x17A2 PUSH2 0xE4B JUMP JUMPDEST JUMPDEST PUSH2 0x17AD DUP3 SLOAD PUSH2 0x1398 JUMP JUMPDEST PUSH2 0x17B8 DUP3 DUP3 DUP6 PUSH2 0x16F4 JUMP JUMPDEST PUSH1 0x0 PUSH1 0x20 SWAP1 POP PUSH1 0x1F DUP4 GT PUSH1 0x1 DUP2 EQ PUSH2 0x17EB JUMPI PUSH1 0x0 DUP5 ISZERO PUSH2 0x17D9 JUMPI DUP3 DUP8 ADD MLOAD SWAP1 POP JUMPDEST PUSH2 0x17E3 DUP6 DUP3 PUSH2 0x1765 JUMP JUMPDEST DUP7 SSTORE POP PUSH2 0x184B JUMP JUMPDEST PUSH1 0x1F NOT DUP5 AND PUSH2 0x17F9 DUP7 PUSH2 0x13C9 JUMP JUMPDEST PUSH1 0x0 JUMPDEST DUP3 DUP2 LT ISZERO PUSH2 0x1821 JUMPI DUP5 DUP10 ADD MLOAD DUP3 SSTORE PUSH1 0x1 DUP3 ADD SWAP2 POP PUSH1 0x20 DUP6 ADD SWAP5 POP PUSH1 0x20 DUP2 ADD SWAP1 POP PUSH2 0x17FC JUMP JUMPDEST DUP7 DUP4 LT ISZERO PUSH2 0x183E JUMPI DUP5 DUP10 ADD MLOAD PUSH2 0x183A PUSH1 0x1F DUP10 AND DUP3 PUSH2 0x1747 JUMP JUMPDEST DUP4 SSTORE POP JUMPDEST PUSH1 0x1 PUSH1 0x2 DUP9 MUL ADD DUP9 SSTORE POP POP POP JUMPDEST POP POP POP POP POP POP JUMP JUMPDEST PUSH1 0x1F DUP3 GT ISZERO PUSH2 0x1894 JUMPI PUSH2 0x1865 DUP2 PUSH2 0x1462 JUMP JUMPDEST PUSH2 0x186E DUP5 PUSH2 0x15EA JUMP JUMPDEST DUP2 ADD PUSH1 0x20 DUP6 LT ISZERO PUSH2 0x187D JUMPI DUP2 SWAP1 POP JUMPDEST PUSH2 0x1891 PUSH2 0x1889 DUP6 PUSH2 0x15EA JUMP JUMPDEST DUP4 ADD DUP3 PUSH2 0x16D1 JUMP JUMPDEST POP POP JUMPDEST POP POP POP JUMP JUMPDEST PUSH2 0x18A2 DUP3 PUSH2 0x1195 JUMP JUMPDEST PUSH8 0xFFFFFFFFFFFFFFFF DUP2 GT ISZERO PUSH2 0x18BB JUMPI PUSH2 0x18BA PUSH2 0xE4B JUMP JUMPDEST JUMPDEST PUSH2 0x18C5 DUP3 SLOAD PUSH2 0x1398 JUMP JUMPDEST PUSH2 0x18D0 DUP3 DUP3 DUP6 PUSH2 0x1853 JUMP JUMPDEST PUSH1 0x0 PUSH1 0x20 SWAP1 POP PUSH1 0x1F DUP4 GT PUSH1 0x1 DUP2 EQ PUSH2 0x1903 JUMPI PUSH1 0x0 DUP5 ISZERO PUSH2 0x18F1 JUMPI DUP3 DUP8 ADD MLOAD SWAP1 POP JUMPDEST PUSH2 0x18FB DUP6 DUP3 PUSH2 0x1765 JUMP JUMPDEST DUP7 SSTORE POP PUSH2 0x1963 JUMP JUMPDEST PUSH1 0x1F NOT DUP5 AND PUSH2 0x1911 DUP7 PUSH2 0x1462 JUMP JUMPDEST PUSH1 0x0 JUMPDEST DUP3 DUP2 LT ISZERO PUSH2 0x1939 JUMPI DUP5 DUP10 ADD MLOAD DUP3 SSTORE PUSH1 0x1 DUP3 ADD SWAP2 POP PUSH1 0x20 DUP6 ADD SWAP5 POP PUSH1 0x20 DUP2 ADD SWAP1 POP PUSH2 0x1914 JUMP JUMPDEST DUP7 DUP4 LT ISZERO PUSH2 0x1956 JUMPI DUP5 DUP10 ADD MLOAD PUSH2 0x1952 PUSH1 0x1F DUP10 AND DUP3 PUSH2 0x1747 JUMP JUMPDEST DUP4 SSTORE POP JUMPDEST PUSH1 0x1 PUSH1 0x2 DUP9 MUL ADD DUP9 SSTORE POP POP POP JUMPDEST POP POP POP POP POP POP JUMP JUMPDEST PUSH1 0x0 PUSH1 0x80 DUP3 ADD SWAP1 POP PUSH2 0x1980 PUSH1 0x0 DUP4 ADD DUP8 PUSH2 0x10F8 JUMP JUMPDEST PUSH2 0x198D PUSH1 0x20 DUP4 ADD DUP7 PUSH2 0xC0C JUMP JUMPDEST DUP2 DUP2 SUB PUSH1 0x40 DUP4 ADD MSTORE PUSH2 0x199F DUP2 DUP6 PUSH2 0x115C JUMP JUMPDEST SWAP1 POP DUP2 DUP2 SUB PUSH1 0x60 DUP4 ADD MSTORE PUSH2 0x19B3 DUP2 DUP5 PUSH2 0x11B1 JUMP JUMPDEST SWAP1 POP SWAP6 SWAP5 POP POP POP POP POP JUMP INVALID LOG2 PUSH5 0x6970667358 0x22 SLT KECCAK256 0xE4 PUSH13 0x517C6AB47F20D0135F638B5CB2 0xF9 GAS 0xC0 0x23 LOG4 SHR 0xDC SWAP14 0xBF SLT SWAP14 0xAF 0xE3 RETURN 0x2F EXTCODESIZE MSTORE PUSH5 0x736F6C6343 STOP ADDMOD ISZERO STOP CALLER "},"gasEstimates":{"creation":{"codeDepositCost":"1328800","executionCost":"1383","totalCost":"1330183"},"external":{"addClaim(uint256,uint256,address,bytes,bytes,string)":"infinite","claimIdsByType(uint256,uint256)":"infinite","claims(bytes32)":"infinite","getClaim(bytes32)":"infinite","getClaimIdsByType(uint256)":"infinite","removeClaim(bytes32)":"infinite"}},"methodIdentifiers":{"addClaim(uint256,uint256,address,bytes,bytes,string)":"b1a34e0d","claimIdsByType(uint256,uint256)":"1de2b131","claims(bytes32)":"eff0f592","getClaim(bytes32)":"c9100bcb","getClaimIdsByType(uint256)":"262b54f5","removeClaim(bytes32)":"4eee424a"}},"storageLayout":{"storage":[{"astId":1782,"contract":"contracts/ERC735.sol:ERC735","label":"claims","offset":0,"slot":"0","type":"t_mapping(t_bytes32,t_struct(Claim)1777_storage)"},{"astId":1787,"contract":"contracts/ERC735.sol:ERC735","label":"claimIdsByType","offset":0,"slot":"1","type":"t_mapping(t_uint256,t_array(t_bytes32)dyn_storage)"}],"types":{"t_address":{"encoding":"inplace","label":"address","numberOfBytes":"20"},"t_array(t_bytes32)dyn_storage":{"base":"t_bytes32","encoding":"dynamic_array","label":"bytes32[]","numberOfBytes":"32"},"t_bytes32":{"encoding":"inplace","label":"bytes32","numberOfBytes":"32"},"t_bytes_storage":{"encoding":"bytes","label":"bytes","numberOfBytes":"32"},"t_mapping(t_bytes32,t_struct(Claim)1777_storage)":{"encoding":"mapping","key":"t_bytes32","label":"mapping(bytes32 => struct ERC735.Claim)","numberOfBytes":"32","value":"t_struct(Claim)1777_storage"},"t_mapping(t_uint256,t_array(t_bytes32)dyn_storage)":{"encoding":"mapping","key":"t_uint256","label":"mapping(uint256 => bytes32[])","numberOfBytes":"32","value":"t_array(t_bytes32)dyn_storage"},"t_string_storage":{"encoding":"bytes","label":"string","numberOfBytes":"32"},"t_struct(Claim)1777_storage":{"encoding":"inplace","label":"struct ERC735.Claim","members":[{"astId":1766,"contract":"contracts/ERC735.sol:ERC735","label":"claimType","offset":0,"slot":"0","type":"t_uint256"},{"astId":1768,"contract":"contracts/ERC735.sol:ERC735","label":"scheme","offset":0,"slot":"1","type":"t_uint256"},{"astId":1770,"contract":"contracts/ERC735.sol:ERC735","label":"issuer","offset":0,"slot":"2","type":"t_address"},{"astId":1772,"contract":"contracts/ERC735.sol:ERC735","label":"signature","offset":0,"slot":"3","type":"t_bytes_storage"},{"astId":1774,"contract":"contracts/ERC735.sol:ERC735","label":"data","offset":0,"slot":"4","type":"t_bytes_storage"},{"astId":1776,"contract":"contracts/ERC735.sol:ERC735","label":"uri","offset":0,"slot":"5","type":"t_string_storage"}],"numberOfBytes":"192"},"t_uint256":{"encoding":"inplace","label":"uint256","numberOfBytes":"32"}}},"userdoc":{"kind":"user","methods":{},"version":1}}}}