{
  "_format": "hh-sol-artifact-1",
  "contractName": "MessageStorage",
  "sourceName": "contracts/MessageStorage.sol",
  "abi": [
    {
      "anonymous": false,
      "inputs": [
        {
          "indexed": true,
          "internalType": "address",
          "name": "sender",
          "type": "address"
        },
        {
          "indexed": true,
          "internalType": "address",
          "name": "recipient",
          "type": "address"
        },
        {
          "indexed": false,
          "internalType": "string",
          "name": "content",
          "type": "string"
        }
      ],
      "name": "MessageSent",
      "type": "event"
    },
    {
      "inputs": [
        {
          "internalType": "bytes32",
          "name": "",
          "type": "bytes32"
        },
        {
          "internalType": "uint256",
          "name": "",
          "type": "uint256"
        }
      ],
      "name": "allMessages",
      "outputs": [
        {
          "internalType": "address",
          "name": "sender",
          "type": "address"
        },
        {
          "internalType": "uint256",
          "name": "timestamp",
          "type": "uint256"
        },
        {
          "internalType": "string",
          "name": "content",
          "type": "string"
        }
      ],
      "stateMutability": "view",
      "type": "function"
    },
    {
      "inputs": [
        {
          "internalType": "uint256",
          "name": "_messageIndex",
          "type": "uint256"
        }
      ],
      "name": "deleteMessage",
      "outputs": [],
      "stateMutability": "nonpayable",
      "type": "function"
    },
    {
      "inputs": [],
      "name": "getMyMessages",
      "outputs": [
        {
          "components": [
            {
              "internalType": "address",
              "name": "sender",
              "type": "address"
            },
            {
              "internalType": "address",
              "name": "recipient",
              "type": "address"
            },
            {
              "internalType": "string",
              "name": "content",
              "type": "string"
            },
            {
              "internalType": "uint256",
              "name": "timestamp",
              "type": "uint256"
            },
            {
              "internalType": "bool",
              "name": "isRead",
              "type": "bool"
            },
            {
              "internalType": "bool",
              "name": "isDeleted",
              "type": "bool"
            }
          ],
          "internalType": "struct MessageStorage.Message[]",
          "name": "",
          "type": "tuple[]"
        }
      ],
      "stateMutability": "view",
      "type": "function"
    },
    {
      "inputs": [
        {
          "internalType": "uint256",
          "name": "_messageIndex",
          "type": "uint256"
        }
      ],
      "name": "markAsRead",
      "outputs": [],
      "stateMutability": "nonpayable",
      "type": "function"
    },
    {
      "inputs": [
        {
          "internalType": "address",
          "name": "_friendAddress",
          "type": "address"
        }
      ],
      "name": "readFriendMessage",
      "outputs": [
        {
          "components": [
            {
              "internalType": "address",
              "name": "sender",
              "type": "address"
            },
            {
              "internalType": "uint256",
              "name": "timestamp",
              "type": "uint256"
            },
            {
              "internalType": "string",
              "name": "content",
              "type": "string"
            }
          ],
          "internalType": "struct MessageStorage.shortMessage[]",
          "name": "",
          "type": "tuple[]"
        }
      ],
      "stateMutability": "view",
      "type": "function"
    },
    {
      "inputs": [
        {
          "internalType": "address",
          "name": "_recipient",
          "type": "address"
        },
        {
          "internalType": "string",
          "name": "_content",
          "type": "string"
        }
      ],
      "name": "sendMessage",
      "outputs": [],
      "stateMutability": "nonpayable",
      "type": "function"
    },
    {
      "inputs": [
        {
          "internalType": "address",
          "name": "",
          "type": "address"
        },
        {
          "internalType": "uint256",
          "name": "",
          "type": "uint256"
        }
      ],
      "name": "userMessages",
      "outputs": [
        {
          "internalType": "address",
          "name": "sender",
          "type": "address"
        },
        {
          "internalType": "address",
          "name": "recipient",
          "type": "address"
        },
        {
          "internalType": "string",
          "name": "content",
          "type": "string"
        },
        {
          "internalType": "uint256",
          "name": "timestamp",
          "type": "uint256"
        },
        {
          "internalType": "bool",
          "name": "isRead",
          "type": "bool"
        },
        {
          "internalType": "bool",
          "name": "isDeleted",
          "type": "bool"
        }
      ],
      "stateMutability": "view",
      "type": "function"
    }
  ],
  "bytecode": "0x608060405234801561001057600080fd5b506119f1806100206000396000f3fe608060405234801561001057600080fd5b506004361061007d5760003560e01c80637c100c361161005b5780637c100c36146101025780639428cda31461011e578063b888690a14610153578063de6f24bb1461016f5761007d565b80634ab27284146100825780635e7339ce146100b25780637694eaa6146100d0575b600080fd5b61009c60048036038101906100979190610e4e565b61018b565b6040516100a99190611045565b60405180910390f35b6100ba6102fe565b6040516100c791906111cd565b60405180910390f35b6100ea60048036038101906100e59190611251565b610517565b6040516100f9939291906112f9565b60405180910390f35b61011c60048036038101906101179190611337565b610606565b005b61013860048036038101906101339190611364565b610706565b60405161014a969594939291906113b3565b60405180910390f35b61016d60048036038101906101689190611337565b610841565b005b61018960048036038101906101849190611550565b610941565b005b606060006101993384610da9565b905060016000828152602001908152602001600020805480602002602001604051908101604052809291908181526020016000905b828210156102f257838290600052602060002090600302016040518060600160405290816000820160009054906101000a900473ffffffffffffffffffffffffffffffffffffffff1673ffffffffffffffffffffffffffffffffffffffff1673ffffffffffffffffffffffffffffffffffffffff16815260200160018201548152602001600282018054610261906115db565b80601f016020809104026020016040519081016040528092919081815260200182805461028d906115db565b80156102da5780601f106102af576101008083540402835291602001916102da565b820191906000526020600020905b8154815290600101906020018083116102bd57829003601f168201915b505050505081525050815260200190600101906101ce565b50505050915050919050565b60606000803373ffffffffffffffffffffffffffffffffffffffff1673ffffffffffffffffffffffffffffffffffffffff168152602001908152602001600020805480602002602001604051908101604052809291908181526020016000905b8282101561050e57838290600052602060002090600502016040518060c00160405290816000820160009054906101000a900473ffffffffffffffffffffffffffffffffffffffff1673ffffffffffffffffffffffffffffffffffffffff1673ffffffffffffffffffffffffffffffffffffffff1681526020016001820160009054906101000a900473ffffffffffffffffffffffffffffffffffffffff1673ffffffffffffffffffffffffffffffffffffffff1673ffffffffffffffffffffffffffffffffffffffff16815260200160028201805461043d906115db565b80601f0160208091040260200160405190810160405280929190818152602001828054610469906115db565b80156104b65780601f1061048b576101008083540402835291602001916104b6565b820191906000526020600020905b81548152906001019060200180831161049957829003601f168201915b50505050508152602001600382015481526020016004820160009054906101000a900460ff161515151581526020016004820160019054906101000a900460ff1615151515815250508152602001906001019061035e565b50505050905090565b6001602052816000526040600020818154811061053357600080fd5b9060005260206000209060030201600091509150508060000160009054906101000a900473ffffffffffffffffffffffffffffffffffffffff1690806001015490806002018054610583906115db565b80601f01602080910402602001604051908101604052809291908181526020018280546105af906115db565b80156105fc5780601f106105d1576101008083540402835291602001916105fc565b820191906000526020600020905b8154815290600101906020018083116105df57829003601f168201915b5050505050905083565b6000803373ffffffffffffffffffffffffffffffffffffffff1673ffffffffffffffffffffffffffffffffffffffff168152602001908152602001600020805490508110610689576040517f08c379a000000000000000000000000000000000000000000000000000000000815260040161068090611658565b60405180910390fd5b60016000803373ffffffffffffffffffffffffffffffffffffffff1673ffffffffffffffffffffffffffffffffffffffff16815260200190815260200160002082815481106106db576106da611678565b5b906000526020600020906005020160040160006101000a81548160ff02191690831515021790555050565b6000602052816000526040600020818154811061072257600080fd5b9060005260206000209060050201600091509150508060000160009054906101000a900473ffffffffffffffffffffffffffffffffffffffff16908060010160009054906101000a900473ffffffffffffffffffffffffffffffffffffffff1690806002018054610792906115db565b80601f01602080910402602001604051908101604052809291908181526020018280546107be906115db565b801561080b5780601f106107e05761010080835404028352916020019161080b565b820191906000526020600020905b8154815290600101906020018083116107ee57829003601f168201915b5050505050908060030154908060040160009054906101000a900460ff16908060040160019054906101000a900460ff16905086565b6000803373ffffffffffffffffffffffffffffffffffffffff1673ffffffffffffffffffffffffffffffffffffffff1681526020019081526020016000208054905081106108c4576040517f08c379a00000000000000000000000000000000000000000000000000000000081526004016108bb90611658565b60405180910390fd5b60016000803373ffffffffffffffffffffffffffffffffffffffff1673ffffffffffffffffffffffffffffffffffffffff168152602001908152602001600020828154811061091657610915611678565b5b906000526020600020906005020160040160016101000a81548160ff02191690831515021790555050565b60006040518060c001604052803373ffffffffffffffffffffffffffffffffffffffff1681526020018473ffffffffffffffffffffffffffffffffffffffff168152602001838152602001428152602001600015158152602001600015158152509050600060405180606001604052803373ffffffffffffffffffffffffffffffffffffffff16815260200142815260200184815250905060006109e53386610da9565b90506000803373ffffffffffffffffffffffffffffffffffffffff1673ffffffffffffffffffffffffffffffffffffffff16815260200190815260200160002083908060018154018082558091505060019003906000526020600020906005020160009091909190915060008201518160000160006101000a81548173ffffffffffffffffffffffffffffffffffffffff021916908373ffffffffffffffffffffffffffffffffffffffff16021790555060208201518160010160006101000a81548173ffffffffffffffffffffffffffffffffffffffff021916908373ffffffffffffffffffffffffffffffffffffffff1602179055506040820151816002019081610af29190611853565b506060820151816003015560808201518160040160006101000a81548160ff02191690831515021790555060a08201518160040160016101000a81548160ff02191690831515021790555050506000808673ffffffffffffffffffffffffffffffffffffffff1673ffffffffffffffffffffffffffffffffffffffff16815260200190815260200160002083908060018154018082558091505060019003906000526020600020906005020160009091909190915060008201518160000160006101000a81548173ffffffffffffffffffffffffffffffffffffffff021916908373ffffffffffffffffffffffffffffffffffffffff16021790555060208201518160010160006101000a81548173ffffffffffffffffffffffffffffffffffffffff021916908373ffffffffffffffffffffffffffffffffffffffff1602179055506040820151816002019081610c4a9190611853565b506060820151816003015560808201518160040160006101000a81548160ff02191690831515021790555060a08201518160040160016101000a81548160ff02191690831515021790555050506001600082815260200190815260200160002082908060018154018082558091505060019003906000526020600020906003020160009091909190915060008201518160000160006101000a81548173ffffffffffffffffffffffffffffffffffffffff021916908373ffffffffffffffffffffffffffffffffffffffff160217905550602082015181600101556040820151816002019081610d3a9190611853565b5050508473ffffffffffffffffffffffffffffffffffffffff163373ffffffffffffffffffffffffffffffffffffffff167fe2cf7446a11cbcd14cd99ea3a1bb77fb7653a64f4064d660140b5100d001e13c86604051610d9a9190611925565b60405180910390a35050505050565b60008282604051602001610dbe92919061198f565b60405160208183030381529060405280519060200120905092915050565b6000604051905090565b600080fd5b600080fd5b600073ffffffffffffffffffffffffffffffffffffffff82169050919050565b6000610e1b82610df0565b9050919050565b610e2b81610e10565b8114610e3657600080fd5b50565b600081359050610e4881610e22565b92915050565b600060208284031215610e6457610e63610de6565b5b6000610e7284828501610e39565b91505092915050565b600081519050919050565b600082825260208201905092915050565b6000819050602082019050919050565b610eb081610e10565b82525050565b6000819050919050565b610ec981610eb6565b82525050565b600081519050919050565b600082825260208201905092915050565b60005b83811015610f09578082015181840152602081019050610eee565b60008484015250505050565b6000601f19601f8301169050919050565b6000610f3182610ecf565b610f3b8185610eda565b9350610f4b818560208601610eeb565b610f5481610f15565b840191505092915050565b6000606083016000830151610f776000860182610ea7565b506020830151610f8a6020860182610ec0565b5060408301518482036040860152610fa28282610f26565b9150508091505092915050565b6000610fbb8383610f5f565b905092915050565b6000602082019050919050565b6000610fdb82610e7b565b610fe58185610e86565b935083602082028501610ff785610e97565b8060005b8581101561103357848403895281516110148582610faf565b945061101f83610fc3565b925060208a01995050600181019050610ffb565b50829750879550505050505092915050565b6000602082019050818103600083015261105f8184610fd0565b905092915050565b600081519050919050565b600082825260208201905092915050565b6000819050602082019050919050565b60008115159050919050565b6110a881611093565b82525050565b600060c0830160008301516110c66000860182610ea7565b5060208301516110d96020860182610ea7565b50604083015184820360408601526110f18282610f26565b91505060608301516111066060860182610ec0565b506080830151611119608086018261109f565b5060a083015161112c60a086018261109f565b508091505092915050565b600061114383836110ae565b905092915050565b6000602082019050919050565b600061116382611067565b61116d8185611072565b93508360208202850161117f85611083565b8060005b858110156111bb578484038952815161119c8582611137565b94506111a78361114b565b925060208a01995050600181019050611183565b50829750879550505050505092915050565b600060208201905081810360008301526111e78184611158565b905092915050565b6000819050919050565b611202816111ef565b811461120d57600080fd5b50565b60008135905061121f816111f9565b92915050565b61122e81610eb6565b811461123957600080fd5b50565b60008135905061124b81611225565b92915050565b6000806040838503121561126857611267610de6565b5b600061127685828601611210565b92505060206112878582860161123c565b9150509250929050565b61129a81610e10565b82525050565b6112a981610eb6565b82525050565b600082825260208201905092915050565b60006112cb82610ecf565b6112d581856112af565b93506112e5818560208601610eeb565b6112ee81610f15565b840191505092915050565b600060608201905061130e6000830186611291565b61131b60208301856112a0565b818103604083015261132d81846112c0565b9050949350505050565b60006020828403121561134d5761134c610de6565b5b600061135b8482850161123c565b91505092915050565b6000806040838503121561137b5761137a610de6565b5b600061138985828601610e39565b925050602061139a8582860161123c565b9150509250929050565b6113ad81611093565b82525050565b600060c0820190506113c86000830189611291565b6113d56020830188611291565b81810360408301526113e781876112c0565b90506113f660608301866112a0565b61140360808301856113a4565b61141060a08301846113a4565b979650505050505050565b600080fd5b600080fd5b7f4e487b7100000000000000000000000000000000000000000000000000000000600052604160045260246000fd5b61145d82610f15565b810181811067ffffffffffffffff8211171561147c5761147b611425565b5b80604052505050565b600061148f610ddc565b905061149b8282611454565b919050565b600067ffffffffffffffff8211156114bb576114ba611425565b5b6114c482610f15565b9050602081019050919050565b82818337600083830152505050565b60006114f36114ee846114a0565b611485565b90508281526020810184848401111561150f5761150e611420565b5b61151a8482856114d1565b509392505050565b600082601f8301126115375761153661141b565b5b81356115478482602086016114e0565b91505092915050565b6000806040838503121561156757611566610de6565b5b600061157585828601610e39565b925050602083013567ffffffffffffffff81111561159657611595610deb565b5b6115a285828601611522565b9150509250929050565b7f4e487b7100000000000000000000000000000000000000000000000000000000600052602260045260246000fd5b600060028204905060018216806115f357607f821691505b602082108103611606576116056115ac565b5b50919050565b7f496e76616c6964206d65737361676520696e6465780000000000000000000000600082015250565b60006116426015836112af565b915061164d8261160c565b602082019050919050565b6000602082019050818103600083015261167181611635565b9050919050565b7f4e487b7100000000000000000000000000000000000000000000000000000000600052603260045260246000fd5b60008190508160005260206000209050919050565b60006020601f8301049050919050565b600082821b905092915050565b6000600883026117097fffffffffffffffffffffffffffffffffffffffffffffffffffffffffffffffff826116cc565b61171386836116cc565b95508019841693508086168417925050509392505050565b6000819050919050565b600061175061174b61174684610eb6565b61172b565b610eb6565b9050919050565b6000819050919050565b61176a83611735565b61177e61177682611757565b8484546116d9565b825550505050565b600090565b611793611786565b61179e818484611761565b505050565b5b818110156117c2576117b760008261178b565b6001810190506117a4565b5050565b601f821115611807576117d8816116a7565b6117e1846116bc565b810160208510156117f0578190505b6118046117fc856116bc565b8301826117a3565b50505b505050565b600082821c905092915050565b600061182a6000198460080261180c565b1980831691505092915050565b60006118438383611819565b9150826002028217905092915050565b61185c82610ecf565b67ffffffffffffffff81111561187557611874611425565b5b61187f82546115db565b61188a8282856117c6565b600060209050601f8311600181146118bd57600084156118ab578287015190505b6118b58582611837565b86555061191d565b601f1984166118cb866116a7565b60005b828110156118f3578489015182556001820191506020850194506020810190506118ce565b86831015611910578489015161190c601f891682611819565b8355505b6001600288020188555050505b505050505050565b6000602082019050818103600083015261193f81846112c0565b905092915050565b60008160601b9050919050565b600061195f82611947565b9050919050565b600061197182611954565b9050919050565b61198961198482610e10565b611966565b82525050565b600061199b8285611978565b6014820191506119ab8284611978565b601482019150819050939250505056fea264697066735822122054e60b08d77bdbd9ce638121f5c605669b563757698b9856ae35b4211e65325a64736f6c63430008150033",
  "linkReferences": {},
  "deployedLinkReferences": {}
}