{
  "_format": "hh-sol-artifact-1",
  "contractName": "ERC735",
  "sourceName": "contracts/ERC735.sol",
  "abi": [
    {
      "anonymous": false,
      "inputs": [
        {
          "indexed": true,
          "internalType": "bytes32",
          "name": "claimId",
          "type": "bytes32"
        },
        {
          "indexed": true,
          "internalType": "uint256",
          "name": "claimType",
          "type": "uint256"
        },
        {
          "indexed": true,
          "internalType": "address",
          "name": "issuer",
          "type": "address"
        },
        {
          "indexed": false,
          "internalType": "uint256",
          "name": "signatureType",
          "type": "uint256"
        },
        {
          "indexed": false,
          "internalType": "bytes32",
          "name": "signature",
          "type": "bytes32"
        },
        {
          "indexed": false,
          "internalType": "bytes",
          "name": "claim",
          "type": "bytes"
        },
        {
          "indexed": false,
          "internalType": "string",
          "name": "uri",
          "type": "string"
        }
      ],
      "name": "ClaimAdded",
      "type": "event"
    },
    {
      "anonymous": false,
      "inputs": [
        {
          "indexed": true,
          "internalType": "bytes32",
          "name": "claimId",
          "type": "bytes32"
        },
        {
          "indexed": true,
          "internalType": "uint256",
          "name": "claimType",
          "type": "uint256"
        },
        {
          "indexed": false,
          "internalType": "uint256",
          "name": "scheme",
          "type": "uint256"
        },
        {
          "indexed": true,
          "internalType": "address",
          "name": "issuer",
          "type": "address"
        },
        {
          "indexed": false,
          "internalType": "bytes",
          "name": "signature",
          "type": "bytes"
        },
        {
          "indexed": false,
          "internalType": "bytes",
          "name": "data",
          "type": "bytes"
        },
        {
          "indexed": false,
          "internalType": "string",
          "name": "uri",
          "type": "string"
        }
      ],
      "name": "ClaimChanged",
      "type": "event"
    },
    {
      "anonymous": false,
      "inputs": [
        {
          "indexed": true,
          "internalType": "bytes32",
          "name": "claimId",
          "type": "bytes32"
        },
        {
          "indexed": true,
          "internalType": "uint256",
          "name": "claimType",
          "type": "uint256"
        },
        {
          "indexed": false,
          "internalType": "uint256",
          "name": "scheme",
          "type": "uint256"
        },
        {
          "indexed": true,
          "internalType": "address",
          "name": "issuer",
          "type": "address"
        },
        {
          "indexed": false,
          "internalType": "bytes",
          "name": "signature",
          "type": "bytes"
        },
        {
          "indexed": false,
          "internalType": "bytes",
          "name": "data",
          "type": "bytes"
        },
        {
          "indexed": false,
          "internalType": "string",
          "name": "uri",
          "type": "string"
        }
      ],
      "name": "ClaimRemoved",
      "type": "event"
    },
    {
      "anonymous": false,
      "inputs": [
        {
          "indexed": true,
          "internalType": "uint256",
          "name": "claimRequestId",
          "type": "uint256"
        },
        {
          "indexed": true,
          "internalType": "uint256",
          "name": "claimType",
          "type": "uint256"
        },
        {
          "indexed": false,
          "internalType": "uint256",
          "name": "scheme",
          "type": "uint256"
        },
        {
          "indexed": true,
          "internalType": "address",
          "name": "issuer",
          "type": "address"
        },
        {
          "indexed": false,
          "internalType": "bytes",
          "name": "signature",
          "type": "bytes"
        },
        {
          "indexed": false,
          "internalType": "bytes",
          "name": "data",
          "type": "bytes"
        },
        {
          "indexed": false,
          "internalType": "string",
          "name": "uri",
          "type": "string"
        }
      ],
      "name": "ClaimRequested",
      "type": "event"
    },
    {
      "inputs": [
        {
          "internalType": "uint256",
          "name": "_claimType",
          "type": "uint256"
        },
        {
          "internalType": "uint256",
          "name": "_scheme",
          "type": "uint256"
        },
        {
          "internalType": "address",
          "name": "_issuer",
          "type": "address"
        },
        {
          "internalType": "bytes",
          "name": "_signature",
          "type": "bytes"
        },
        {
          "internalType": "bytes",
          "name": "_data",
          "type": "bytes"
        },
        {
          "internalType": "string",
          "name": "_uri",
          "type": "string"
        }
      ],
      "name": "addClaim",
      "outputs": [
        {
          "internalType": "bytes32",
          "name": "",
          "type": "bytes32"
        }
      ],
      "stateMutability": "nonpayable",
      "type": "function"
    },
    {
      "inputs": [
        {
          "internalType": "uint256",
          "name": "",
          "type": "uint256"
        },
        {
          "internalType": "uint256",
          "name": "",
          "type": "uint256"
        }
      ],
      "name": "claimIdsByType",
      "outputs": [
        {
          "internalType": "bytes32",
          "name": "",
          "type": "bytes32"
        }
      ],
      "stateMutability": "view",
      "type": "function"
    },
    {
      "inputs": [
        {
          "internalType": "bytes32",
          "name": "",
          "type": "bytes32"
        }
      ],
      "name": "claims",
      "outputs": [
        {
          "internalType": "uint256",
          "name": "claimType",
          "type": "uint256"
        },
        {
          "internalType": "uint256",
          "name": "scheme",
          "type": "uint256"
        },
        {
          "internalType": "address",
          "name": "issuer",
          "type": "address"
        },
        {
          "internalType": "bytes",
          "name": "signature",
          "type": "bytes"
        },
        {
          "internalType": "bytes",
          "name": "data",
          "type": "bytes"
        },
        {
          "internalType": "string",
          "name": "uri",
          "type": "string"
        }
      ],
      "stateMutability": "view",
      "type": "function"
    },
    {
      "inputs": [
        {
          "internalType": "bytes32",
          "name": "_claimId",
          "type": "bytes32"
        }
      ],
      "name": "getClaim",
      "outputs": [
        {
          "internalType": "uint256",
          "name": "claimType",
          "type": "uint256"
        },
        {
          "internalType": "uint256",
          "name": "scheme",
          "type": "uint256"
        },
        {
          "internalType": "address",
          "name": "issuer",
          "type": "address"
        },
        {
          "internalType": "bytes",
          "name": "signature",
          "type": "bytes"
        },
        {
          "internalType": "bytes",
          "name": "data",
          "type": "bytes"
        },
        {
          "internalType": "string",
          "name": "uri",
          "type": "string"
        }
      ],
      "stateMutability": "view",
      "type": "function"
    },
    {
      "inputs": [
        {
          "internalType": "uint256",
          "name": "_claimType",
          "type": "uint256"
        }
      ],
      "name": "getClaimIdsByType",
      "outputs": [
        {
          "internalType": "bytes32[]",
          "name": "claimIds",
          "type": "bytes32[]"
        }
      ],
      "stateMutability": "view",
      "type": "function"
    },
    {
      "inputs": [
        {
          "internalType": "bytes32",
          "name": "_claimId",
          "type": "bytes32"
        }
      ],
      "name": "removeClaim",
      "outputs": [
        {
          "internalType": "bool",
          "name": "success",
          "type": "bool"
        }
      ],
      "stateMutability": "nonpayable",
      "type": "function"
    }
  ],
  "bytecode": "0x608060405234801561001057600080fd5b506119f4806100206000396000f3fe608060405234801561001057600080fd5b50600436106100625760003560e01c80631de2b13114610067578063262b54f5146100975780634eee424a146100c7578063b1a34e0d146100f7578063c9100bcb14610127578063eff0f5921461015c575b600080fd5b610081600480360381019061007c9190610bc2565b610191565b60405161008e9190610c1b565b60405180910390f35b6100b160048036038101906100ac9190610c36565b6101c2565b6040516100be9190610d21565b60405180910390f35b6100e160048036038101906100dc9190610d6f565b61022d565b6040516100ee9190610db7565b60405180910390f35b610111600480360381019061010c9190611017565b61050a565b60405161011e9190610c1b565b60405180910390f35b610141600480360381019061013c9190610d6f565b6106d2565b604051610153969594939291906111ea565b60405180910390f35b61017660048036038101906101719190610d6f565b6108e7565b604051610188969594939291906111ea565b60405180910390f35b600160205281600052604060002081815481106101ad57600080fd5b90600052602060002001600091509150505481565b60606001600083815260200190815260200160002080548060200260200160405190810160405280929190818152602001828054801561022157602002820191906000526020600020905b81548152602001906001019080831161020d575b50505050509050919050565b600080600083815260200190815260200160002060020160009054906101000a900473ffffffffffffffffffffffffffffffffffffffff1673ffffffffffffffffffffffffffffffffffffffff163373ffffffffffffffffffffffffffffffffffffffff161461029c57600080fd5b60008083815260200190815260200160002060008082016000905560018201600090556002820160006101000a81549073ffffffffffffffffffffffffffffffffffffffff02191690556003820160006102f69190610adb565b6004820160006103069190610adb565b6005820160006103169190610b1b565b50506000806000848152602001908152602001600020600001549050600060016000838152602001908152602001600020905060005b8180549050811015610422578482828154811061036c5761036b611260565b5b90600052602060002001540361040f576001828054905061038d91906112be565b81146103e35781600183805490506103a591906112be565b815481106103b6576103b5611260565b5b90600052602060002001548282815481106103d4576103d3611260565b5b90600052602060002001819055505b818054806103f4576103f36112f2565b5b60019003818190600052602060002001600090559055610422565b808061041a90611321565b91505061034c565b5060008085815260200190815260200160002060020160009054906101000a900473ffffffffffffffffffffffffffffffffffffffff1673ffffffffffffffffffffffffffffffffffffffff1682857f3cf57863a89432c61c4a27073c6ee39e8a764bff5a05aebfbcdcdc80b2e6130a600080898152602001908152602001600020600101546000808a81526020019081526020016000206003016000808b81526020019081526020016000206004016000808c81526020019081526020016000206005016040516104f794939291906114fb565b60405180910390a4600192505050919050565b60008085886040516020016105209291906115be565b6040516020818303038152906040528051906020012090506040518060c001604052808981526020018881526020018773ffffffffffffffffffffffffffffffffffffffff16815260200186815260200185815260200184815250600080838152602001908152602001600020600082015181600001556020820151816001015560408201518160020160006101000a81548173ffffffffffffffffffffffffffffffffffffffff021916908373ffffffffffffffffffffffffffffffffffffffff16021790555060608201518160030190816105fd9190611781565b5060808201518160040190816106139190611781565b5060a08201518160050190816106299190611899565b50905050600160008981526020019081526020016000208190806001815401808255809150506001900390600052602060002001600090919091909150558573ffffffffffffffffffffffffffffffffffffffff1688827fe77b8a549307a1a60bdd8c5fa64ede3706a3db2ac23c61d87b66af36eacf07f38a898051906020012089896040516106bc949392919061196b565b60405180910390a4809150509695505050505050565b6000806000606080606060008060008981526020019081526020016000209050806000015481600101548260020160009054906101000a900473ffffffffffffffffffffffffffffffffffffffff1683600301846004018560050182805461073990611398565b80601f016020809104026020016040519081016040528092919081815260200182805461076590611398565b80156107b25780601f10610787576101008083540402835291602001916107b2565b820191906000526020600020905b81548152906001019060200180831161079557829003601f168201915b505050505092508180546107c590611398565b80601f01602080910402602001604051908101604052809291908181526020018280546107f190611398565b801561083e5780601f106108135761010080835404028352916020019161083e565b820191906000526020600020905b81548152906001019060200180831161082157829003601f168201915b5050505050915080805461085190611398565b80601f016020809104026020016040519081016040528092919081815260200182805461087d90611398565b80156108ca5780601f1061089f576101008083540402835291602001916108ca565b820191906000526020600020905b8154815290600101906020018083116108ad57829003601f168201915b505050505090509650965096509650965096505091939550919395565b60006020528060005260406000206000915090508060000154908060010154908060020160009054906101000a900473ffffffffffffffffffffffffffffffffffffffff169080600301805461093c90611398565b80601f016020809104026020016040519081016040528092919081815260200182805461096890611398565b80156109b55780601f1061098a576101008083540402835291602001916109b5565b820191906000526020600020905b81548152906001019060200180831161099857829003601f168201915b5050505050908060040180546109ca90611398565b80601f01602080910402602001604051908101604052809291908181526020018280546109f690611398565b8015610a435780601f10610a1857610100808354040283529160200191610a43565b820191906000526020600020905b815481529060010190602001808311610a2657829003601f168201915b505050505090806005018054610a5890611398565b80601f0160208091040260200160405190810160405280929190818152602001828054610a8490611398565b8015610ad15780601f10610aa657610100808354040283529160200191610ad1565b820191906000526020600020905b815481529060010190602001808311610ab457829003601f168201915b5050505050905086565b508054610ae790611398565b6000825580601f10610af95750610b18565b601f016020900490600052602060002090810190610b179190610b5b565b5b50565b508054610b2790611398565b6000825580601f10610b395750610b58565b601f016020900490600052602060002090810190610b579190610b5b565b5b50565b5b80821115610b74576000816000905550600101610b5c565b5090565b6000604051905090565b600080fd5b600080fd5b6000819050919050565b610b9f81610b8c565b8114610baa57600080fd5b50565b600081359050610bbc81610b96565b92915050565b60008060408385031215610bd957610bd8610b82565b5b6000610be785828601610bad565b9250506020610bf885828601610bad565b9150509250929050565b6000819050919050565b610c1581610c02565b82525050565b6000602082019050610c306000830184610c0c565b92915050565b600060208284031215610c4c57610c4b610b82565b5b6000610c5a84828501610bad565b91505092915050565b600081519050919050565b600082825260208201905092915050565b6000819050602082019050919050565b610c9881610c02565b82525050565b6000610caa8383610c8f565b60208301905092915050565b6000602082019050919050565b6000610cce82610c63565b610cd88185610c6e565b9350610ce383610c7f565b8060005b83811015610d14578151610cfb8882610c9e565b9750610d0683610cb6565b925050600181019050610ce7565b5085935050505092915050565b60006020820190508181036000830152610d3b8184610cc3565b905092915050565b610d4c81610c02565b8114610d5757600080fd5b50565b600081359050610d6981610d43565b92915050565b600060208284031215610d8557610d84610b82565b5b6000610d9384828501610d5a565b91505092915050565b60008115159050919050565b610db181610d9c565b82525050565b6000602082019050610dcc6000830184610da8565b92915050565b600073ffffffffffffffffffffffffffffffffffffffff82169050919050565b6000610dfd82610dd2565b9050919050565b610e0d81610df2565b8114610e1857600080fd5b50565b600081359050610e2a81610e04565b92915050565b600080fd5b600080fd5b6000601f19601f8301169050919050565b7f4e487b7100000000000000000000000000000000000000000000000000000000600052604160045260246000fd5b610e8382610e3a565b810181811067ffffffffffffffff82111715610ea257610ea1610e4b565b5b80604052505050565b6000610eb5610b78565b9050610ec18282610e7a565b919050565b600067ffffffffffffffff821115610ee157610ee0610e4b565b5b610eea82610e3a565b9050602081019050919050565b82818337600083830152505050565b6000610f19610f1484610ec6565b610eab565b905082815260208101848484011115610f3557610f34610e35565b5b610f40848285610ef7565b509392505050565b600082601f830112610f5d57610f5c610e30565b5b8135610f6d848260208601610f06565b91505092915050565b600067ffffffffffffffff821115610f9157610f90610e4b565b5b610f9a82610e3a565b9050602081019050919050565b6000610fba610fb584610f76565b610eab565b905082815260208101848484011115610fd657610fd5610e35565b5b610fe1848285610ef7565b509392505050565b600082601f830112610ffe57610ffd610e30565b5b813561100e848260208601610fa7565b91505092915050565b60008060008060008060c0878903121561103457611033610b82565b5b600061104289828a01610bad565b965050602061105389828a01610bad565b955050604061106489828a01610e1b565b945050606087013567ffffffffffffffff81111561108557611084610b87565b5b61109189828a01610f48565b935050608087013567ffffffffffffffff8111156110b2576110b1610b87565b5b6110be89828a01610f48565b92505060a087013567ffffffffffffffff8111156110df576110de610b87565b5b6110eb89828a01610fe9565b9150509295509295509295565b61110181610b8c565b82525050565b61111081610df2565b82525050565b600081519050919050565b600082825260208201905092915050565b60005b83811015611150578082015181840152602081019050611135565b60008484015250505050565b600061116782611116565b6111718185611121565b9350611181818560208601611132565b61118a81610e3a565b840191505092915050565b600081519050919050565b600082825260208201905092915050565b60006111bc82611195565b6111c681856111a0565b93506111d6818560208601611132565b6111df81610e3a565b840191505092915050565b600060c0820190506111ff60008301896110f8565b61120c60208301886110f8565b6112196040830187611107565b818103606083015261122b818661115c565b9050818103608083015261123f818561115c565b905081810360a083015261125381846111b1565b9050979650505050505050565b7f4e487b7100000000000000000000000000000000000000000000000000000000600052603260045260246000fd5b7f4e487b7100000000000000000000000000000000000000000000000000000000600052601160045260246000fd5b60006112c982610b8c565b91506112d483610b8c565b92508282039050818111156112ec576112eb61128f565b5b92915050565b7f4e487b7100000000000000000000000000000000000000000000000000000000600052603160045260246000fd5b600061132c82610b8c565b91507fffffffffffffffffffffffffffffffffffffffffffffffffffffffffffffffff820361135e5761135d61128f565b5b600182019050919050565b7f4e487b7100000000000000000000000000000000000000000000000000000000600052602260045260246000fd5b600060028204905060018216806113b057607f821691505b6020821081036113c3576113c2611369565b5b50919050565b60008190508160005260206000209050919050565b600081546113eb81611398565b6113f58186611121565b94506001821660008114611410576001811461142657611459565b60ff198316865281151560200286019350611459565b61142f856113c9565b60005b8381101561145157815481890152600182019150602081019050611432565b808801955050505b50505092915050565b60008190508160005260206000209050919050565b6000815461148481611398565b61148e81866111a0565b945060018216600081146114a957600181146114bf576114f2565b60ff1983168652811515602002860193506114f2565b6114c885611462565b60005b838110156114ea578154818901526001820191506020810190506114cb565b808801955050505b50505092915050565b600060808201905061151060008301876110f8565b818103602083015261152281866113de565b9050818103604083015261153681856113de565b9050818103606083015261154a8184611477565b905095945050505050565b60008160601b9050919050565b600061156d82611555565b9050919050565b600061157f82611562565b9050919050565b61159761159282610df2565b611574565b82525050565b6000819050919050565b6115b86115b382610b8c565b61159d565b82525050565b60006115ca8285611586565b6014820191506115da82846115a7565b6020820191508190509392505050565b60006020601f8301049050919050565b600082821b905092915050565b6000600883026116377fffffffffffffffffffffffffffffffffffffffffffffffffffffffffffffffff826115fa565b61164186836115fa565b95508019841693508086168417925050509392505050565b6000819050919050565b600061167e61167961167484610b8c565b611659565b610b8c565b9050919050565b6000819050919050565b61169883611663565b6116ac6116a482611685565b848454611607565b825550505050565b600090565b6116c16116b4565b6116cc81848461168f565b505050565b5b818110156116f0576116e56000826116b9565b6001810190506116d2565b5050565b601f82111561173557611706816113c9565b61170f846115ea565b8101602085101561171e578190505b61173261172a856115ea565b8301826116d1565b50505b505050565b600082821c905092915050565b60006117586000198460080261173a565b1980831691505092915050565b60006117718383611747565b9150826002028217905092915050565b61178a82611116565b67ffffffffffffffff8111156117a3576117a2610e4b565b5b6117ad8254611398565b6117b88282856116f4565b600060209050601f8311600181146117eb57600084156117d9578287015190505b6117e38582611765565b86555061184b565b601f1984166117f9866113c9565b60005b82811015611821578489015182556001820191506020850194506020810190506117fc565b8683101561183e578489015161183a601f891682611747565b8355505b6001600288020188555050505b505050505050565b601f8211156118945761186581611462565b61186e846115ea565b8101602085101561187d578190505b611891611889856115ea565b8301826116d1565b50505b505050565b6118a282611195565b67ffffffffffffffff8111156118bb576118ba610e4b565b5b6118c58254611398565b6118d0828285611853565b600060209050601f83116001811461190357600084156118f1578287015190505b6118fb8582611765565b865550611963565b601f19841661191186611462565b60005b8281101561193957848901518255600182019150602085019450602081019050611914565b868310156119565784890151611952601f891682611747565b8355505b6001600288020188555050505b505050505050565b600060808201905061198060008301876110f8565b61198d6020830186610c0c565b818103604083015261199f818561115c565b905081810360608301526119b381846111b1565b90509594505050505056fea2646970667358221220e46c517c6ab47f20d0135f638b5cb2f95ac023a41cdc9dbf129dafe3f32f3b5264736f6c63430008150033",
  "linkReferences": {},
  "deployedLinkReferences": {}
}