{
  "address": "0x5B7731140eee5FD3038A7fd2B013F2e683470362",
  "abi": [
    {
      "anonymous": false,
      "inputs": [
        {
          "indexed": true,
          "internalType": "address",
          "name": "sender",
          "type": "address"
        },
        {
          "indexed": true,
          "internalType": "address",
          "name": "recipient",
          "type": "address"
        },
        {
          "indexed": false,
          "internalType": "string",
          "name": "content",
          "type": "string"
        }
      ],
      "name": "MessageSent",
      "type": "event"
    },
    {
      "inputs": [
        {
          "internalType": "uint256",
          "name": "_messageIndex",
          "type": "uint256"
        }
      ],
      "name": "deleteMessage",
      "outputs": [],
      "stateMutability": "nonpayable",
      "type": "function"
    },
    {
      "inputs": [],
      "name": "getMyMessages",
      "outputs": [
        {
          "components": [
            {
              "internalType": "address",
              "name": "sender",
              "type": "address"
            },
            {
              "internalType": "address",
              "name": "recipient",
              "type": "address"
            },
            {
              "internalType": "string",
              "name": "content",
              "type": "string"
            },
            {
              "internalType": "uint256",
              "name": "timestamp",
              "type": "uint256"
            },
            {
              "internalType": "bool",
              "name": "isRead",
              "type": "bool"
            },
            {
              "internalType": "bool",
              "name": "isDeleted",
              "type": "bool"
            }
          ],
          "internalType": "struct MessageStorage.Message[]",
          "name": "",
          "type": "tuple[]"
        }
      ],
      "stateMutability": "view",
      "type": "function"
    },
    {
      "inputs": [
        {
          "internalType": "uint256",
          "name": "_messageIndex",
          "type": "uint256"
        }
      ],
      "name": "markAsRead",
      "outputs": [],
      "stateMutability": "nonpayable",
      "type": "function"
    },
    {
      "inputs": [
        {
          "internalType": "address",
          "name": "_recipient",
          "type": "address"
        },
        {
          "internalType": "string",
          "name": "_content",
          "type": "string"
        }
      ],
      "name": "sendMessage",
      "outputs": [],
      "stateMutability": "nonpayable",
      "type": "function"
    },
    {
      "inputs": [
        {
          "internalType": "address",
          "name": "",
          "type": "address"
        },
        {
          "internalType": "uint256",
          "name": "",
          "type": "uint256"
        }
      ],
      "name": "userMessages",
      "outputs": [
        {
          "internalType": "address",
          "name": "sender",
          "type": "address"
        },
        {
          "internalType": "address",
          "name": "recipient",
          "type": "address"
        },
        {
          "internalType": "string",
          "name": "content",
          "type": "string"
        },
        {
          "internalType": "uint256",
          "name": "timestamp",
          "type": "uint256"
        },
        {
          "internalType": "bool",
          "name": "isRead",
          "type": "bool"
        },
        {
          "internalType": "bool",
          "name": "isDeleted",
          "type": "bool"
        }
      ],
      "stateMutability": "view",
      "type": "function"
    }
  ],
  "transactionHash": "0xd95339eab161df4eb9c7ef920069d5ba366551c08702bf24d83a39456328ecb9",
  "args": [],
  "numDeployments": 1,
  "solcInputHash": "766ccf26d35fedcabff9415cfa80cfd5",
  "bytecode": "0x608060405234801561001057600080fd5b50611360806100206000396000f3fe608060405234801561001057600080fd5b50600436106100575760003560e01c80635e7339ce1461005c5780637c100c361461007a5780639428cda314610096578063b888690a146100cb578063de6f24bb146100e7575b600080fd5b610064610103565b6040516100719190610c24565b60405180910390f35b610094600480360381019061008f9190610c86565b61031c565b005b6100b060048036038101906100ab9190610cdf565b61041c565b6040516100c296959493929190610d96565b60405180910390f35b6100e560048036038101906100e09190610c86565b610557565b005b61010160048036038101906100fc9190610f33565b610657565b005b60606000803373ffffffffffffffffffffffffffffffffffffffff1673ffffffffffffffffffffffffffffffffffffffff168152602001908152602001600020805480602002602001604051908101604052809291908181526020016000905b8282101561031357838290600052602060002090600502016040518060c00160405290816000820160009054906101000a900473ffffffffffffffffffffffffffffffffffffffff1673ffffffffffffffffffffffffffffffffffffffff1673ffffffffffffffffffffffffffffffffffffffff1681526020016001820160009054906101000a900473ffffffffffffffffffffffffffffffffffffffff1673ffffffffffffffffffffffffffffffffffffffff1673ffffffffffffffffffffffffffffffffffffffff16815260200160028201805461024290610fbe565b80601f016020809104026020016040519081016040528092919081815260200182805461026e90610fbe565b80156102bb5780601f10610290576101008083540402835291602001916102bb565b820191906000526020600020905b81548152906001019060200180831161029e57829003601f168201915b50505050508152602001600382015481526020016004820160009054906101000a900460ff161515151581526020016004820160019054906101000a900460ff16151515158152505081526020019060010190610163565b50505050905090565b6000803373ffffffffffffffffffffffffffffffffffffffff1673ffffffffffffffffffffffffffffffffffffffff16815260200190815260200160002080549050811061039f576040517f08c379a00000000000000000000000000000000000000000000000000000000081526004016103969061103b565b60405180910390fd5b60016000803373ffffffffffffffffffffffffffffffffffffffff1673ffffffffffffffffffffffffffffffffffffffff16815260200190815260200160002082815481106103f1576103f061105b565b5b906000526020600020906005020160040160006101000a81548160ff02191690831515021790555050565b6000602052816000526040600020818154811061043857600080fd5b9060005260206000209060050201600091509150508060000160009054906101000a900473ffffffffffffffffffffffffffffffffffffffff16908060010160009054906101000a900473ffffffffffffffffffffffffffffffffffffffff16908060020180546104a890610fbe565b80601f01602080910402602001604051908101604052809291908181526020018280546104d490610fbe565b80156105215780601f106104f657610100808354040283529160200191610521565b820191906000526020600020905b81548152906001019060200180831161050457829003601f168201915b5050505050908060030154908060040160009054906101000a900460ff16908060040160019054906101000a900460ff16905086565b6000803373ffffffffffffffffffffffffffffffffffffffff1673ffffffffffffffffffffffffffffffffffffffff1681526020019081526020016000208054905081106105da576040517f08c379a00000000000000000000000000000000000000000000000000000000081526004016105d19061103b565b60405180910390fd5b60016000803373ffffffffffffffffffffffffffffffffffffffff1673ffffffffffffffffffffffffffffffffffffffff168152602001908152602001600020828154811061062c5761062b61105b565b5b906000526020600020906005020160040160016101000a81548160ff02191690831515021790555050565b60006040518060c001604052803373ffffffffffffffffffffffffffffffffffffffff1681526020018473ffffffffffffffffffffffffffffffffffffffff1681526020018381526020014281526020016000151581526020016000151581525090506000803373ffffffffffffffffffffffffffffffffffffffff1673ffffffffffffffffffffffffffffffffffffffff16815260200190815260200160002081908060018154018082558091505060019003906000526020600020906005020160009091909190915060008201518160000160006101000a81548173ffffffffffffffffffffffffffffffffffffffff021916908373ffffffffffffffffffffffffffffffffffffffff16021790555060208201518160010160006101000a81548173ffffffffffffffffffffffffffffffffffffffff021916908373ffffffffffffffffffffffffffffffffffffffff16021790555060408201518160020190816107c59190611236565b506060820151816003015560808201518160040160006101000a81548160ff02191690831515021790555060a08201518160040160016101000a81548160ff02191690831515021790555050506000808473ffffffffffffffffffffffffffffffffffffffff1673ffffffffffffffffffffffffffffffffffffffff16815260200190815260200160002081908060018154018082558091505060019003906000526020600020906005020160009091909190915060008201518160000160006101000a81548173ffffffffffffffffffffffffffffffffffffffff021916908373ffffffffffffffffffffffffffffffffffffffff16021790555060208201518160010160006101000a81548173ffffffffffffffffffffffffffffffffffffffff021916908373ffffffffffffffffffffffffffffffffffffffff160217905550604082015181600201908161091d9190611236565b506060820151816003015560808201518160040160006101000a81548160ff02191690831515021790555060a08201518160040160016101000a81548160ff02191690831515021790555050508273ffffffffffffffffffffffffffffffffffffffff163373ffffffffffffffffffffffffffffffffffffffff167fe2cf7446a11cbcd14cd99ea3a1bb77fb7653a64f4064d660140b5100d001e13c846040516109c79190611308565b60405180910390a3505050565b600081519050919050565b600082825260208201905092915050565b6000819050602082019050919050565b600073ffffffffffffffffffffffffffffffffffffffff82169050919050565b6000610a2b82610a00565b9050919050565b610a3b81610a20565b82525050565b600081519050919050565b600082825260208201905092915050565b60005b83811015610a7b578082015181840152602081019050610a60565b60008484015250505050565b6000601f19601f8301169050919050565b6000610aa382610a41565b610aad8185610a4c565b9350610abd818560208601610a5d565b610ac681610a87565b840191505092915050565b6000819050919050565b610ae481610ad1565b82525050565b60008115159050919050565b610aff81610aea565b82525050565b600060c083016000830151610b1d6000860182610a32565b506020830151610b306020860182610a32565b5060408301518482036040860152610b488282610a98565b9150506060830151610b5d6060860182610adb565b506080830151610b706080860182610af6565b5060a0830151610b8360a0860182610af6565b508091505092915050565b6000610b9a8383610b05565b905092915050565b6000602082019050919050565b6000610bba826109d4565b610bc481856109df565b935083602082028501610bd6856109f0565b8060005b85811015610c125784840389528151610bf38582610b8e565b9450610bfe83610ba2565b925060208a01995050600181019050610bda565b50829750879550505050505092915050565b60006020820190508181036000830152610c3e8184610baf565b905092915050565b6000604051905090565b600080fd5b600080fd5b610c6381610ad1565b8114610c6e57600080fd5b50565b600081359050610c8081610c5a565b92915050565b600060208284031215610c9c57610c9b610c50565b5b6000610caa84828501610c71565b91505092915050565b610cbc81610a20565b8114610cc757600080fd5b50565b600081359050610cd981610cb3565b92915050565b60008060408385031215610cf657610cf5610c50565b5b6000610d0485828601610cca565b9250506020610d1585828601610c71565b9150509250929050565b610d2881610a20565b82525050565b600082825260208201905092915050565b6000610d4a82610a41565b610d548185610d2e565b9350610d64818560208601610a5d565b610d6d81610a87565b840191505092915050565b610d8181610ad1565b82525050565b610d9081610aea565b82525050565b600060c082019050610dab6000830189610d1f565b610db86020830188610d1f565b8181036040830152610dca8187610d3f565b9050610dd96060830186610d78565b610de66080830185610d87565b610df360a0830184610d87565b979650505050505050565b600080fd5b600080fd5b7f4e487b7100000000000000000000000000000000000000000000000000000000600052604160045260246000fd5b610e4082610a87565b810181811067ffffffffffffffff82111715610e5f57610e5e610e08565b5b80604052505050565b6000610e72610c46565b9050610e7e8282610e37565b919050565b600067ffffffffffffffff821115610e9e57610e9d610e08565b5b610ea782610a87565b9050602081019050919050565b82818337600083830152505050565b6000610ed6610ed184610e83565b610e68565b905082815260208101848484011115610ef257610ef1610e03565b5b610efd848285610eb4565b509392505050565b600082601f830112610f1a57610f19610dfe565b5b8135610f2a848260208601610ec3565b91505092915050565b60008060408385031215610f4a57610f49610c50565b5b6000610f5885828601610cca565b925050602083013567ffffffffffffffff811115610f7957610f78610c55565b5b610f8585828601610f05565b9150509250929050565b7f4e487b7100000000000000000000000000000000000000000000000000000000600052602260045260246000fd5b60006002820490506001821680610fd657607f821691505b602082108103610fe957610fe8610f8f565b5b50919050565b7f496e76616c6964206d65737361676520696e6465780000000000000000000000600082015250565b6000611025601583610d2e565b915061103082610fef565b602082019050919050565b6000602082019050818103600083015261105481611018565b9050919050565b7f4e487b7100000000000000000000000000000000000000000000000000000000600052603260045260246000fd5b60008190508160005260206000209050919050565b60006020601f8301049050919050565b600082821b905092915050565b6000600883026110ec7fffffffffffffffffffffffffffffffffffffffffffffffffffffffffffffffff826110af565b6110f686836110af565b95508019841693508086168417925050509392505050565b6000819050919050565b600061113361112e61112984610ad1565b61110e565b610ad1565b9050919050565b6000819050919050565b61114d83611118565b6111616111598261113a565b8484546110bc565b825550505050565b600090565b611176611169565b611181818484611144565b505050565b5b818110156111a55761119a60008261116e565b600181019050611187565b5050565b601f8211156111ea576111bb8161108a565b6111c48461109f565b810160208510156111d3578190505b6111e76111df8561109f565b830182611186565b50505b505050565b600082821c905092915050565b600061120d600019846008026111ef565b1980831691505092915050565b600061122683836111fc565b9150826002028217905092915050565b61123f82610a41565b67ffffffffffffffff81111561125857611257610e08565b5b6112628254610fbe565b61126d8282856111a9565b600060209050601f8311600181146112a0576000841561128e578287015190505b611298858261121a565b865550611300565b601f1984166112ae8661108a565b60005b828110156112d6578489015182556001820191506020850194506020810190506112b1565b868310156112f357848901516112ef601f8916826111fc565b8355505b6001600288020188555050505b505050505050565b600060208201905081810360008301526113228184610d3f565b90509291505056fea26469706673582212200f1a7f28c4ae44c4892cd35ca9c31278a6ac88980ad4fc9e94f68c9e3f6024e064736f6c63430008150033",
  "devdoc": {
    "kind": "dev",
    "methods": {},
    "version": 1
  },
  "userdoc": {
    "kind": "user",
    "methods": {},
    "version": 1
  },
  "storageLayout": {
    "storage": [
      {
        "astId": 433,
        "contract": "contracts/MessageStorage.sol:MessageStorage",
        "label": "userMessages",
        "offset": 0,
        "slot": "0",
        "type": "t_mapping(t_address,t_array(t_struct(Message)427_storage)dyn_storage)"
      }
    ],
    "types": {
      "t_address": {
        "encoding": "inplace",
        "label": "address",
        "numberOfBytes": "20"
      },
      "t_array(t_struct(Message)427_storage)dyn_storage": {
        "base": "t_struct(Message)427_storage",
        "encoding": "dynamic_array",
        "label": "struct MessageStorage.Message[]",
        "numberOfBytes": "32"
      },
      "t_bool": {
        "encoding": "inplace",
        "label": "bool",
        "numberOfBytes": "1"
      },
      "t_mapping(t_address,t_array(t_struct(Message)427_storage)dyn_storage)": {
        "encoding": "mapping",
        "key": "t_address",
        "label": "mapping(address => struct MessageStorage.Message[])",
        "numberOfBytes": "32",
        "value": "t_array(t_struct(Message)427_storage)dyn_storage"
      },
      "t_string_storage": {
        "encoding": "bytes",
        "label": "string",
        "numberOfBytes": "32"
      },
      "t_struct(Message)427_storage": {
        "encoding": "inplace",
        "label": "struct MessageStorage.Message",
        "members": [
          {
            "astId": 416,
            "contract": "contracts/MessageStorage.sol:MessageStorage",
            "label": "sender",
            "offset": 0,
            "slot": "0",
            "type": "t_address"
          },
          {
            "astId": 418,
            "contract": "contracts/MessageStorage.sol:MessageStorage",
            "label": "recipient",
            "offset": 0,
            "slot": "1",
            "type": "t_address"
          },
          {
            "astId": 420,
            "contract": "contracts/MessageStorage.sol:MessageStorage",
            "label": "content",
            "offset": 0,
            "slot": "2",
            "type": "t_string_storage"
          },
          {
            "astId": 422,
            "contract": "contracts/MessageStorage.sol:MessageStorage",
            "label": "timestamp",
            "offset": 0,
            "slot": "3",
            "type": "t_uint256"
          },
          {
            "astId": 424,
            "contract": "contracts/MessageStorage.sol:MessageStorage",
            "label": "isRead",
            "offset": 0,
            "slot": "4",
            "type": "t_bool"
          },
          {
            "astId": 426,
            "contract": "contracts/MessageStorage.sol:MessageStorage",
            "label": "isDeleted",
            "offset": 1,
            "slot": "4",
            "type": "t_bool"
          }
        ],
        "numberOfBytes": "160"
      },
      "t_uint256": {
        "encoding": "inplace",
        "label": "uint256",
        "numberOfBytes": "32"
      }
    }
  }
}