{
  "address": "0xC65691ED04f7457aB3F6825D28BCC2d5ffcDFBf8",
  "abi": [
    {
      "inputs": [],
      "name": "UserNotRegistered",
      "type": "error"
    },
    {
      "anonymous": false,
      "inputs": [
        {
          "indexed": true,
          "internalType": "address",
          "name": "userAddress",
          "type": "address"
        },
        {
          "indexed": true,
          "internalType": "address",
          "name": "friendAddress",
          "type": "address"
        }
      ],
      "name": "FriendAdded",
      "type": "event"
    },
    {
      "anonymous": false,
      "inputs": [
        {
          "indexed": true,
          "internalType": "address",
          "name": "userAddress",
          "type": "address"
        },
        {
          "indexed": false,
          "internalType": "string",
          "name": "name",
          "type": "string"
        },
        {
          "indexed": false,
          "internalType": "string",
          "name": "email",
          "type": "string"
        }
      ],
      "name": "UserRegistered",
      "type": "event"
    },
    {
      "inputs": [
        {
          "internalType": "address",
          "name": "_friendAddress",
          "type": "address"
        }
      ],
      "name": "addFriend",
      "outputs": [],
      "stateMutability": "nonpayable",
      "type": "function"
    },
    {
      "inputs": [
        {
          "internalType": "bytes32",
          "name": "_passwordHash",
          "type": "bytes32"
        }
      ],
      "name": "authenticate",
      "outputs": [
        {
          "internalType": "bool",
          "name": "",
          "type": "bool"
        }
      ],
      "stateMutability": "view",
      "type": "function"
    },
    {
      "inputs": [],
      "name": "getMyFriendList",
      "outputs": [
        {
          "internalType": "address[]",
          "name": "",
          "type": "address[]"
        }
      ],
      "stateMutability": "view",
      "type": "function"
    },
    {
      "inputs": [],
      "name": "getMyUserInfo",
      "outputs": [
        {
          "internalType": "string",
          "name": "",
          "type": "string"
        },
        {
          "internalType": "string",
          "name": "",
          "type": "string"
        },
        {
          "internalType": "address[]",
          "name": "",
          "type": "address[]"
        }
      ],
      "stateMutability": "view",
      "type": "function"
    },
    {
      "inputs": [
        {
          "internalType": "string",
          "name": "_name",
          "type": "string"
        },
        {
          "internalType": "string",
          "name": "_email",
          "type": "string"
        },
        {
          "internalType": "bytes32",
          "name": "_passwordHash",
          "type": "bytes32"
        }
      ],
      "name": "registerUser",
      "outputs": [],
      "stateMutability": "nonpayable",
      "type": "function"
    },
    {
      "inputs": [
        {
          "internalType": "address",
          "name": "",
          "type": "address"
        }
      ],
      "name": "users",
      "outputs": [
        {
          "internalType": "string",
          "name": "name",
          "type": "string"
        },
        {
          "internalType": "string",
          "name": "email",
          "type": "string"
        },
        {
          "internalType": "bytes32",
          "name": "passwordHash",
          "type": "bytes32"
        },
        {
          "internalType": "bool",
          "name": "isRegistered",
          "type": "bool"
        }
      ],
      "stateMutability": "view",
      "type": "function"
    }
  ],
  "transactionHash": "0xc9a5ab83b6b16bcfb95621f282aed2911b4a210d37b209b15c9c1ebfa843daf0",
  "args": [],
  "numDeployments": 1,
  "solcInputHash": "766ccf26d35fedcabff9415cfa80cfd5",
  "bytecode": "0x608060405234801561001057600080fd5b50611aaa806100206000396000f3fe608060405234801561001057600080fd5b50600436106100625760003560e01c80635704069e146100675780635ad3da791461009757806368f6d82a146100b7578063a87430ba146100d3578063bd0f4d0d14610106578063d7a1cfe114610124575b600080fd5b610081600480360381019061007c9190610fa1565b610140565b60405161008e9190610fe9565b60405180910390f35b61009f61021b565b6040516100ae93929190611184565b60405180910390f35b6100d160048036038101906100cc9190611305565b61051c565b005b6100ed60048036038101906100e891906113bc565b61072d565b6040516100fd94939291906113f8565b60405180910390f35b61010e61087a565b60405161011b919061144b565b60405180910390f35b61013e600480360381019061013991906113bc565b6109d5565b005b60008060003373ffffffffffffffffffffffffffffffffffffffff1673ffffffffffffffffffffffffffffffffffffffff16815260200190815260200160002060030160009054906101000a900460ff166101d0576040517f08c379a00000000000000000000000000000000000000000000000000000000081526004016101c7906114b9565b60405180910390fd5b816000803373ffffffffffffffffffffffffffffffffffffffff1673ffffffffffffffffffffffffffffffffffffffff16815260200190815260200160002060020154149050919050565b60608060606000803373ffffffffffffffffffffffffffffffffffffffff1673ffffffffffffffffffffffffffffffffffffffff16815260200190815260200160002060030160009054906101000a900460ff166102ae576040517f08c379a00000000000000000000000000000000000000000000000000000000081526004016102a5906114b9565b60405180910390fd5b6000803373ffffffffffffffffffffffffffffffffffffffff1673ffffffffffffffffffffffffffffffffffffffff1681526020019081526020016000206000016000803373ffffffffffffffffffffffffffffffffffffffff1673ffffffffffffffffffffffffffffffffffffffff1681526020019081526020016000206001016000803373ffffffffffffffffffffffffffffffffffffffff1673ffffffffffffffffffffffffffffffffffffffff16815260200190815260200160002060040182805461037d90611508565b80601f01602080910402602001604051908101604052809291908181526020018280546103a990611508565b80156103f65780601f106103cb576101008083540402835291602001916103f6565b820191906000526020600020905b8154815290600101906020018083116103d957829003601f168201915b5050505050925081805461040990611508565b80601f016020809104026020016040519081016040528092919081815260200182805461043590611508565b80156104825780601f1061045757610100808354040283529160200191610482565b820191906000526020600020905b81548152906001019060200180831161046557829003601f168201915b505050505091508080548060200260200160405190810160405280929190818152602001828054801561050a57602002820191906000526020600020905b8160009054906101000a900473ffffffffffffffffffffffffffffffffffffffff1673ffffffffffffffffffffffffffffffffffffffff16815260200190600101908083116104c0575b50505050509050925092509250909192565b6000803373ffffffffffffffffffffffffffffffffffffffff1673ffffffffffffffffffffffffffffffffffffffff16815260200190815260200160002060030160009054906101000a900460ff16156105ab576040517f08c379a00000000000000000000000000000000000000000000000000000000081526004016105a290611585565b60405180910390fd5b60006040518060a00160405280858152602001848152602001838152602001600115158152602001600067ffffffffffffffff8111156105ee576105ed6111da565b5b60405190808252806020026020018201604052801561061c5781602001602082028036833780820191505090505b508152509050806000803373ffffffffffffffffffffffffffffffffffffffff1673ffffffffffffffffffffffffffffffffffffffff1681526020019081526020016000206000820151816000019081610676919061175b565b50602082015181600101908161068c919061175b565b506040820151816002015560608201518160030160006101000a81548160ff02191690831515021790555060808201518160040190805190602001906106d3929190610eb0565b509050503373ffffffffffffffffffffffffffffffffffffffff167f92822564bab8864c3a47b34e8d23fbce5c46234eb5da261f94087b995ac0f33b858560405161071f92919061182d565b60405180910390a250505050565b600060205280600052604060002060009150905080600001805461075090611508565b80601f016020809104026020016040519081016040528092919081815260200182805461077c90611508565b80156107c95780601f1061079e576101008083540402835291602001916107c9565b820191906000526020600020905b8154815290600101906020018083116107ac57829003601f168201915b5050505050908060010180546107de90611508565b80601f016020809104026020016040519081016040528092919081815260200182805461080a90611508565b80156108575780601f1061082c57610100808354040283529160200191610857565b820191906000526020600020905b81548152906001019060200180831161083a57829003601f168201915b5050505050908060020154908060030160009054906101000a900460ff16905084565b60606000803373ffffffffffffffffffffffffffffffffffffffff1673ffffffffffffffffffffffffffffffffffffffff16815260200190815260200160002060030160009054906101000a900460ff1661090a576040517f08c379a0000000000000000000000000000000000000000000000000000000008152600401610901906114b9565b60405180910390fd5b6000803373ffffffffffffffffffffffffffffffffffffffff1673ffffffffffffffffffffffffffffffffffffffff1681526020019081526020016000206004018054806020026020016040519081016040528092919081815260200182805480156109cb57602002820191906000526020600020905b8160009054906101000a900473ffffffffffffffffffffffffffffffffffffffff1673ffffffffffffffffffffffffffffffffffffffff1681526020019060010190808311610981575b5050505050905090565b6000803373ffffffffffffffffffffffffffffffffffffffff1673ffffffffffffffffffffffffffffffffffffffff16815260200190815260200160002060030160009054906101000a900460ff16610a63576040517f08c379a0000000000000000000000000000000000000000000000000000000008152600401610a5a906118b0565b60405180910390fd5b8073ffffffffffffffffffffffffffffffffffffffff163373ffffffffffffffffffffffffffffffffffffffff1603610ad1576040517f08c379a0000000000000000000000000000000000000000000000000000000008152600401610ac890611942565b60405180910390fd5b6000808273ffffffffffffffffffffffffffffffffffffffff1673ffffffffffffffffffffffffffffffffffffffff16815260200190815260200160002060030160009054906101000a900460ff16610b56576040517f2163950f00000000000000000000000000000000000000000000000000000000815260040160405180910390fd5b6000805b6000803373ffffffffffffffffffffffffffffffffffffffff1673ffffffffffffffffffffffffffffffffffffffff16815260200190815260200160002060040180549050811015610c72578273ffffffffffffffffffffffffffffffffffffffff166000803373ffffffffffffffffffffffffffffffffffffffff1673ffffffffffffffffffffffffffffffffffffffff1681526020019081526020016000206004018281548110610c1057610c0f611962565b5b9060005260206000200160009054906101000a900473ffffffffffffffffffffffffffffffffffffffff1673ffffffffffffffffffffffffffffffffffffffff1603610c5f5760019150610c72565b8080610c6a906119c0565b915050610b5a565b508015610cb4576040517f08c379a0000000000000000000000000000000000000000000000000000000008152600401610cab90611a54565b60405180910390fd5b6000803373ffffffffffffffffffffffffffffffffffffffff1673ffffffffffffffffffffffffffffffffffffffff168152602001908152602001600020600401829080600181540180825580915050600190039060005260206000200160009091909190916101000a81548173ffffffffffffffffffffffffffffffffffffffff021916908373ffffffffffffffffffffffffffffffffffffffff1602179055508173ffffffffffffffffffffffffffffffffffffffff163373ffffffffffffffffffffffffffffffffffffffff167f6cbc8134e69f02f9dbaa28d8f3d760a490876f55060afa4d6882a86c2590cc7b60405160405180910390a36000808373ffffffffffffffffffffffffffffffffffffffff1673ffffffffffffffffffffffffffffffffffffffff168152602001908152602001600020600401339080600181540180825580915050600190039060005260206000200160009091909190916101000a81548173ffffffffffffffffffffffffffffffffffffffff021916908373ffffffffffffffffffffffffffffffffffffffff1602179055503373ffffffffffffffffffffffffffffffffffffffff168273ffffffffffffffffffffffffffffffffffffffff167f6cbc8134e69f02f9dbaa28d8f3d760a490876f55060afa4d6882a86c2590cc7b60405160405180910390a35050565b828054828255906000526020600020908101928215610f29579160200282015b82811115610f285782518260006101000a81548173ffffffffffffffffffffffffffffffffffffffff021916908373ffffffffffffffffffffffffffffffffffffffff16021790555091602001919060010190610ed0565b5b509050610f369190610f3a565b5090565b5b80821115610f53576000816000905550600101610f3b565b5090565b6000604051905090565b600080fd5b600080fd5b6000819050919050565b610f7e81610f6b565b8114610f8957600080fd5b50565b600081359050610f9b81610f75565b92915050565b600060208284031215610fb757610fb6610f61565b5b6000610fc584828501610f8c565b91505092915050565b60008115159050919050565b610fe381610fce565b82525050565b6000602082019050610ffe6000830184610fda565b92915050565b600081519050919050565b600082825260208201905092915050565b60005b8381101561103e578082015181840152602081019050611023565b60008484015250505050565b6000601f19601f8301169050919050565b600061106682611004565b611070818561100f565b9350611080818560208601611020565b6110898161104a565b840191505092915050565b600081519050919050565b600082825260208201905092915050565b6000819050602082019050919050565b600073ffffffffffffffffffffffffffffffffffffffff82169050919050565b60006110eb826110c0565b9050919050565b6110fb816110e0565b82525050565b600061110d83836110f2565b60208301905092915050565b6000602082019050919050565b600061113182611094565b61113b818561109f565b9350611146836110b0565b8060005b8381101561117757815161115e8882611101565b975061116983611119565b92505060018101905061114a565b5085935050505092915050565b6000606082019050818103600083015261119e818661105b565b905081810360208301526111b2818561105b565b905081810360408301526111c68184611126565b9050949350505050565b600080fd5b600080fd5b7f4e487b7100000000000000000000000000000000000000000000000000000000600052604160045260246000fd5b6112128261104a565b810181811067ffffffffffffffff82111715611231576112306111da565b5b80604052505050565b6000611244610f57565b90506112508282611209565b919050565b600067ffffffffffffffff8211156112705761126f6111da565b5b6112798261104a565b9050602081019050919050565b82818337600083830152505050565b60006112a86112a384611255565b61123a565b9050828152602081018484840111156112c4576112c36111d5565b5b6112cf848285611286565b509392505050565b600082601f8301126112ec576112eb6111d0565b5b81356112fc848260208601611295565b91505092915050565b60008060006060848603121561131e5761131d610f61565b5b600084013567ffffffffffffffff81111561133c5761133b610f66565b5b611348868287016112d7565b935050602084013567ffffffffffffffff81111561136957611368610f66565b5b611375868287016112d7565b925050604061138686828701610f8c565b9150509250925092565b611399816110e0565b81146113a457600080fd5b50565b6000813590506113b681611390565b92915050565b6000602082840312156113d2576113d1610f61565b5b60006113e0848285016113a7565b91505092915050565b6113f281610f6b565b82525050565b60006080820190508181036000830152611412818761105b565b90508181036020830152611426818661105b565b905061143560408301856113e9565b6114426060830184610fda565b95945050505050565b600060208201905081810360008301526114658184611126565b905092915050565b7f55736572206e6f74207265676973746572656400000000000000000000000000600082015250565b60006114a360138361100f565b91506114ae8261146d565b602082019050919050565b600060208201905081810360008301526114d281611496565b9050919050565b7f4e487b7100000000000000000000000000000000000000000000000000000000600052602260045260246000fd5b6000600282049050600182168061152057607f821691505b602082108103611533576115326114d9565b5b50919050565b7f5573657220616c72656164792072656769737465726564000000000000000000600082015250565b600061156f60178361100f565b915061157a82611539565b602082019050919050565b6000602082019050818103600083015261159e81611562565b9050919050565b60008190508160005260206000209050919050565b60006020601f8301049050919050565b600082821b905092915050565b6000600883026116077fffffffffffffffffffffffffffffffffffffffffffffffffffffffffffffffff826115ca565b61161186836115ca565b95508019841693508086168417925050509392505050565b6000819050919050565b6000819050919050565b600061165861165361164e84611629565b611633565b611629565b9050919050565b6000819050919050565b6116728361163d565b61168661167e8261165f565b8484546115d7565b825550505050565b600090565b61169b61168e565b6116a6818484611669565b505050565b5b818110156116ca576116bf600082611693565b6001810190506116ac565b5050565b601f82111561170f576116e0816115a5565b6116e9846115ba565b810160208510156116f8578190505b61170c611704856115ba565b8301826116ab565b50505b505050565b600082821c905092915050565b600061173260001984600802611714565b1980831691505092915050565b600061174b8383611721565b9150826002028217905092915050565b61176482611004565b67ffffffffffffffff81111561177d5761177c6111da565b5b6117878254611508565b6117928282856116ce565b600060209050601f8311600181146117c557600084156117b3578287015190505b6117bd858261173f565b865550611825565b601f1984166117d3866115a5565b60005b828110156117fb578489015182556001820191506020850194506020810190506117d6565b868310156118185784890151611814601f891682611721565b8355505b6001600288020188555050505b505050505050565b60006040820190508181036000830152611847818561105b565b9050818103602083015261185b818461105b565b90509392505050565b7f55736572206e6f74207265676973746572656421000000000000000000000000600082015250565b600061189a60148361100f565b91506118a582611864565b602082019050919050565b600060208201905081810360008301526118c98161188d565b9050919050565b7f557365722063616e6e6f7420616464207468656d73656c76657320617320667260008201527f69656e6421000000000000000000000000000000000000000000000000000000602082015250565b600061192c60258361100f565b9150611937826118d0565b604082019050919050565b6000602082019050818103600083015261195b8161191f565b9050919050565b7f4e487b7100000000000000000000000000000000000000000000000000000000600052603260045260246000fd5b7f4e487b7100000000000000000000000000000000000000000000000000000000600052601160045260246000fd5b60006119cb82611629565b91507fffffffffffffffffffffffffffffffffffffffffffffffffffffffffffffffff82036119fd576119fc611991565b5b600182019050919050565b7f5573657220697320616c7265616479206120667269656e640000000000000000600082015250565b6000611a3e60188361100f565b9150611a4982611a08565b602082019050919050565b60006020820190508181036000830152611a6d81611a31565b905091905056fea2646970667358221220372db5b4781aeb03cc9c65862193b7e06f56150e92a3db443f0deefc9e6aa40d64736f6c63430008150033",
  "devdoc": {
    "kind": "dev",
    "methods": {},
    "version": 1
  },
  "userdoc": {
    "kind": "user",
    "methods": {},
    "version": 1
  },
  "storageLayout": {
    "storage": [
      {
        "astId": 574,
        "contract": "contracts/UserRegistrationAndAuthentication.sol:UserRegistrationAndAuthentication",
        "label": "users",
        "offset": 0,
        "slot": "0",
        "type": "t_mapping(t_address,t_struct(User)569_storage)"
      }
    ],
    "types": {
      "t_address": {
        "encoding": "inplace",
        "label": "address",
        "numberOfBytes": "20"
      },
      "t_array(t_address)dyn_storage": {
        "base": "t_address",
        "encoding": "dynamic_array",
        "label": "address[]",
        "numberOfBytes": "32"
      },
      "t_bool": {
        "encoding": "inplace",
        "label": "bool",
        "numberOfBytes": "1"
      },
      "t_bytes32": {
        "encoding": "inplace",
        "label": "bytes32",
        "numberOfBytes": "32"
      },
      "t_mapping(t_address,t_struct(User)569_storage)": {
        "encoding": "mapping",
        "key": "t_address",
        "label": "mapping(address => struct UserRegistrationAndAuthentication.User)",
        "numberOfBytes": "32",
        "value": "t_struct(User)569_storage"
      },
      "t_string_storage": {
        "encoding": "bytes",
        "label": "string",
        "numberOfBytes": "32"
      },
      "t_struct(User)569_storage": {
        "encoding": "inplace",
        "label": "struct UserRegistrationAndAuthentication.User",
        "members": [
          {
            "astId": 559,
            "contract": "contracts/UserRegistrationAndAuthentication.sol:UserRegistrationAndAuthentication",
            "label": "name",
            "offset": 0,
            "slot": "0",
            "type": "t_string_storage"
          },
          {
            "astId": 561,
            "contract": "contracts/UserRegistrationAndAuthentication.sol:UserRegistrationAndAuthentication",
            "label": "email",
            "offset": 0,
            "slot": "1",
            "type": "t_string_storage"
          },
          {
            "astId": 563,
            "contract": "contracts/UserRegistrationAndAuthentication.sol:UserRegistrationAndAuthentication",
            "label": "passwordHash",
            "offset": 0,
            "slot": "2",
            "type": "t_bytes32"
          },
          {
            "astId": 565,
            "contract": "contracts/UserRegistrationAndAuthentication.sol:UserRegistrationAndAuthentication",
            "label": "isRegistered",
            "offset": 0,
            "slot": "3",
            "type": "t_bool"
          },
          {
            "astId": 568,
            "contract": "contracts/UserRegistrationAndAuthentication.sol:UserRegistrationAndAuthentication",
            "label": "friendList",
            "offset": 0,
            "slot": "4",
            "type": "t_array(t_address)dyn_storage"
          }
        ],
        "numberOfBytes": "160"
      }
    }
  }
}